:020000040800F2
:104000009009002045410008FD6200082160000879
:10401000F962000831460008E9630008000000006A
:104020000000000000000000000000000563000820
:10403000354600080000000001630008096300081D
:104040005F4100085F4100085F4100085F410008D0
:104050005F4100085F4100085F4100085F410008C0
:104060005F4100085F410008394600085F410008D1
:104070005F4100085F4100085F4100085F410008A0
:104080005F4100085F4100085F4100085F41000890
:104090005F4100085F4100085F4100085F41000880
:1040A0005F4100085F4100085F4100085F41000870
:1040B0005F4100085F4100085F4100085F41000860
:1040C0005F4100085F4100085F4100085F41000850
:1040D0005F410008DD6300085F4100085F410008A0
:1040E0005F4100085F4100085F4100085F41000830
:1040F0005F4100085F4100085F4100085F41000820
:104100005F4100085F4100085F4100085F4100080F
:104110005F4100085F4100085F4100085F410008FF
:104120005F4100085F4100085F4100085F410008EF
:10413000DFF80CD000F0B2F8004800473164000806
:10414000900900200648804706480047FEE7FEE742
:10415000FEE7FEE7FEE7FEE7FEE7FEE7FEE7FEE737
:104160000D63000831410008D2B201E000F8012BD4
:10417000491EFBD270470022F6E710B513460A46E7
:1041800004461946FFF7F0FF204610BD30B505463E
:104190002A460B4612F8010B13F8014B08B1A04256
:1041A000F8D01CB1002802D06D1CF1E7284630BDC4
:1041B00070B5064602F0AEF9046805460A220021F1
:1041C000304600F033F82C6070BD2DE9F05F0546F5
:1041D000002092469B4688460646814640241BE0C6
:1041E000284641464746224600F07FF853465A4645
:1041F000C01A914110D311461846224600F066F8C5
:104200002D1A67EB01084F4622460120002100F0DD
:104210005DF817EB00094E41201EA4F10104DFDC1C
:10422000484631462A464346BDE8F09F2DE9F0470F
:1042300091460F4680460446002614F8015B2DB1D6
:1042400000F064F80068405DC007F6D12B2D02D065
:104250002D2D18D0641E4A463946204600F05AF8E3
:1042600027B13968A14201D1C7F8008071054FF02C
:1042700002040BD54042002803DD02F04BF9046034
:10428000A007BDE8F08746F48066E4E70028F8DA86
:1042900002F040F904606FF00040F2E71CB50948F5
:1042A0000090094801900546009C06E0E06840F057
:1042B000010394E8070098471034AC42F6D3FFF7A7
:1042C0003BFF0000AC6A0008CC6A0008202A04DB2F
:1042D000203A00FA02F1002070479140C2F1200319
:1042E00020FA03F3194390407047202A04DB203A58
:1042F00021FA02F00021704721FA02F3D040C2F106
:10430000200291400843194670470000004870475A
:10431000486A00082DE9F05F8246007800271546BC
:104320008B460AF10104B946302801D09DB113E053
:1043300014F8010B0127782803D0582801D045B183
:104340000AE00DB1102D07D10027102514F8010B3C
:1043500002E0082500E00A250026B0460EE005FB35
:10436000080005FB06F1012701EB10461FFA80F853
:10437000B6F5803F00D3B94614F8010B294600F08A
:1043800018F80028EBDABBF1000F05D00FB1641E5E
:1043900000E05446CBF80040B9F1000F06D002F01F
:1043A000B9F802210160C81EBDE8F09F48EA064046
:1043B000FAE73A2800D2303820F02002412A01D30F
:1043C000A2F13700884201D34FF0FF307047000060
:1043D00080B508A002F0E4FA0AA002F0E1FA0FA00A
:1043E00002F0DEFA40F26000C2F20000002101702B
:1043F00080BD00BF72657365742073746172740D43
:104400000000000077616974207573657220746F15
:104410002073656E6420646174610D0073656E6461
:10442000202773746172743A6C656E2720746F2054
:1044300073746172740D000010B582B040F25804BC
:1044400040F2141040F21801C2F200046FF07F4CE9
:10445000C2F20000C2F2000140222346CDF800C0A3
:1044600001F010F92088D0B140F21800C2F200002B
:1044700010A1FFF78BFEA0B10630FFF799FE0146B1
:1044800040F25C00C2F20000016061B10BA002F0DA
:1044900031F840F26000C2F200000121017002B068
:1044A00010BD0DA000E009A002B0BDE8104002F070
:1044B00077BA00BF73746172743A00006170702043
:1044C0006C656E3A25640D0A000000006C656E2074
:1044D0006572726F720D00007265632064617461B1
:1044E000206572726F720D0070B540F26004C2F206
:1044F00000042078042812D8DFE800F003381223E3
:104500000700BDE87040FFF797BF46F67620C0F67B
:10451000000002F045FA01F09BFD00284DD170BD6E
:1045200040F26015C2F2000528680028F7D000F0BC
:10453000B3FB2968401AB0F5FA6FF0D90320207058
:1045400070BD40F28A50C2F20000058840F25C0063
:10455000C2F200000668AE4221D146F68320C0F6C2
:10456000000002F01DFA042020701EE048F2000056
:10457000C0F600000A2101F055FD21A002F010FA5A
:1045800025A002F00DFA0220207040F26100C2F274
:10459000000000210170BDE8704001F0B9BD46F691
:1045A0009220C0F6000002F0FBF9AE4208BF70BDD9
:1045B0000CA002F0F5F901F019FF02A002F0F0F9E9
:1045C00001F014FF6A756D7020746F2061707020A7
:1045D0006572726F722C73797374656D2072657376
:1045E00065740D00636865636B206572726F722C71
:1045F00073797374656D2072657365740D000000C6
:10460000657261736520666C61736820737563639E
:104610006573730D00000000726564657920746F26
:104620002072656365697665206170700D00000019
:10463000FEE7000070470000102000F02DBA0000D7
:10464000EFF3108072B600BFFEE70000F0B581B056
:1046500042F20C060446C4F2020600F01DFB31686B
:10466000C90715D13068800644BF2020306030680B
:10467000C00608D43069C00705D13068400702D4AD
:10468000002001B0F0BD3068C00608D400200FE063
:104690000546671C2CD084BB032001B0F0BD40F25E
:1046A0006810C2F20000C16941F00201C16110202E
:1046B0003168490709D540F26811C2F20001CA69A0
:1046C00040F0040042F00102CA613169C9070BD011
:1046D00040F26811C2F20001CA6942F00402CA61E4
:1046E000316921F0010131613060012001B0F0BD7C
:1046F0003068C007B6D0002FFAD000F0CDFA401BCA
:10470000A042F5D9C8E70000014690F82100022830
:1047100013D10868D1E90FC3026822F00E020260CB
:10472000026822F001020260012000FA03F2CCF8D4
:10473000042081F82100002002E004208863012089
:10474000002281F82020704790F82110022927D1FB
:10475000026840F2040C1368C4F2020C23F00E034A
:10476000136013680CF17C018A4223F0010111608F
:104770001AD940F20841C4F202018A424ED040F2F6
:104780001C41C4F202018A4241D040F23041C4F2DD
:1047900002018A4246D14FF48073CCF8003457E0CE
:1047A00004218163012070474321C4F202018A423F
:1047B0000EDD6B21C4F202018A421BDC4421C4F2EB
:1047C00002018A423BD05821C4F202018A4222E00F
:1047D0000821C4F202018A422FD01C21C4F2020136
:1047E0008A4232D03021C4F202018A4213D14FF4FE
:1047F00080722BE06C21C4F202018A4222D0802117
:10480000C4F202018A4206D14FF080721EE01023EA
:10481000CCF800341CE04FF4803217E00123CCF8D0
:10482000003415E00CF588614FF480338A4208BFEC
:104830004FF48053CCF800340AE0012206E04FF434
:10484000805203E04FF4801200E01022CCF80020E8
:10485000012180F82110416B0022002980F82020DE
:1048600004BF0020704780B58847002080BD00004D
:1048700080B541F20C00C4F202004FF0FF3100227B
:10488000416042600160026000F042FB002080BD98
:10489000B0B5044600F000FA054640F20C00C2F242
:1048A00000000078611C18BF044400BF00F0F4F958
:1048B000401BA042FAD3B0BD2DE9F04381B040F2D5
:1048C0006815C2F200052A7E012A03D1022001B038
:1048D000BDE8F08304460120266828764CF250306B
:1048E0008846FFF7B3FE022E18D1002845D10020DC
:1048F00042F21004E861C4F20204206840F00400AF
:104900002060206840F0400020604CF25030FFF7FB
:104910009DFE216821F0040121602FE068BB4FF06B
:10492000FF30C8F80000D4E9027007EBC0208742CE
:1049300023D242F21006C4F202064FF0000900BF73
:10494000C5F81C90306840F0020030607760306835
:1049500040F0400030604CF25030FFF777FE316895
:1049600021F00201316070B9D4E9021207F5006745
:1049700001EBC2218F42E3D300E001200021297620
:1049800001B0BDE8F083C8F80070F7E742F210010B
:10499000C4F20201086840F0800200200A607047FB
:1049A0002DE9F04F81B01C4640F26813C2F20003BB
:1049B00091461A7E012A03D1022001B0BDE8F08F92
:1049C0000746012018764CF250300E46FFF73EFEA7
:1049D00040F26812C2F2000200283DD142F21005F6
:1049E0003846C4F20205022F18BF04205FFA80FB8C
:1049F0004FF0000A4FF000080023CAF12001D361F4
:104A000029FA0AF004FA01F12A680843BAF12001F0
:104A100058BF24FA01F042F00101296030804CF2C5
:104A20005030FFF713FE296821F00101296078B9A1
:104A3000012F0DD008F101085FFA88F140F26812E9
:104A400002368B450AF1100AC2F20002D4D803E004
:104A500040F26812C2F200020021117601B0BDE8F6
:104A6000F08F000042F20400C4F20200C16809069F
:104A70005CBF0020704740F22311C4F2675101600F
:104A800048F6AB11CCF6EF510160C068C0B2C00966
:104A9000704700007047000040F21441C4F2010169
:104AA0000A68024214BF08607047FFF7F3BF0000B6
:104AB0002DE9F04F82B00E68002E00F0E380A0F1E7
:104AC000804241F6004540F20043A2F58432C4F230
:104AD00001050624C4F201034FEAB227A84208BF29
:104AE00005244FF0000E4FF001080F254FF0000A8B
:104AF0004FF0000B052F38BF4FEAB224009408E0B6
:104B00000E680AF1010A36FA0AF20EF1040E00F0FC
:104B1000B98008FA0AFC16EA0C09F1D04E684FF683
:104B2000FF72C1F21002964210DC122E50D8DFE85C
:104B300006F0330A48454F4F4F4F4F4F4F4F4F4F9F
:104B40004F4F4F414C00D1F80CB041E04FF6FF728F
:104B5000C1F2210296420FDC0022C1F211029642FC
:104B60001AD00022C1F21202964215D00022C1F2E0
:104B70002102964210D02BE00022C1F2220296427E
:104B80000AD00022C1F23102964205D00022C1F2C1
:104B9000320296421CD100BF8A6842B1012A14BF7A
:104BA000C0F814C0C0F810C04FF0080B10E04FF070
:104BB000040B0DE0CA6802F1040B09E04FF0000B92
:104BC00006E0CA6802F1080B02E0CA6802F10C0BA9
:104BD00002467446B9F5807F24BF0432203C166833
:104BE00005FA04F726EA07070BFA04F637431760BD
:104BF000CA79D2067FF584AF41F21807C4F20207E2
:104C00003A684FF6084542F001023A603A68CFF63A
:104C1000FF7502F001020192019A2AF003021A4480
:104C20000F2457590EF00C06B440A743009C04FA19
:104C300006F6374357514E6840F20C44F2029A6828
:104C400054BF22EA090242EA0902C4F201049A604E
:104C50002268B70254BF22EA090242EA090222602E
:104C60005A68B70354BF22EA090242EA09025A60AD
:104C70000F251A68F70354BF22EA090242EA090223
:104C80001A603DE702B0BDE8F08F0000002A08BFBF
:104C9000090401617047000040F28C50C2F200002C
:104CA00000687047002804BF01207047F0B581B04C
:104CB000044690F83D0028B9002084F83C002046C6
:104CC00000F0A8F8242084F83D002068016821F055
:104CD00001010160016841F400410160016821F4B3
:104CE0000041016000F060FA636848F2A16CC0F214
:104CF000010C40F60011C0F23D0163453CBF48F293
:104D00008041C0F21E01884202D2012001B0F0BDF4
:104D10004DF68361C4F21B31A0FB01122168970C90
:104D2000D1F804E04FF496762EF03F0545EA92451F
:104D30004D60774348F638160D6AC0F24106A7FB6E
:104D4000067625F03F07634538BF960C721C3A4340
:104D50000A62CA6948F2A0664CF6FF77C0F2010603
:104D6000B34222EA070C0AD801385A00B0FBF2F02D
:104D700001306FF31F30042898BF042020E0A268A0
:104D80001927002A08BF032701385F43B0FBF7F754
:104D900001373F0509D052B119225A43B0FBF2F056
:104DA0000422013062F31F3008E0012008E003EB29
:104DB0004302B0FBF2F001306FF31F3040F40040CB
:104DC00040EA0C00C8610868D4E9072320F0C0005D
:104DD000104318430860886848F2FF3204F10C075A
:104DE00090438CCF18431043A6698860C86820F0B0
:104DF000FF0038433043C860086840F00100086095
:104E000000202021206484F83D10206384F83E00B7
:104E100001B0F0BD10B586B0016845F20040C4F2A3
:104E2000000081424FF00001CDE90411CDE90211EB
:104E300001D006B010BD41F21804C4F2020421688A
:104E400000F5384041F008012160216801F00801B7
:104E500001910199C0210291122103910321059131
:104E600002A9FFF725FE606840F4001060606068EA
:104E700000F400100190019806B010BD40F20C0043
:104E800040F28C51C2F20000C2F2000100780A68C0
:104E9000104408607047000080B542F20000C4F280
:104EA0000200016841F010010160032000F092F857
:104EB0000F2000F005F800F02DF8002080BD000064
:104EC000B0B540F20C02C2F2000240F208011278C2
:104ED000C2F200014FF47A730968B3FBF2F20446A0
:104EE000B1FBF2F1084600F0B7FB0F2C4FF00105C3
:104EF0000CD858B94FF0FF3021460022002500F0B1
:104F00003DF840F21000C2F2000004602846B0BD37
:104F10007047000082B041F21800C4F2020001683C
:104F2000022241F001010160016801F001010191DB
:104F30000199416841F080514160406800F0805023
:104F4000009000980420C4F20100016862F31A6125
:104F5000016002B070470000002848BF704700F0B1
:104F60001F01012202FA01F11C2202EAD0004EF2D6
:104F70000012CEF2000281507047000010B54EF6CC
:104F80000C5CCEF2000CDCF80030C3F3022E8EF085
:104F90000704042C28BF0424BEF103034FF0FF3E96
:104FA0000EFA04F438BF0023A14399400EFA03F32C
:104FB0009A43114300F1604200F00F03090102F52A
:104FC0006442043B6344002848BF03F10C021170A3
:104FD00010BD00004EF60C51CEF200010A684FF6EB
:104FE000FF031A4060F30A2242F0806040F0FD7037
:104FF00008607047002804BF012070472DE9F04386
:1050000081B042F20008C4F202080446D8F8000059
:105010000D4600F0070081420CD9D8F8000020F0BE
:1050200007002843C8F80000D8F8000000F0070087
:10503000A8426BD1206841F204098107C4F2020939
:1050400017D5410705D5D9F8001041F4E061C9F83A
:105050000010010705D5D9F8001041F46051C9F8D6
:105060000010D9F80010A26821F0F0011143C9F82E
:105070000010C00741D1D8F8000000F007008542B9
:105080000CD2D8F8000020F007002843C8F8000030
:10509000D8F8000000F00700A84237D12068410787
:1050A00007D5D9F80010E26821F4E0611143C9F88E
:1050B0000010000708D5D9F80000216920F46050DD
:1050C00040EAC100C9F80000D9F8002002F00C0045
:1050D000082841F20020C0F27A0049D146F6662342
:1050E000C2F38341C0F60003595CD20334D440F6C6
:1050F0000010C0F23D0048433AE0606859F8041CD3
:10510000022807D0012824D1890305D4012001B049
:10511000BDE8F0838901F9D5D9F8001021F0030129
:105120000843C9F80000FFF7B7FD064641F288378B
:10513000D9F80000616800F00C00B0EB810F9AD044
:10514000FFF7AAFD801BB842F2D9032001B0BDE8E9
:10515000F0838907DAD5DFE7D9F8002046F6642323
:10516000C2F34042C0F600039A5C4843B0FBF2F041
:10517000D9F8001046F64C22C1F30311C0F6000224
:10518000515C40F2080220FA01F140F21000C2F234
:1051900000000068C2F200021160FFF791FE0020DB
:1051A00001B0BDE8F083000040F2080041F20401C4
:1051B000C2F20000C4F202010068096846F65C22EF
:1051C000C1F30221C0F60002515CC84070470000E4
:1051D00040F2080041F20401C2F20000C4F20201F0
:1051E0000068096846F65C22C1F3C221C0F60002DD
:1051F000515CC84070470000002804BF0120704780
:105200002DE9F04182B00446007841F20006C00763
:10521000C4F2020647D0706800F00C00042808D1E0
:10522000306880033FD56068E8BB012002B0BDE86C
:10523000F081706800F00C00082802D17068C0038B
:10524000EED4656830682DB1B5F5A02F09D0B5F55D
:10525000803F0AD020F480303060306820F4802015
:1052600005E040F480203060306840F480303060E9
:10527000FFF712FD002D054612D000BF30688003F5
:1052800011D4FFF709FD401B6428F7D916E100BFD0
:10529000FFF702FD401B64284FF0030000F2D880A6
:1052A00030688003F4D42078800719D5706810F036
:1052B0000C0F07D0706800F00C00082827D1706828
:1052C000C00324D43068800703D52069012840F04A
:1052D000A6803068616920F0F80040EAC1003060C3
:1052E000207800074ED5A06938B30020C4F24220D0
:1052F0000121C0F88014FFF7CFFC0546706A8007D3
:105300002DD4FFF7C9FC401B0228F7D9D6E020694D
:10531000002840F20000C4F2422000F0A8800121E1
:105320000160FFF7B9FC054630688007D1D4FFF76C
:10533000B3FC401B0228F7D9C0E00020C4F2422091
:105340000021C0F88014FFF7A7FC0546706A8007AB
:1053500018D5FFF7A1FC401B0228F7D9AEE040F2B8
:105360000800C2F20000006844F6D351C1F26201A5
:10537000A0FB0101480A019000BF0198411E0028CE
:105380000191F9D12078400717D4E5698DB1706893
:1053900000F00C00082846D1012D40D07068216A29
:1053A00000F480328A423AD1616A00F47010884277
:1053B00035D1002002B0BDE8F081F0695FEAC00895
:1053C00008D4F06940F08050F061F06900F080503E
:1053D0000090009847F20007C4F200073868C00543
:1053E0000FD4386840F480703860FFF755FC0546EC
:1053F0003868C00505D4FFF74FFC401B6428F7D977
:105400005CE0E568306A1DB1052D41D0012D43D027
:1054100020F001003062306A20F004003EE00120FC
:1054200002B0BDE8F0810027C4F2422700203866B0
:10543000FFF732FC022D05460ED100BF3068800117
:1054400053D5FFF729FC401B02284FF00300F5D984
:1054500002B0BDE8F08100BF30688001A9D5FFF738
:105460001BFC401B02284FF00300F5D9F0E7002198
:105470000160FFF711FC0546306880077FF530AF0B
:10548000FFF70AFC401B02284FF00300F4D9DFE7C6
:1054900040F004003062306A40F001003062FFF7F3
:1054A000FBFB002D054641F2883712D0306A800799
:1054B00012D4FFF7F1FB401BB842F7D9032002B02A
:1054C000BDE8F081FFF7E8FB401BB8424FF0030056
:1054D000BED8306A8007F5D4B8F1000F3FF555AF5C
:1054E000F06920F08050F0614FE7206AB0F5803F0E
:1054F00005D17168A26821F40031114371607168AF
:10550000626A21F474111143084370600120386607
:10551000FFF7C2FB044600BF306880013FF549AF8A
:10552000FFF7BAFB001B02284FF00300F4D98FE706
:1055300070B528B1416A29B100210161142106E04A
:10554000012070BD4168B1F5827F02D01C2100228C
:1055500042500026866290F8511029B980F85060B8
:10556000054600F039F82846022180F8511090E8ED
:105570002E0002F482720C6803F4044324F0400409
:105580000C601A4405F4006305691A4405F002032F
:1055900045691A4405F001038569C4691A4405F494
:1055A00000731A4404F03803046A1A4404F08003B8
:1055B000846A1A4304F400531A430A60042202EA7C
:1055C00015424A60CA6922F40062CA610121466537
:1055D00080F85110304670BD70B586B040F600447A
:1055E000C4F201040068A4F55441002688420596DF
:1055F000CDE90366029601D006B070BD41F21800F5
:10560000C4F20200416802AD41F48041416041684A
:1056100001F4804101910199016841F008010160A4
:105620000068294600F00800019001984FF42040DE
:10563000029002200390032005902046FFF738FADD
:105640004FF48040CDE90206204629460496FFF734
:105650002FFA06B070BD0000411E0020B0EB116FA4
:105660001CBF012070474EF21002CEF200025160C2
:105670004EF62351CEF20001F0230B70072190600B
:10568000116070472DE9F04F81B0044690F8420058
:10569000202809D18B4600294FF0010018BF002AAD
:1056A00006D101B0BDE8F08F022001B0BDE8F08F57
:1056B00000202221606484F8421001211D462163EC
:1056C00060631646FFF7E8FAA685E685A16880467E
:1056D000B1F5805F02D12069002857D05E464FF0B7
:1056E000000B4FF00009A5F80090E08D002842D093
:1056F000DDF828A00AF1010702E000BFE08DD0B379
:1057000020680168C90608D5CDF8009001680091AD
:105710004168009100992988D1BB016889061BD591
:1057200056B1A168B1F5805F0DD009B9216951B1B9
:10573000406800F07F0007E0406800266FF35F20BC
:105740002BF8020B02E0406806F8010B28880130B4
:105750002880E08D0138E085002FCFD0FFF79CFA3C
:105760000146BAF1000F4FF0030009D0A1EB080188
:105770005145C3D904E0A08DE18D401A2880002056
:10578000202184F8421001B0BDE8F08F0026A8E780
:1057900002206063F3E7000090F84230202B1CBF2A
:1057A0000220704700294FF0010318BF002A01D1E1
:1057B0001846704703630023436381622221828578
:1057C000C285436480F84210016921B10168CA684A
:1057D00042F48072CA6001684A6942F001024A617B
:1057E000CA6842F02002CA60026B012A1CBF012075
:1057F000704781B0002200920A68009249680091C7
:10580000009900BF016851E8031F026841F01001D0
:1058100042E80313002BF5D1002301B0184670476E
:10582000006843F60002C4F20102904218BF7047BC
:105830002DE9F04F85B048F20009C0F600090C468A
:10584000FFF72AFA40F26011C2F20001086040F24C
:105850008A50C2F20000018840F2885BC2F2000B5D
:105860002144ABF800400180FFF7FCF8BBF80020B2
:1058700040F2640A0120002AC2F2000A00F08F8080
:10588000DAF80010002701EB090340F2FF7C002446
:10589000002100BFDE5DDD19FF2E1CBF25EA0C01D3
:1058A0000446FF2E02D101379742F3D3E0B2B0FA9B
:1058B00080F0400950B9002001220190CDE9022179
:1058C000009001A869460492FEF7F6FF40F25D18C9
:1058D000C2F20008BBF8000098F800100A18D207BE
:1058E0002DD1002960D010B340F2881540F25C172A
:1058F0000024C2F20005C2F2000700BF2A1912F804
:105900000139DAF80000002C08BF3A46127804EB9F
:105910000901014442EA032082B201200023FFF77B
:105920003FF8A01CBBF8001084B28C42E6D3BBF851
:105930000000DAF800100844013000218CE0002952
:1059400052D040F2881540F25C17C2F20005C2F254
:105950000007D0B1002400BF2A1912F80139DAF883
:105960000000002C08BF3A46127804EB09010144FC
:1059700042EA032082B201200023FFF711F8A01CA5
:10598000BBF8001084B28C42E6D3BBF80000DAF812
:105990000020411911F8011C104439705BE000210E
:1059A00000283FF488AF91E700283DD040F28815E9
:1059B0000027C2F2000505E0B91CBBF800008FB259
:1059C000874231D2791C8142F6D2DAF80000EB5DD1
:1059D0006E5C07EB0902111843EA062082B201202F
:1059E0000023FEF7DDFFE7E728B340F28815002724
:1059F000C2F2000506E000BFB91CBBF800008FB280
:105A0000874218D2791C8142F6D2DAF80000EB5DA9
:105A10006E5C07EB0902111843EA062082B20120EE
:105A20000023FEF7BDFFE7E7BBF80000DAF800103F
:105A30000844002110E0BBF8000040F28811013852
:105A4000C2F20001DAF80030095C40F25C12C2F2E6
:105A50000002184411700121CAF8000088F80010F3
:105A6000FEF794FF40F28814C2F2000420464FF47F
:105A70008061FEF780FB002140F214100191C2F218
:105A8000000002681368019353680193019B019120
:105A90001168019151684FF480620191019921468A
:105AA000FFF77AFE05B0BDE8F04F70477047000081
:105AB000B0B582B001680A68CC684B6902F02F0566
:105AC000202D04F0200505D125B102B0BDE8B0407D
:105AD00000F024BC5FEA027C1EBF03F0010E04F458
:105AE000907313EB0E0340D1036BD50618D5012B31
:105AF00016D114F0100313D0002201920A6801920B
:105B00004A680192019A4969490647D4818DC28D3C
:105B1000C38D002B18BF914240F0108102B0B0BD80
:105B200013062AD514F0800327D090F84120212AAB
:105B3000F4D18268B2F5805F03D10269002A00F0D7
:105B40003081026A531C036212784A60C28C013AA7
:105B50001304C284E2D1C86820F08000C860C8681D
:105B600040F04000C86002B0B0BDD10718BF14F4C7
:105B700080715CD1510760D466E05206CED514F036
:105B80004002CBD0CA6822F04002CA60202180F8CF
:105B9000411002B0BDE8B04000F040BAC16B0A68E5
:105BA000526893B2002BB9D0858DAB42B6D2C28574
:105BB0008969202934D000BF016851E8031F0268B9
:105BC00021F4807142E80313002BF5D1016851E8FC
:105BD000051F026821F0010142E80513002BF5D1F1
:105BE000016851E8051F026821F0400142E80513F1
:105BF000002BF5D1202180F842100021016300BF65
:105C0000016851E8031F026821F0100142E8031304
:105C1000002BF5D1C16B04460846FEF775FD204602
:105C200002214163818DC28D891A89B2AFE0416C36
:105C300041F001014164510706D5BEF1000F03D0C8
:105C4000416C41F002014164910706D5BEF1000F9D
:105C500003D0416C41F004014164BCF1000F06D552
:105C60005EEA050103D0416C41F008014164416CDA
:105C700000293FF453AF910604D51DB1044600F04E
:105C80004DFB204601684969426C01F0400102F079
:105C9000080289184BD000BF016851E8031F026851
:105CA00021F4907142E80313002BF5D1016851E80B
:105CB000051F026821F0010142E80513002BF5D110
:105CC000016B01290AD100BF016851E8031F026876
:105CD00021F0100142E80313002BF5D1202180F8B8
:105CE00042100021016301684969490654D500BF8B
:105CF000016851E8051F026821F0400142E80513E0
:105D0000002BF5D1C16B002946D046F21132C0F606
:105D10000002044608464A63FEF716FD00283FF4D9
:105D2000FDAEE06B416B02B0BDE8B04008470446F1
:105D3000FFF7BCFE0020606402B0B0BD891A00BF4E
:105D4000026852E8032F036822F4907243E80325A7
:105D5000002DF5D1026852E8052F036822F00102F8
:105D600043E80525002DF5D1202280F842200022AD
:105D7000026300BF026852E8032F036822F010029A
:105D800043E80325002DF5D1022289B2426302B017
:105D9000BDE8B040FFF744BD02B0BDE8B040FFF73A
:105DA00085BE026A32F8023B6FF35F234B600262EA
:105DB000CCE60000002804BF0120704710B504465F
:105DC00090F8410028B9002084F84000204600F0F7
:105DD00061F8242084F841002068D4E90212C368E5
:105DE00023F40053C360036923F440531A43026150
:105DF000D4E904231143C268194341F20C639A4366
:105E00001143C1604169A26921F44071114343F615
:105E10000002C4F201029042416102D0FFF7C4F9CE
:105E200001E0FFF7D5F9D4E900231921484399008F
:105E3000B0FBF1F048F21F5CC5F2EB1CA0FB0C318B
:105E40004FF69C734909C0F6FF7301FB0300322330
:105E500003EB0010A0FB0C03F02000EA531000EB52
:105E60000110C3F34311084490601069202120F40D
:105E700090401061506920F02A005061D06840F4D1
:105E80000050D0600020606484F8411084F8421013
:105E9000606310BD70B586B040F60004C4F2010422
:105EA000006804F54051002688420596CDE9036656
:105EB000029601D006B070BD41F21800C4F2020093
:105EC000016802AD41F480410160016801F4804144
:105ED00001910199016841F00401016000682946BF
:105EE00000F00400019001984FF40070029002202D
:105EF0000390032005902046FEF7DAFD4FF4806002
:105F0000CDE90206204629460496FEF7D1FD25205C
:105F100005210022FFF732F82520FFF71DF806B013
:105F200070BD0000704700002DE9F04381B00446C9
:105F300090F84100202809D1884600294FF001003F
:105F400018BF002A06D101B0BDE8F083022001B0DD
:105F5000BDE8F0830020606421201D4684F84100E4
:105F60001646FEF799FEA684E684A1680646B1F5BA
:105F7000805F02D1206900284DD0C1464FF0000853
:105F8000E08C40B36F1C0BE0B9F1000F1AD019F888
:105F9000010B21684860E08C0138E084E08CD0B1CE
:105FA000206800680006EFD4002FF9D0FEF774FED9
:105FB00001464FF0030045B3891BA94225D820684C
:105FC000C068EDE738F8020B21686FF35F20486086
:105FD0004FF00009DFE720680068400614D46F1C0A
:105FE00004E000BF2068006840060DD4002FF9D0FF
:105FF000FEF752FE01464FF0030035B1891BA9425E
:1060000003D82068C068EDE70020202184F8411003
:1060100001B0BDE8F0834FF00009B1E77047000020
:10602000FEE70000B0B586B00C460546FEF71AFD47
:10603000002001210290CDE90315019002A801A9D9
:106040000594FEF739FCFEF7A1FC06B0B0BD0000D8
:1060500070B548F20006C0F6000634684FF6FF70CF
:10606000756824EA0000B0F1005F0FD14FF6FF70B1
:10607000CFF2F77047F6FE712844CFF6F8718842E8
:106080000CD81EA000F08CFC012070BD0BA0214696
:106090004FF0005200F02EFA012070BDEFF3108097
:1060A00072B6FEF7E5FB4EF60850CEF2000084F320
:1060B00008880660A847002070BD00BF7374616344
:1060C0006B2061646472206572726F722120526568
:1060D0006164204D53503A203078253038582C20B8
:1060E0004578706563746564204869676820313657
:1060F0003A203078253034580D0A000072657365F7
:10610000742068616E646C65206572726F72000045
:1061100082B0002140F214100191C2F20000026826
:106120001368019353680193019B009111680091DA
:1061300051684FF480620091009940F28811C2F2D8
:10614000000102B0FFF728BB2DE9F04F85B04FF0FA
:10615000000B41F21800CDE903BBCDE901BBC4F24D
:106160000200016841F6000441F04001016001684D
:10617000C4F2010401F0400100910099016801227C
:1061800041F01001016001684FF0200901F0100199
:106190000091009901684FF0010841F00801016089
:1061A000016801F0080100910099016841F00401C3
:1061B00001600068202100F0040000900098204653
:1061C000FEF764FDA4F5406528464FF48151012295
:1061D0004FF4815AFEF75AFD102001900020C1F2C1
:1061E000210001AECDE9020820463146FEF760FCF1
:1061F000032720463146CDE90198CDF80CB004972D
:10620000FEF756FC28463146CDE901A8CDE903B793
:10621000FEF74EFC0A2004210022FEF7AFFE0A2002
:10622000FEF79AFE05B0BDE8F08F000080B540F2A1
:10623000680045F20041C2F20000C4F2000148F2D9
:10624000A06200234FF4804CC0F2010280E80E00EF
:10625000C0E9033CC0E90533C0E90733FEF722FD7E
:10626000002808BF80BDBDE88040FEF7E9B9000006
:1062700080B540F2BC0043F60001C2F20000C4F257
:1062800000014FF48272002380E80E0000F1140137
:106290004FF4007C4FF0080E81E808500A21C0E955
:1062A0000333C0E90833C0E90A31FFF741F9002898
:1062B00008BF80BDBDE88040FEF7C2B980B540F29E
:1062C000141043F60001C2F20000C4F201010023E1
:1062D0004FF00C0C4FF4E13280E80E00C0E90333BC
:1062E000C0E905C3C361FFF765FD002808BF80BD95
:1062F000BDE88040FEF7A4B9FEE70000FEE700001D
:106300007047000070470000FEF7B8BD70470000FE
:10631000406A0021C185C184FFF7C8BB90F84210D4
:10632000222918BF70478268B2F5805F02D10169E7
:1063300000294AD0816AB2F5805F07D00AB90269A4
:1063400022B10268526802F07F0201E002685268DE
:106350000A70816A01318162C18D01390A04C185E7
:1063600000D070470168CA6822F02002CA60CA687B
:1063700022F48072CA604A6922F001024A61202137
:1063800080F8421000214163026B012A18BFFFF719
:10639000C9BD81B0016300BF016851E8031F0268F5
:1063A00021F0100142E80313002BF5D101680A68BF
:1063B000D20606D5002200920A6800924968009130
:1063C0000099818D01B0FFF72BBA0168826A496894
:1063D0006FF35F2122F8021B8262BDE740F21410C6
:1063E000C2F20000FFF764BBFEE700004EF60C505F
:1063F000BFF34F8FCEF200000168042201F4E06188
:10640000C0F2FA5211430160BFF34F8F00BFFDE7A6
:1064100080B582B0019040F21410C2F2000001A9D0
:1064200001224FF6FF73FFF77FFD019802B080BD98
:1064300090B04EF6085044F20001CEF20000C0F6D3
:106440000001016062B6FEF727FD06AC2046282158
:10645000FDF791FE012006900A904FF4E010002510
:106460004FF4803102260F9020460595CDE9035563
:10647000CDE90155CDE90715CDE90D61FEF7BCFE6B
:1064800018B1EFF3108072B6FEE70F20CDE90106D8
:106490004FF48060CDE9040501A802210395FEF7C1
:1064A000A9FD20B1EFF3108072B600BFFEE740F601
:1064B0000044C4F20104FFF747FEFFF7FFFEFFF7B9
:1064C000B5FEFFF7D5FEFDF783FF00BFFEF70CF822
:1064D000204620210022FEF7D9FB6420FEF7D8F9E0
:1064E000204620210122FEF7D1FB6420FEF7D0F9DF
:1064F000ECE700000FB4054B10B503A9044A02985D
:1065000000F01CF810BC5DF814FB000011640008DA
:1065100000000020004870470400002002E008C886
:10652000121F08C1002AFAD170477047002001E00D
:1065300001C1121F002AFBD1704700002DE9FF4F57
:106540008DB00F460546002606E025280BD0DDE974
:106550000F1290476D1C761C28780028F5D111B0D9
:106560003046BDE8F08F0024A246A1460122EC4946
:1065700000E0044315F8013F203B02FA03F0084213
:10658000F7D128782A2810D06FF02F022878A0F1B0
:106590003001092914D80AEB8A0102EB410144F0C9
:1065A000020400EB010A6D1CF0E701CF5FEA000A6C
:1065B00003D544F40054CAF1000A44F002046D1CEF
:1065C00028782E2817D115F8010F44F004042A2842
:1065D0000ED06FF02F022878A0F1300109290AD8D7
:1065E00009EB890102EB410100EB01096D1CF2E7A7
:1065F00057F8049B6D1C28786C280FD006DC4C28BB
:1066000017D068280DD06A2814D104E0742810D05F
:106610007A280FD10DE044F400140AE044F4801409
:1066200001E044F440146978814202D104F58014F9
:106630006D1C6D1C2A786E2A1FD00CDC632A31D0A9
:1066400004DC002A8BD0582A11D1A3E0642A68D038
:10665000692A0CD165E0732A2ED004DC6F2A73D02E
:10666000702A04D19BE0752A6FD0782A6ED010462C
:10667000DDE90F129047761C50E1C4F30250022866
:1066800006D0032809D0042801CF09D0066045E1CF
:1066900001CFF117C0E9006140E101CF06803DE183
:1066A00006703BE117F8040B8DF8000000208DF810
:1066B0000100EB46012003E057F804BB4FF0FF3028
:1066C00061074FF0000102D40DE008F10101884696
:1066D00049450FDA8045F8DB1BF808100029F4D192
:1066E00008E008F1010188468142FADB1BF8081036
:1066F0000029F6D1DDE90F23AAEB080081462146E7
:1067000000F036F9304400EB080604E0DDE90F1232
:106710001BF8010B9047B8F10108F7D22146484613
:10672000F7E00A21C4F302534FF0000B0891022B4B
:1067300004D001CFC117032B09D00AE0FF1D27F0B9
:106740000707F7E8020108E032E01FE020E000B2AE
:10675000C117042B01D140B2C117031E71F1000310
:1067600007DA4FF0000CD0EB0C006CEB01012D238D
:1067700002E0230504D52B238DF82430012303E008
:10678000E30701D02023F7E7984658E00A2110E0FC
:1067900010210EE010204FF0000B08900CE01021AB
:1067A0004FF0000B44F004044FF00809089103E097
:1067B00008214FF0000B0891C4F30253022B04D0C0
:1067C00001CF0021032B06D006E0FF1D27F00707AD
:1067D000F7E8020103E080B2042B00D1C0B24FF011
:1067E000000823072BD5702A07D0DDF820C08CF0D5
:1067F000100C5CEA0B0C05D00EE040238DF8243021
:10680000012308E050EA010306D030238DF824303C
:106810008DF8252002239846DDF820C08CF0080C66
:106820005CEA0B0C0BD150EA010301D1630706D5DA
:1068300030238DF824304FF00108A9F10109582ABE
:1068400004D038A20B9208AA0A920BE03AA2F9E708
:106850005B46089AFDF7B9FC0B9B9B5C0A9A521E9B
:106860000A92137050EA0102F2D10A98ADEB0000CF
:1068700000F1200B600702D524F4803401E04FF0D2
:106880000109D94502DDA9EB0B0000E0002000EB77
:106890000B0141440890AAEB010AE00306D4DDE9AC
:1068A0000F232146504600F063F806444FF00009DC
:1068B00008E009A911F80900DDE90F12904709F174
:1068C0000109761CC145F4DBE0030CD5DDE90F239B
:1068D0002146504600F04CF8064404E0DDE90F1272
:1068E00030209047761C0899481E08900029F5DC56
:1068F00008E00A980A990078491C0A91DDE90F120C
:106900009047761CBBF10001ABF1010BF1DC214695
:106910005046DDE90F2300F019F806446D1C1BE614
:106920000928010030313233343536373839616265
:106930006364656600000000303132333435363729
:106940003839414243444546000000002DE9F041FA
:10695000044600251E461746880404D405E039463F
:106960002020B0476D1C641EF9D52846BDE8F08193
:106970002DE9F041044600251E469046C80301D586
:10698000302700E02027880404D505E0414638463A
:10699000B0476D1C641EF9D52846BDE8F0810000A3
:1069A00010B5044601E0FFF733FD14F8010B04496C
:1069B0000028F8D1BDE810400A20FFF729BD0000EB
:1069C00000000020004040404040404040404141E5
:1069D00041414140404040404040404040404040B4
:1069E000404040404005020202020202020202024E
:1069F000020202020220202020202020202020024B
:106A000002020202020290909090909010101010DA
:106A10001010101010101010101010101010101076
:106A2000020202020202888888888888080808080A
:106A300008080808080808080808080808080808D6
:106A40000202020240000000C569000800000000C8
:106A5000000000000102030406070809000000000E
:106A600001020304010202030405060708090A0BD8
:106A70000C0D0E0F10106A756D7020746F20617010
:106A8000700D00636865636B207375636365737372
:106A90000D00636865636B206572726F72206F72A0
:106AA0002074696D656F75740D000000D06A000870
:106AB00000000020180000001C650008E86A0008BB
:106AC00018000020780900002C6500080000000074
:106AD000000000000000000000127A000100000029
:086AE00010000000000000009E
:04000005080041317D
:00000001FF
