:020000040800F2
:10000000480D0020450100084132000889260008FB
:100010003D320008750500080D340008000000009E
:10002000000000000000000000000000293300086C
:100030007905000800000000453200082D33000853
:100040005F0100085F0100085F0100085F01000810
:100050005F0100085F0100085F0100085F01000800
:100060005F0100085F0100087D0500085F010008CE
:100070005F0100085F0100085F0100085F010008E0
:100080005F0100085F0100085F0100085F010008D0
:100090005F0100085F0100085F0100085F010008C0
:1000A0005F0100085F0100085F0100085F010008B0
:1000B0005F0100085F0100085F0100085F010008A0
:1000C0005F0100085F0100085F0100085F01000890
:1000D0005F010008013400085F0100085F010008AB
:1000E0005F0100085F0100085F0100085F01000870
:1000F0005F0100085F0100085F0100085F01000860
:100100005F0100085F0100085F0100085F0100084F
:100110005F0100085F0100085F0100085F0100083F
:100120005F0100085F0100085F0100085F0100082F
:10013000DFF80CD000F05CF80048004731340008CC
:10014000480D00200648804706480047FEE7FEE7C6
:10015000FEE7FEE7FEE7FEE7FEE7FEE7FEE7FEE777
:100160003133000831010008D2B201E000F8012B60
:10017000491EFBD270470022F6E710B513460A4627
:1001800004461946FFF7F0FF204610BD2DE9F05F49
:100190000546002092469B468846064681464024F6
:1001A0001BE0284641464746224600F048F85346A1
:1001B0005A46C01A914110D311461846224600F003
:1001C0002FF82D1A67EB01084F4622460120002127
:1001D00000F026F817EB00094E41201EA4F101049F
:1001E000DFDC484631462A464346BDE8F09F000022
:1001F0001CB509480090094801900546009C06E09E
:10020000E06840F0010394E8070098471034AC42DE
:10021000F6D3FFF791FF0000503A0008703A00084B
:10022000202A04DB203A00FA02F1002070479140B6
:10023000C2F1200320FA03F3194390407047202AAB
:1002400004DB203A21FA02F00021704721FA02F380
:10025000D040C2F120029140084319467047000087
:1002600040F6B83000F0B6BA80B582B016A003F000
:1002700089FB1AA003F086FB0DF105011120032272
:1002800002F064FDBDF8060045F66B2100BAB1EB43
:10029000104F08D19DF8050040F20801C2F200019C
:1002A000087002B080BD0220ADF805006B208DF80B
:1002B00007000DF105011020032202F05BFD0A206A
:1002C00000F088FA02B080BD626F6F746C6F616479
:1002D00065722073746172740D000000626F6F7438
:1002E0006C6F6164657220636865636B2075706410
:1002F0006174650D0000000040F20800C2F20000C9
:10030000017844F20000C0F6000000F580400329A7
:1003100004BF44F20000C0F6000002F0A7BC0000D9
:1003200040F20800C2F200000078032835D002280D
:1003300030D0012818BF70472DE9F04F87B075A065
:1003400003F020FB40F610140820C2F20004CDE9AF
:1003500000400020002100220023002502F09AFD29
:100360002168626840F2140940F2100AC2F20009E2
:10037000C2F2000AB5EB113FC9F80010CAF800201C
:100380000ED143F6D210C0F600004FF4805203F0B5
:10039000A7F81AE05CA003F0F5BA59A003F0F2BA8E
:1003A0006FF4F02048F2F2131044CFF6F87398423D
:1003B00000F2808043F60A20C0F6000011464FF498
:1003C000FA724FF4F02303F08BF848F20005C0F600
:1003D000000500F0E9FADAF80000012101EBD02075
:1003E0000022C0B2CDE90321069003A802A9059519
:1003F000029200F003FADAF800B040F21804BBF5FC
:10040000006FC2F2000427D3A5EB0B0540F2FE7685
:10041000DAF80070D9F80000A7EB0B010844214678
:100420004FF4006202F0C2FD2F446FF0010800BFDC
:1004300004EB0800428808F1020808EB07010120DC
:10044000002300F04FFAB045F2D3ABF5006BBBF5DB
:10045000006F05F50065DBD2BBF1000F24D0DAF8A0
:100460000000D9F80010A0EB0B0548191FFA8BF219
:10047000214602F09BFD48F20000C0F60000054452
:10048000002603E0B01C86B25E450DD2701C5845B4
:10049000F8D2A15D205C002341EA0020A91982B2B4
:1004A000012000F01FFAEDE700F012FA07B0BDE8F6
:1004B000F04F704708462146082202F077FDE078A9
:1004C000A178000640EA0142B2F1005F10D16068F5
:1004D0004FF6FF71CFF2F771084447F6FE71CFF681
:1004E000F87188423FF671AF1DA003F04BFA6CE73C
:1004F000228809041143014309A04FF0005246E746
:1005000072657365740D00006E6F207570646174A0
:10051000650D0000617070207570646174650D0078
:10052000737461636B2061646472206572726F72B0
:10053000212052656164204D53503A203078253097
:1005400038582C2045787065637465642048696765
:10055000682031363A203078253034580D0A0000B2
:1005600072657365742068616E646C652065727273
:100570006F720000FEE7000070470000102000F0DE
:1005800035BA0000EFF3108072B600BFFEE700003E
:10059000F0B581B042F20C060446C4F2020600F047
:1005A00025FB3168C90715D13068800644BF20207B
:1005B00030603068C00608D43069C00705D13068A3
:1005C000400702D4002001B0F0BD3068C00608D456
:1005D00000200FE00546671C2CD084BB032001B02F
:1005E000F0BD40F62010C2F20000C16941F00201E6
:1005F000C16110203168490709D540F62011C2F2C7
:100600000001CA6940F0040042F00102CA61316988
:10061000C9070BD040F62011C2F20001CA6942F0AE
:100620000402CA61316921F00101316130600120A9
:1006300001B0F0BD3068C007B6D0002FFAD000F08E
:10064000D5FA401BA042F5D9C8E70000014690F852
:100650002100022813D10868D1E90FC3026822F0F3
:100660000E020260026822F001020260012000FA1C
:1006700003F2CCF8042081F82100002002E00420DD
:1006800088630120002281F82020704790F8211013
:10069000022927D1026840F2040C1368C4F2020C4C
:1006A00023F00E03136013680CF17C018A4223F0DF
:1006B000010111601AD940F20841C4F202018A42D4
:1006C0004ED040F21C41C4F202018A4241D040F2B5
:1006D0003041C4F202018A4246D14FF48073CCF813
:1006E000003457E004218163012070474321C4F2A4
:1006F00002018A420EDD6B21C4F202018A421BDC38
:100700004421C4F202018A423BD05821C4F20201C2
:100710008A4222E00821C4F202018A422FD01C2121
:10072000C4F202018A4232D03021C4F202018A426C
:1007300013D14FF480722BE06C21C4F202018A4283
:1007400022D08021C4F202018A4206D14FF0807289
:100750001EE01023CCF800341CE04FF4803217E088
:100760000123CCF8003415E00CF588614FF4803398
:100770008A4208BF4FF48053CCF800340AE00122CB
:1007800006E04FF4805203E04FF4801200E01022A4
:10079000CCF80020012180F82110416B00220029B3
:1007A00080F8202004BF0020704780B588470020D3
:1007B00080BD000080B541F20C00C4F202004FF091
:1007C000FF310022416042600160026000F03AFEA9
:1007D000002080BDB0B5044600F008FA054640F29E
:1007E0000900C2F200000078611C18BF044400BF79
:1007F00000F0FCF9401BA042FAD3B0BD2DE9F04354
:1008000081B040F62015C2F200052A7E012A03D1EC
:10081000022001B0BDE8F083044601202668287656
:100820004CF250308846FFF7B3FE022E18D1002854
:1008300045D1002042F21004E861C4F202042068AD
:1008400040F004002060206840F0400020604CF23E
:100850005030FFF79DFE216821F0040121602FE058
:1008600068BB4FF0FF30C8F80000D4E9027007EB16
:10087000C020874223D242F21006C4F202064FF093
:10088000000900BFC5F81C90306840F002003060DD
:100890007760306840F0400030604CF25030FFF735
:1008A00077FE316821F00201316070B9D4E902129B
:1008B00007F5006701EBC2218F42E3D300E001207E
:1008C0000021297601B0BDE8F083C8F80070F7E791
:1008D00042F21001C4F20201086840F080020020D8
:1008E0000A6070472DE9F04F81B01C4640F6201396
:1008F000C2F2000391461A7E012A03D1022001B000
:10090000BDE8F08F0746012018764CF250300E46B5
:10091000FFF73EFE40F62012C2F2000200283DD151
:1009200042F210053846C4F20205022F18BF042017
:100930005FFA80FB4FF0000A4FF000080023CAF175
:100940002001D36129FA0AF004FA01F12A68084368
:10095000BAF1200158BF24FA01F042F001012960E8
:1009600030804CF25030FFF713FE296821F001016E
:10097000296078B9012F0DD008F101085FFA88F1DC
:1009800040F6201202368B450AF1100AC2F200022C
:10099000D4D803E040F62012C2F200020021117602
:1009A00001B0BDE8F08F000042F20400C4F2020082
:1009B000C16809065CBF0020704740F22311C4F2F1
:1009C0006751016048F6AB11CCF6EF510160C06889
:1009D000C0B2C00970470000102818BF704740F22D
:1009E0000800C2F2000003210170704740F2144178
:1009F000C4F201010A68024214BF08607047FFF7A1
:100A0000EBBF00002DE9F04F82B00E68002E00F021
:100A1000E380A0F1804241F6004540F20043A2F598
:100A20008432C4F201050624C4F201034FEAB2275E
:100A3000A84208BF05244FF0000E4FF001080F2513
:100A40004FF0000A4FF0000B052F38BF4FEAB224D9
:100A5000009408E00E680AF1010A36FA0AF20EF173
:100A6000040E00F0B98008FA0AFC16EA0C09F1D06D
:100A70004E684FF6FF72C1F21002964210DC122E41
:100A800050D8DFE806F0330A48454F4F4F4F4F4FDD
:100A90004F4F4F4F4F4F4F414C00D1F80CB041E0FA
:100AA0004FF6FF72C1F2210296420FDC0022C1F222
:100AB000110296421AD00022C1F21202964215D0BB
:100AC0000022C1F22102964210D02BE00022C1F296
:100AD000220296420AD00022C1F23102964205D08B
:100AE0000022C1F2320296421CD100BF8A6842B194
:100AF000012A14BFC0F814C0C0F810C04FF0080B92
:100B000010E04FF0040B0DE0CA6802F1040B09E09D
:100B10004FF0000B06E0CA6802F1080B02E0CA6859
:100B200002F10C0B02467446B9F5807F24BF0432F3
:100B3000203C166805FA04F726EA07070BFA04F6C4
:100B400037431760CA79D2067FF584AF41F21807A0
:100B5000C4F202073A684FF6084542F001023A60D3
:100B60003A68CFF6FF7502F001020192019A2AF06D
:100B700003021A440F2457590EF00C06B440A74341
:100B8000009C04FA06F6374357514E6840F20C4475
:100B9000F2029A6854BF22EA090242EA0902C4F248
:100BA00001049A602268B70254BF22EA090242EAAD
:100BB000090222605A68B70354BF22EA090242EAD6
:100BC00009025A600F251A68F70354BF22EA090286
:100BD00042EA09021A603DE702B0BDE8F08F00006A
:100BE000002A08BF090401617047000040F6401068
:100BF000C2F2000000687047002804BF012070475F
:100C0000F0B581B0044690F83D0028B9002084F882
:100C10003C00204600F098FB242084F83D0020682A
:100C2000016821F001010160016841F400410160A7
:100C3000016821F40041016000F050FD636848F252
:100C4000A16CC0F2010C40F60011C0F23D016345F9
:100C50003CBF48F28041C0F21E01884202D201200E
:100C600001B0F0BD4DF68361C4F21B31A0FB01124F
:100C70002168970CD1F804E04FF496762EF03F05EA
:100C800045EA92454D60774348F638160D6AC0F242
:100C90004106A7FB067625F03F07634538BF960C53
:100CA000721C3A430A62CA6948F2A0664CF6FF77A2
:100CB000C0F20106B34222EA070C0AD801385A00F2
:100CC000B0FBF2F001306FF31F30042898BF04200E
:100CD00020E0A2681927002A08BF032701385F43D4
:100CE000B0FBF7F701373F0509D052B119225A433B
:100CF000B0FBF2F00422013062F31F3008E0012063
:100D000008E003EB4302B0FBF2F001306FF31F3059
:100D100040F4004040EA0C00C8610868D4E90723A9
:100D200020F0C000104318430860886848F2FF3282
:100D300004F10C0790438CCF18431043A6698860D8
:100D4000C86820F0FF0038433043C860086840F0AE
:100D50000100086000202021206484F83D102063F9
:100D600084F83E0001B0F0BD2DE9F04F85B0044697
:100D70000020984692468B460490FFF737FF94F880
:100D80003D10202909D105462068806910F0020035
:100D900007D194F83C00012828D1022005B0BDE815
:100DA000F08F012686EA500707E000BF20688069BF
:100DB00010F0020086EA5007EBD0FFF717FF401B48
:100DC0001A28F3D3206880698007EFD500202021FE
:100DD000206384F83D1084F83E00216C41F020012E
:100DE0002164F90784F83C00D3D1D6E701212268B9
:100DF00084F83C101368DDE90F090E99DB0703D175
:100E0000136843F001031360136823F40063136055
:100E1000222284F83D20402284F83E2000222264D1
:100E200061626085608D594620850020CFF6FF7095
:100E3000E062204652464346CDE9009501F026FC8B
:100E400018B1012005B0BDE8F08F208D022826D012
:100E500001280ED0002838D1002003902068416975
:100E60000391816903910399016841F40071016064
:100E700037E02068016821F480610160EFF31080A1
:100E800072B6002003902068416903918169039143
:100E90000399016841F40071016062B621E02068A5
:100EA000016841F400610160EFF3108072B6002028
:100EB0000390206841690391816903910399016856
:100EC00021F48061016062B60BE02068016841F4A2
:100ED0008061016000210391416903918069039061
:100EE0000398218D002900F0218140F204064FF083
:100EF000010A09F10107C2F200064FF02308206839
:100F0000032950F8142F1ED8022952D001296CD180
:100F100051060BD5F9E020684069400640F1268172
:100F2000206850F8141F490600F1EF800168C906D7
:100F300000F10381FFF75AFEB9F1000FEBD0401B1F
:100F40004845EDD9E7E7510626D52068616A006972
:100F50000870606A228D0130013A60622285216842
:100F6000638D013B63854B695B0740F1DB8092B287
:100F7000032A03D10A6822F480620A6009690170B9
:100F8000C7E000BF20684069400640F1EF8020685C
:100F900050F8141F4906D8D40168C90600F1CD8065
:100FA000FFF724FEB9F1000FECD0401B4845EED905
:100FB000E8E712F0040046D18AEA900B0AE02068C4
:100FC000406940072ED52068406910F004008AEA85
:100FD000900B38D1002FF6D0FFF708FEB9F1000FC3
:100FE000EDD0401B4845EED9E9E7B34612F00400C6
:100FF0004FD18AEA90060AE020684069400738D558
:101000002068406910F004008AEA900641D1002F60
:10101000F6D0FFF7EBFDB9F1000FEDD0401B4845CE
:10102000EED9E9E700212020216384F83D0084F80F
:101030003E10206C40F0200020645FEACB7084F802
:101040003C107FF4FEAEEFF3108072B62068616A48
:10105000026842F40072026000690870606A218DC3
:1010600001306062481E2085608D0138608562B65F
:101070004BE000212020216384F83D0084F83E10DD
:10108000206C40F020002064F00784F83C107FF4CE
:10109000D8AE20684BF289520168C1F2F84221F4BF
:1010A00080610160EFF3108072B62068616A0069A8
:1010B0005E460870606A218D0130013960622185C9
:1010C000618D01396185DBF80010C908A1FB0212AE
:1010D000110A01FB08F10491049901390491049962
:1010E000B9B321684A695207F6D50A6842F400721A
:1010F0000A6009690170606A218D01306062481ED2
:101100002085608D0138608562B62068616A00695B
:101110000870606A218D01306062481E2085608DF4
:1011200001386085218D00297FF4E9AE202084F804
:101130003D00002084F83E0024E06FF010010160C3
:1011400000202021206384F83D1084F83E00206CAC
:1011500016E000202021206384F83D1084F83E0032
:10116000206C40F02000206462B60AE000202021BC
:10117000206384F83D1084F83E00206C40F020008D
:1011800020640120002184F83C1005B0BDE8F08FF8
:101190002DE9F04F83B0994692468B460446FFF7FF
:1011A00025FD94F83D10202909D105462068806965
:1011B00010F0020007D194F83C00012828D1022049
:1011C00003B0BDE8F08F012787EA500607E000BFB3
:1011D0002068806910F0020087EA5006EBD0FFF724
:1011E00005FD401B1A28F3D3206880698007EFD5DE
:1011F00000202021206384F83D1084F83E00216CFB
:1012000041F020012164F10784F83C00D3D1D6E7F6
:101210000121226884F83C101368DDE90D080C995F
:10122000DB0703D1136843F001031360136823F451
:1012300000631360212284F83D20402284F83E2080
:101240000022226461626085608D594620850020FD
:10125000CFF6FF70E062204652464B46CDE900854E
:1012600001F04CFB00286AD1208DC0B308F10106C3
:1012700004E000BF2068406900064BD5206850F8A4
:10128000141F09060DD4016849053ED4002EF5D07F
:10129000FFF7ACFCB8F1000FECD0401B4045EDD996
:1012A000E8E7606A2168034613F8012B0A61228D82
:1012B0006362531E2385678D013F67854F697F07F2
:1012C0000AD51B0408D0437802300B616062901E7F
:1012D0002085608D01386085208D0028CED1204684
:1012E00041462A4601F002FC08BB2068016841F42F
:1012F00000710160202084F83D00002084F83E0049
:1013000084F83C0003B0BDE8F08F6FF480610160A9
:10131000042000E0202000212022216384F83D20C9
:1013200084F83E10226C1043206484F83C10206C3A
:10133000042804D12068016841F400710160012093
:1013400003B0BDE8F08F000010B586B0016845F22B
:101350000040C4F2000081424FF00001CDE90411C9
:10136000CDE9021101D006B010BD41F21804C4F25B
:101370000204216800F5384041F00801216021682D
:1013800001F0080101910199C021029112210391FC
:101390000321059102A9FFF735FB606840F40010B6
:1013A0006060606800F400100190019806B010BD04
:1013B00040F2090040F64011C2F20000C2F2000102
:1013C00000780A68104408607047000080B542F257
:1013D0000000C4F20200016841F010010160032026
:1013E00000F092F80F2000F005F800F02DF8002032
:1013F00080BD0000B0B540F20902C2F2000240F226
:1014000004011278C2F200014FF47A730968B3FB49
:10141000F2F20446B1FBF2F1084600F063FE0F2C35
:101420004FF001050CD858B94FF0FF30214600228B
:10143000002500F03DF840F20C00C2F2000004600C
:101440002846B0BD7047000082B041F21800C4F2D7
:1014500002000168022241F001010160016801F00F
:10146000010101910199416841F08051416040685A
:1014700000F08050009000980420C4F20100016840
:1014800062F31A61016002B070470000002848BF93
:10149000704700F01F01012202FA01F11C2202EA4A
:1014A000D0004EF20012CEF20002815070470000D0
:1014B00010B54EF60C5CCEF2000CDCF80030C3F335
:1014C000022E8EF00704042C28BF0424BEF103036F
:1014D0004FF0FF3E0EFA04F438BF0023A1439940B9
:1014E0000EFA03F39A43114300F1604200F00F0338
:1014F000090102F56442043B6344002848BF03F13C
:101500000C02117010BD00004EF60C51CEF200011D
:101510000A684FF6FF031A4060F30A2242F0806027
:1015200040F0FD7008607047002804BF012070473C
:101530002DE9F04381B042F20008C4F202080446EB
:10154000D8F800000D4600F0070081420CD9D8F809
:10155000000020F007002843C8F80000D8F8000079
:1015600000F00700A8426BD1206841F2040981070E
:10157000C4F2020917D5410705D5D9F8001041F486
:10158000E061C9F80010010705D5D9F8001041F451
:101590006051C9F80010D9F80010A26821F0F001DC
:1015A0001143C9F80010C00741D1D8F8000000F07D
:1015B000070085420CD2D8F8000020F0070028432D
:1015C000C8F80000D8F8000000F00700A84237D1A2
:1015D0002068410707D5D9F80010E26821F4E061DE
:1015E0001143C9F80010000708D5D9F80000216997
:1015F00020F4605040EAC100C9F80000D9F800208A
:1016000002F00C00082841F20020C0F27A0049D113
:1016100043F6C213C2F38341C0F60003595CD20300
:1016200034D440F60010C0F23D0048433AE0606810
:1016300059F8041C022807D0012824D1890305D4B5
:10164000012001B0BDE8F0838901F9D5D9F8001077
:1016500021F003010843C9F80000FFF7C7FA064666
:1016600041F28837D9F80000616800F00C00B0EB57
:10167000810F9AD0FFF7BAFA801BB842F2D9032043
:1016800001B0BDE8F0838907DAD5DFE7D9F800209B
:1016900043F6C013C2F34042C0F600039A5C4843CD
:1016A000B0FBF2F0D9F8001043F6A812C1F3031111
:1016B000C0F60002515C40F2040220FA01F140F24F
:1016C0000C00C2F200000068C2F200021160FFF7D5
:1016D00091FE002001B0BDE8F083000040F204005C
:1016E00041F20401C2F20000C4F20201006809687C
:1016F00043F6B812C1F30221C0F60002515CC840A3
:101700007047000040F2040041F20401C2F2000000
:10171000C4F202010068096843F6B812C1F3C2219D
:10172000C0F60002515CC84070470000002804BFAA
:10173000012070472DE9F04182B00446007841F263
:101740000006C007C4F2020647D0706800F00C0023
:10175000042808D1306880033FD56068E8BB0120C9
:1017600002B0BDE8F081706800F00C00082802D1DA
:101770007068C003EED4656830682DB1B5F5A02F50
:1017800009D0B5F5803F0AD020F480303060306851
:1017900020F4802005E040F480203060306840F480
:1017A00080303060FFF722FA002D054612D000BFCE
:1017B0003068800311D4FFF719FA401B6428F7D969
:1017C00016E100BFFFF712FA401B64284FF0030038
:1017D00000F2D88030688003F4D42078800719D5CF
:1017E000706810F00C0F07D0706800F00C0008282B
:1017F00027D17068C00324D43068800703D52069DE
:10180000012840F0A6803068616920F0F80040EAC5
:10181000C1003060207800074ED5A06938B30020A1
:10182000C4F242200121C0F88014FFF7DFF9054619
:10183000706A80072DD4FFF7D9F9401B0228F7D929
:10184000D6E02069002840F20000C4F2422000F0F7
:10185000A88001210160FFF7C9F9054630688007BB
:10186000D1D4FFF7C3F9401B0228F7D9C0E000200C
:10187000C4F242200021C0F88014FFF7B7F90546F2
:10188000706A800718D5FFF7B1F9401B0228F7D915
:10189000AEE040F20400C2F20000006844F6D3510A
:1018A000C1F26201A0FB0101480A019000BF01984A
:1018B000411E00280191F9D12078400717D4E5692D
:1018C0008DB1706800F00C00082846D1012D40D081
:1018D0007068216A00F480328A423AD1616A00F469
:1018E0007010884235D1002002B0BDE8F081F06967
:1018F0005FEAC00808D4F06940F08050F061F069F8
:1019000000F080500090009847F20007C4F20007F2
:101910003868C0050FD4386840F480703860FFF72D
:1019200065F905463868C00505D4FFF75FF9401B27
:101930006428F7D95CE0E568306A1DB1052D41D017
:10194000012D43D020F001003062306A20F0040005
:101950003EE0012002B0BDE8F0810027C4F242273A
:1019600000203866FFF742F9022D05460ED100BF70
:101970003068800153D5FFF739F9401B02284FF03A
:101980000300F5D902B0BDE8F08100BF30688001E6
:10199000A9D5FFF72BF9401B02284FF00300F5D91A
:1019A000F0E700210160FFF721F905463068800764
:1019B0007FF530AFFFF71AF9401B02284FF0030004
:1019C000F4D9DFE740F004003062306A40F00100F3
:1019D0003062FFF70BF9002D054641F2883712D02F
:1019E000306A800712D4FFF701F9401BB842F7D9DB
:1019F000032002B0BDE8F081FFF7F8F8401BB842C1
:101A00004FF00300BED8306A8007F5D4B8F1000F5C
:101A10003FF555AFF06920F08050F0614FE7206A44
:101A2000B0F5803F05D17168A26821F400311143FF
:101A300071607168626A21F4741111430843706027
:101A400001203866FFF7D2F8044600BF30688001F5
:101A50003FF549AFFFF7CAF8001B02284FF003001B
:101A6000F4D98FE770B528B1416A29B1002101612D
:101A7000142106E0012070BD4168B1F5827F02D0DB
:101A80001C21002242500026866290F8511029B98C
:101A900080F85060054600F039F82846022180F8A9
:101AA000511090E82E0002F482720C6803F4044393
:101AB00024F040040C601A4405F4006305691A44DC
:101AC00005F0020345691A4405F001038569C469FC
:101AD0001A4405F400731A4404F03803046A1A44E3
:101AE00004F08003846A1A4304F400531A430A6022
:101AF000042202EA15424A60CA6922F40062CA61FD
:101B00000121466580F85110304670BD70B586B031
:101B100040F60044C4F201040068A4F554410026D4
:101B200088420596CDE90366029601D006B070BDE5
:101B300041F21800C4F20200416802AD41F4804154
:101B40004160416801F4804101910199016841F0CF
:101B5000080101600068294600F008000190019822
:101B60004FF420400290022003900320059020466D
:101B7000FEF748FF4FF48040CDE902062046294693
:101B80000496FEF73FFF06B070BD00002DE9F0415E
:101B900082B0044690F85100012818D160681D46B3
:101BA00017460E46B0F5827F01D1A06898B1FFF7C5
:101BB0001DF88046002E4FF0010018BF002F02D103
:101BC00002B0BDE8F08194F85000012810D1022045
:101BD00002B0BDE8F081042084F85100204631466F
:101BE00032463B46009500F071F902B0BDE8F08145
:101BF000012084F85000042084F851000020606522
:101C0000A663A787E7872063A086E086A168206493
:101C1000B1F5004F606408D12068016821F04001EF
:101C20000160016821F48041016020680168490673
:101C300003D4016841F040010160E168E08FD1B157
:101C4000E8B36E1C0AE000BFC068A16B21F8020B6C
:101C5000A163E08F0138E087E08F80B3206881685E
:101C6000C907F1D1FEF7C2FF002EF5D0A0EB0800A6
:101C7000A842F1D319E010B36E1C0AE0007BA16BFF
:101C80000870A06B0130A063E08F0138E087E08F1F
:101C9000A8B120688168C907F0D1FEF7A7FF002E20
:101CA000F5D0A0EB0800A842F1D3012084F8510040
:101CB000002084F85000032002B0BDE8F081606885
:101CC000B0F5827F11D1A068B0F5004F02D0B0F519
:101CD000806F0AD12168B0F5806F0A6822F0400257
:101CE0000A6002D12046012101E020468021002225
:101CF0002B46CDF8008001F0A7FA28B1606D40F0C6
:101D00002000606520206065012084F851000020DB
:101D100084F85000606D002818BF012002B0BDE8B3
:101D2000F08100002DE9F04182B01D4616460F46B5
:101D30000446FEF75BFF94F8511001290DD180464F
:101D4000002F4FF0010018BF002E02D102B0BDE8F5
:101D5000F08194F85000012803D1022002B0BDE8C0
:101D6000F081012084F85000032084F85100002005
:101D700060652763A686E686A063A087E087A168E2
:101D8000C4E91000B1F5004F08D12068016821F0C6
:101D900040010160016841F48041016020680168F0
:101DA000490603D4016841F0400101606168731E77
:101DB000E268B1FA81F1B3FA83F349095B09B2F53C
:101DC000006F41EA030124D131B137F8021BC16031
:101DD0002763E08E0138E086E08E002847D06E1C35
:101DE0000AE000BF216B31F8022BC2602163E08E54
:101DF0000138E086E08ED0B3206881688907F1D48D
:101E0000FEF7F4FE002EF5D0A0EB0800A842F1D3B7
:101E100023E039B139780173206B01302063E08E03
:101E20000138E086E08E10B36E1C0AE0216B097861
:101E30000173206B01302063E08E0138E086E08E74
:101E4000A8B1206881688907F0D4FEF7CFFE002E84
:101E5000F5D0A0EB0800A842F1D3012084F851008E
:101E6000002084F85000032002B0BDE8F081204635
:101E7000022101222B46CDF8008001F0E5F940B99E
:101E80002046802100222B46CDF8008001F0DCF9AD
:101E900028B1606D40F02000606520206065A0687A
:101EA00038B9002001902068C168019180680190D4
:101EB0000198012084F85100002084F85000606DE2
:101EC000002818BF012002B0BDE8F0812DE9F043E1
:101ED00083B01E4615460F460446FEF787FE94F86B
:101EE00051108146012908D1002F4FF0010018BF81
:101EF000002D0ED103B0BDE8F0836068B0F5827F9D
:101F00000DD104294FF00200F4D1A1680029EBD0D3
:101F1000F0E7002EEED094F85000012803D1022003
:101F200003B0BDE8F083012084F8500094F851001C
:101F3000002104281CBF052084F851006165A563B9
:101F4000E687A6872763E6862068A6862164616403
:101F50000168490603D4016841F0400101606168ED
:101F6000731EE268B1FA81F1B3FA83F3DDF82880D9
:101F700049095B09B2F5006F41EA030137D131B17C
:101F800037F8021BC1602763E08E0138E086012626
:101F900008F10105E08E10B9E08F00286CD02068B0
:101FA000816889070CD5E18E51B1012E08D1216BD2
:101FB000002631F8022BC2602163E18E0139E186EF
:101FC0008168C9070AD0E18F41B1C068A16B0126C1
:101FD00021F8020BA163E08F0138E087FEF706FECF
:101FE000002DD7D0A0EB09004045D3D33AE039B15A
:101FF00039780173206B01302063E08E0138E08670
:10200000012608F1010500BFE08E08B9E08F98B302
:102010002068816889070DD5E18E59B1012E09D15B
:10202000216B002609780173206B01302063E08E5C
:102030000138E08620688168C9070BD0E18F49B17B
:10204000C068A16B01260870A06B0130A063E08F0F
:102050000138E087FEF7CAFD002DD5D0A0EB0900BE
:102060004045D1D3012084F85100002084F850006D
:10207000032003B0BDE8F08320460221012243463D
:10208000CDF8009001F0E0F840B920468021002210
:102090004346CDF8009001F0D7F860B1606D40F094
:1020A0002000606520206065002084F85000012039
:1020B00003B0BDE8F083A06838B900200290206822
:1020C000C1680291806802900298012084F8510052
:1020D000002084F85000606D002818BF012003B074
:1020E000BDE8F083411E0020B0EB116F1CBF012042
:1020F00070474EF21002CEF2000251604EF62351AC
:10210000CEF20001F0230B70072190601160704740
:102110007047000070470000B0B582B001680A68DF
:10212000CC684B6902F02F05202D04F0200505D165
:1021300025B102B0BDE8B04001F002B95FEA027C0F
:102140001EBF03F0010E04F4907313EB0E0340D195
:10215000036BD50618D5012B16D114F0100313D03C
:10216000002201920A6801924A680192019A496923
:10217000490647D4818DC28DC38D002B18BF914273
:1021800040F0108102B0B0BD13062AD514F08003D0
:1021900027D090F84120212AF4D18268B2F5805FDF
:1021A00003D10269002A00F03081026A531C0362E5
:1021B00012784A60C28C013A1304C284E2D1C86822
:1021C00020F08000C860C86840F04000C86002B0DD
:1021D000B0BDD10718BF14F480715CD1510760D431
:1021E00066E05206CED514F04002CBD0CA6822F089
:1021F0004002CA60202180F8411002B0BDE8B04022
:1022000000F040BAC16B0A68526893B2002BB9D093
:10221000858DAB42B6D2C2858969202934D000BFF2
:10222000016851E8031F026821F4807142E803133A
:10223000002BF5D1016851E8051F026821F001016A
:1022400042E80513002BF5D1016851E8051F02682B
:1022500021F0400142E80513002BF5D1202180F840
:1022600042100021016300BF016851E8031F0268AA
:1022700021F0100142E80313002BF5D1C16B044695
:102280000846FEF7E3F9204602214163818DC28DA5
:10229000891A89B2AFE0416C41F0010141645107F4
:1022A00006D5BEF1000F03D0416C41F0020141643C
:1022B000910706D5BEF1000F03D0416C41F0040137
:1022C0004164BCF1000F06D55EEA050103D0416C04
:1022D00041F008014164416C00293FF453AF91067D
:1022E00004D51DB1044601F02BF820460168496968
:1022F000426C01F0400102F0080289184BD000BF87
:10230000016851E8031F026821F4907142E8031349
:10231000002BF5D1016851E8051F026821F0010189
:1023200042E80513002BF5D1016B01290AD100BF4A
:10233000016851E8031F026821F0100142E803130D
:10234000002BF5D1202180F84210002101630168A3
:102350004969490654D500BF016851E8051F026864
:1023600021F0400142E80513002BF5D1C16B002993
:1023700046D043F23532C0F60002044608464A63AE
:10238000FEF784F900283FF4FDAEE06B416B02B02C
:10239000BDE8B04008470446FFF7BCFE002060647B
:1023A00002B0B0BD891A00BF026852E8032F03686B
:1023B00022F4907243E80325002DF5D1026852E81B
:1023C000052F036822F0010243E80525002DF5D111
:1023D000202280F842200022026300BF026852E8F7
:1023E000032F036822F0100243E80325002DF5D1E6
:1023F000022289B2426302B0BDE8B040FFF788BE56
:1024000002B0BDE8B040FFF785BE026A32F8023B79
:102410006FF35F234B600262CCE60000002804BF2C
:102420000120704710B5044690F8410028B90020FB
:1024300084F84000204600F061F8242084F8410030
:102440002068D4E90212C36823F40053C36003690F
:1024500023F440531A430261D4E904231143C268B0
:10246000194341F20C639A431143C1604169A26967
:1024700021F44071114343F60002C4F2010290427C
:10248000416102D0FFF72AF901E0FFF73BF9D4E9F7
:102490000023192148439900B0FBF1F048F21F5C7A
:1024A000C5F2EB1CA0FB0C314FF69C734909C0F63A
:1024B000FF7301FB0300322303EB0010A0FB0C03AE
:1024C000F02000EA531000EB0110C3F3431108445D
:1024D00090601069202120F490401061506920F034
:1024E0002A005061D06840F40050D0600020606441
:1024F00084F8411084F84210606310BD70B586B056
:1025000040F60004C4F20104006804F540510026BE
:1025100088420596CDE90366029601D006B070BDEB
:1025200041F21800C4F20200016802AD41F480419A
:102530000160016801F4804101910199016841F055
:10254000040101600068294600F004000190019830
:102550004FF4007002900220039003200590204663
:10256000FEF750FA4FF48060CDE902062046294676
:102570000496FEF747FA252005210022FEF798FF72
:102580002520FEF783FF06B070BD000070470000F5
:102590002DE9F04381B0044690F84100202809D18C
:1025A000884600294FF0010018BF002A06D101B06B
:1025B000BDE8F083022001B0BDE8F0830020606434
:1025C00021201D4684F841001646FEF70FFBA68425
:1025D000E684A1680646B1F5805F02D12069002833
:1025E0004DD0C1464FF00008E08C40B36F1C0BE0AB
:1025F000B9F1000F1AD019F8010B21684860E08C7E
:102600000138E084E08CD0B1206800680006EFD487
:10261000002FF9D0FEF7EAFA01464FF0030045B368
:10262000891BA94225D82068C068EDE738F8020B5D
:1026300021686FF35F2048604FF00009DFE72068F2
:102640000068400614D46F1C04E000BF20680068D6
:1026500040060DD4002FF9D0FEF7C8FA01464FF01E
:10266000030035B1891BA94203D82068C068EDE793
:102670000020202184F8411001B0BDE8F0834FF024
:102680000009B1E770470000FEE700002DE9F04FB8
:1026900083B004460068DDF834B00C9E07689946A4
:1026A00047F4806707600768904647F480730360CB
:1026B00040698A4610F001002AD180F00107751C9C
:1026C0000BE000BF20684069C00711D02068406956
:1026D00010F0010080F001071AD1002DF6D0FEF7AE
:1026E00085FA002EEED0A0EB0B00B042EED9E9E760
:1026F00000202021206384F83D1084F83E00216CE6
:1027000041F020012164F90784F83C0040F0B780D3
:1027100020680AF0FE0AC0F810A0416989072CD48D
:102720004169490514D4771C5FB1FEF75FFA1EB109
:10273000A0EB0B00B04204D920684069800740F14B
:10274000D18020684169890717D441694905EBD5D3
:10275000016841F4007101606FF480614161002003
:102760002021206384F83D1084F83E00216C41F064
:102770000401216484F83C00B0E00020029020684D
:1027800050F8141F029141680291029901680906EC
:102790001AD4771C0AE000BF20684069000640F1A7
:1027A0008880206850F8141F09060DD40168490577
:1027B00051D4002FF5D0FEF719FA002EECD0A0EB83
:1027C0000B00B042EDD9E7E72068B9F1010F21D045
:1027D0004FEA1821016150F8141F090619D4771C1B
:1027E00009E000BF20684069000662D5206850F803
:1027F000141F09060DD4016849052CD4002FF5D00B
:10280000FEF7F4F9002EEDD0A0EB0B00B042EDD9AD
:10281000E8E720685FFA88F10161206850F8141F2A
:1028200009061DD4771C08E020684069000640D5E1
:10283000206850F8141F090612D4016849050AD40B
:10284000002FF5D0FEF7D2F9002EEDD0A0EB0B0053
:10285000B042EDD9E8E76FF480610160042029E01F
:10286000206800220168334641F4807101602046EF
:102870004FF00111CDF800B000F072F950B12068AE
:102880000068C00544BF4FF400702064032003B00B
:10289000BDE8F08F25684AF001070221C0F201016E
:1028A000204632465B462F6103B0BDE8F04F00F092
:1028B0009BB9202000212022216384F83D2084F848
:1028C0003E10226C1043206484F83C10206C0428D5
:1028D00004D12068016841F400710160012003B057
:1028E000BDE8F08F00202021206384F83D1084F89B
:1028F0003E00216C41F020013BE700002DE9F04F44
:1029000081B00446006890460268DDF82CA042F4CD
:102910008072026040690A9E994610F001008B4661
:1029200034D180F00105771C0BE000BF20684069BE
:10293000C00711D02068406910F0010080F0010547
:1029400024D1002FF6D0FEF751F9002EEED0A0EBE7
:102950000A00B042EED9E9E700202021206384F884
:102960003D1084F83E00216C41F020012164E9070C
:1029700084F83C000AD020680068C00544BF4FF4CA
:1029800000702064032001B0BDE8F08F20680BF0D8
:10299000FE010161416989072DD44169490515D4BA
:1029A000751C00BF5DB1FEF721F91EB1A0EB0A0056
:1029B000B04204D920684069800740F18C802068CB
:1029C0004169890717D441694905EBD5016841F48C
:1029D000007101606FF4806141610020202120635B
:1029E00084F83D1084F83E00216C41F0040121641C
:1029F00084F83C006BE000200090206850F8141F21
:102A000000914168009100990168090619D4751C6C
:102A100009E000BF20684069000643D5206850F8EF
:102A2000141F09060DD4016849052ED4002DF5D0D8
:102A3000FEF7DCF8002EEDD0A0EB0A00B042EDD995
:102A4000E8E72068B9F1010F25D04FEA18210161AC
:102A500050F8141F09061DD4751C08E02068406951
:102A600000061FD5206850F8141F090612D401680B
:102A700049050AD4002DF5D0FEF7B8F8002EEDD0A8
:102A8000A0EB0A00B042EDD9E8E76FF48061016085
:102A9000042008E020685FFA88F10161002001B09D
:102AA000BDE8F08F202000212022216384F83D2002
:102AB00084F83E10226C1043206484F83C10206C93
:102AC000042804D12068016841F4007101600120EC
:102AD00001B0BDE8F08F00202021206384F83D1074
:102AE00084F83E00216C41F0200180E7F0B581B010
:102AF00004460068154650F8143F5A0718D40E468D
:102B00004F1C08E020684069400719D5206850F83C
:102B1000141F49070CD4016849050CD4002FF5D0C7
:102B2000FEF764F8002EEDD0401BB042EED9E9E785
:102B3000002001B0F0BD6FF480610160042000E06E
:102B4000202000212022216384F83D2084F83E10BB
:102B5000226C1043206484F83C10012001B0F0BDC9
:102B60002DE9F047DDF8208099461646044601F429
:102B70007F0018278DB203F1010AB0F5803F08BF2E
:102B8000142708E02068C0592840401BB0FA80F0A4
:102B90004009864218D02068C0592840401BB0FA2E
:102BA00080F0400986420CD1BAF1000FF3D0FEF755
:102BB0001DF8B9F1000FE5D0A0EB08004845EAD9AF
:102BC000E0E70020BDE8F08700202021206384F8A2
:102BD0003D1084F83E00216C41F02001216484F80E
:102BE0003C000120BDE8F0872DE9F0410446006873
:102BF000984643698FB203EA0701B94202D1002027
:102C0000BDE8F0814169490517D41646551C00BF3F
:102C10005DB1FDF7EBFF1EB1A0EB0800B04204D997
:102C2000206840693840B8421ED120684169394067
:102C3000B942E4D041694905EAD5016841F400711F
:102C400001606FF480614161042000212022216332
:102C500084F83D2084F83E10226C1043206401204B
:102C600084F83C10BDE8F0812020EEE770B50468E0
:102C70004FF6FF71456824EA0101B1F1005F2DD1E3
:102C8000854233D30121C0F608018D422ED24EF287
:102C90001001CEF200014FF48062C1F87021BFF341
:102CA0004F8F2022BFF36F8FC1F87421BFF34F8F76
:102CB0000022BFF36F8F0A604A608A60EFF31081D1
:102CC00072B60646FDF776FD4EF60850CEF20000CD
:102CD00084F308880660A847002070BD06A021463E
:102CE0004FF0005200F0FCFB012070BD12A000F07C
:102CF00049FE012070BD00BF737461636B20616485
:102D00006472206572726F72212052656164204D79
:102D100053503A203078253038582C20457870654B
:102D20006374656420486967682031363A203078DA
:102D3000253034580D0A000072657365742068618F
:102D40006E646C65206572726F72000080B584B02D
:102D5000034640F61C004FF47A7CCDE90012C2F223
:102D60000000A1211A460123CDF808C0FDF7FCFFA1
:102D700004B080BD2DE9F04784B005461044B0F59D
:102D8000807F05D935A004B0BDE8F04700F0FABD5A
:102D900005F00700C0F108060C46B24246D940F6DD
:102DA0001C004FF47A78C2F20000A02117462A4690
:102DB0000123CDE90046CDF80880FEF7E9F90520AA
:102DC000FDF708FDBF1BB8B2082835441CD340F6F8
:102DD0001C094FF0080AC2F2000900BFB0B220443B
:102DE000CDE9000AEAB24846A0210123CDF80880C7
:102DF000FEF7CEF90520FDF7EDFC083FB8B2083527
:102E0000072806F10806E9D8380423D0B0B22044D8
:102E1000B9B24FF47A76CDE9000140F61C00EAB26F
:102E2000C2F20000A021012302960BE040F61C0034
:102E30004FF47A77CDE90042C2F20000A0212A4681
:102E400001230297FEF7A4F9052004B0BDE8F0477E
:102E5000FDF7C0BC04B0BDE8F08700BF4572726FDB
:102E6000723A20E58699E585A5E79A84E995BFE55C
:102E7000BAA6E8B685E587BA20454550524F4D20A1
:102E8000E69C80E5A4A7E8BEB9E7958CEFBC810D70
:102E9000000000002DE9F04F83B0834640F600406B
:102EA00092460F46DDF83480C4F201004FF48051A1
:102EB00000220093FDF794FE40F670054FF00509DF
:102EC000C2F200050DF105060DF106042846314653
:102ED000012264238DF80590FEF724FF2846214641
:102EE00001226423FEF752FE9DF80600C007EDD1D3
:102EF00040F60049C4F2010948464FF480510122CE
:102F0000FDF76EFE48464FF480510022FDF768FE43
:102F100040F670050320C2F200058DF807000DF1A0
:102F20000701284601226423FEF7FCFE4BEA171036
:102F30008DF8080002A9284601226423FEF7F2FE5C
:102F40004AEA07108DF809000DF10901284601220F
:102F50006423FEF7E7FE00980DF10A018DF80A00E0
:102F6000284601226423FEF7DDFEB8F1000F14D0DD
:102F70000C9840F67004461EC2F200040DF10B05D9
:102F80002046294601226423FEF700FE9DF80B002F
:102F9000B8F1010806F8010FF2D148464FF480510C
:102FA0000122FDF71DFE03B0BDE8F08F2DE9F04FC3
:102FB00083B040F60049C4F20109154688468246AE
:102FC00048464FF480510022FDF70AFE40F6700695
:102FD0004FF0050BC2F200060DF105040DF10607D6
:102FE00030462146012264238DF805B0FEF79AFE93
:102FF0003046394601226423FEF7C8FD9DF80600DD
:10300000C007EDD148464FF480510122FDF7E8FD9D
:1030100048464FF480510022FDF7E2FD40F670066D
:103020000320C2F200068DF807000DF107013046BB
:1030300001226423FEF776FE4FEA1A408DF808005D
:1030400002A9304601226423FEF76CFE4FEA1A20E3
:103050008DF809000DF10901304601226423FEF7C5
:1030600061FE0DF10A013046012264238DF80AA0A9
:10307000FEF758FEA5B140F67006A8F10104C2F2B1
:1030800000060DF10B0700BF3046394601226423CC
:10309000FEF77CFD9DF80B00013D04F8010FF3D114
:1030A00048464FF480510122FDF79AFD03B0BDE878
:1030B000F08F00002DE9F04186B0002641F21800A3
:1030C000CDE90466CDE90266C4F20200016840F66B
:1030D000004441F0400101600168C4F2010401F0C4
:1030E0004001019101990168012241F01001016044
:1030F00001684FF4805801F01001019101990168B5
:10310000012741F008010160016801F00801019107
:103110000199016841F00401016000684FF4805199
:1031200000F00400019001982046FDF759FD1020A1
:1031300002900020C1F2210002ADCDE9030704F5A1
:1031400040602946FDF75EFC032005902046294695
:10315000CDE902870496FDF755FC0A2004210022E0
:10316000FEF7A6F90A20FEF791F906B0BDE8F08156
:1031700080B540F61C0045F20041C2F20000C4F2E6
:10318000000148F2A06200234FF4804CC0F201021B
:1031900080E80E00C0E9033CC0E90533C0E907330D
:1031A000FDF72AFD002808BF80BDBDE88040FDF77F
:1031B000E9B9000080B540F6700043F60001C2F2A4
:1031C0000000C4F200014FF48272002380E80E0078
:1031D00000F114014FF4007C4FF0080E81E8085014
:1031E0000A21C0E90333C0E90833C0E90A31FEF718
:1031F00039FC002808BF80BDBDE88040FDF7C2B99A
:1032000080B540F6C80043F60001C2F20000C4F2E7
:10321000010100234FF00C0C4FF4E13280E80E0066
:10322000C0E90333C0E905C3C361FFF7F7F800281D
:1032300008BF80BDBDE88040FDF7A4B9FEE70000EF
:10324000FEE70000704700002DE9F04782B00A9CBD
:10325000984615460E468146FDF7C8FC201A00EB3D
:103260000804FDF7C3FC40F20401C2F20001096842
:10327000C1F3CB3161430191D9F800108968314025
:10328000891BB1FA81F149098D4203D1002002B0B6
:10329000BDE8F087824608F1010709E0D9F800008F
:1032A00080683040801BB0FA80F040098542EDD044
:1032B000002FF3D0FDF79AFCA0EB0A00A04207D242
:1032C00001980199002808BF0446481E0190E5E7CF
:1032D000D9E900014268B1F5827F22F0E002426044
:1032E0000BD1D9F80810B1F5004F02D0B1F5806FBD
:1032F00003D1016821F040010160D9F82810B1F52F
:10330000005F07D1016821F400510160016841F4B8
:1033100000510160012089F85100002089F8500017
:10332000032002B0BDE8F08770470000FEF740B808
:1033300070470000406A0021C185C184FEF7EABEE3
:1033400090F84210222918BF70478268B2F5805F5A
:1033500002D1016900294AD0816AB2F5805F07D0A5
:103360000AB9026922B10268526802F07F0201E0E4
:10337000026852680A70816A01318162C18D013927
:103380000A04C18500D070470168CA6822F0200293
:10339000CA60CA6822F48072CA604A6922F00102D7
:1033A0004A61202180F8421000214163026B012A0A
:1033B00018BFFFF7EBB881B0016300BF016851E8A7
:1033C000031F026821F0100142E80313002BF5D11E
:1033D00001680A68D20606D5002200920A680092A7
:1033E000496800910099818D01B0FEF791BE016896
:1033F000826A49686FF35F2122F8021B8262BDE78F
:1034000040F6C800C2F20000FEF786BEFEE70000EC
:1034100080B582B0019040F6C800C2F2000001A958
:1034200001224FF6FF73FFF7B3F8019802B080BD99
:1034300090B0FDF7CBFF06AC20462821FCF79BFEA1
:10344000012006900A904FF4E01000254FF48031DF
:1034500002260F9020460595CDE90355CDE901558B
:10346000CDE90715CDE90D61FEF760F918B1EFF36D
:10347000108072B6FEE70F20CDE901064FF48060A0
:10348000CDE9040501A802210395FEF74DF820B10E
:10349000EFF3108072B600BFFEE7FFF70BFEFFF7F9
:1034A000AFFEFFF765FEFFF785FE41F21004C4F2A0
:1034B0000204206840F4001020600220FDF78AF921
:1034C000206820F400102060FFF752FEFCF7CCFECD
:1034D000FCF7C6FEFCF724FFFCF70EFFFEE700003A
:1034E0000FB4054B10B503A9044A029800F018F870
:1034F00010BC5DF814FB000011340008000000202F
:1035000002E008C8121F08C1002AFAD170477047AC
:10351000002001E001C1121F002AFBD1704700000A
:103520002DE9FF4F8DB00F460546002606E0252801
:103530000BD0DDE90F1290476D1C761C287800280F
:10354000F5D111B03046BDE8F08F0024A246A14667
:103550000122EC4900E0044315F8013F203B02FA48
:1035600003F00842F7D128782A2810D06FF02F02F4
:103570002878A0F13001092914D80AEB8A0102EB5E
:10358000410144F0020400EB010A6D1CF0E701CF99
:103590005FEA000A03D544F40054CAF1000A44F07B
:1035A00002046D1C28782E2817D115F8010F44F05D
:1035B00004042A280ED06FF02F022878A0F13001E1
:1035C00009290AD809EB890102EB410100EB010945
:1035D0006D1CF2E757F8049B6D1C28786C280FD0FF
:1035E00006DC4C2817D068280DD06A2814D104E0D6
:1035F000742810D07A280FD10DE044F400140AE0AA
:1036000044F4801401E044F440146978814202D10A
:1036100004F580146D1C6D1C2A786E2A1FD00CDCFA
:10362000632A31D004DC002A8BD0582A11D1A3E0C0
:10363000642A68D0692A0CD165E0732A2ED004DC94
:103640006F2A73D0702A04D19BE0752A6FD0782A34
:103650006ED01046DDE90F129047761C50E1C4F39E
:103660000250022806D0032809D0042801CF09D02F
:10367000066045E101CFF117C0E9006140E101CFEB
:1036800006803DE106703BE117F8040B8DF8000061
:1036900000208DF80100EB46012003E057F804BB41
:1036A0004FF0FF3061074FF0000102D40DE008F148
:1036B0000101884649450FDA8045F8DB1BF8081000
:1036C0000029F4D108E008F1010188468142FADBC3
:1036D0001BF808100029F6D1DDE90F23AAEB08003A
:1036E0008146214600F036F9304400EB080604E03C
:1036F000DDE90F121BF8010B9047B8F10108F7D272
:1037000021464846F7E00A21C4F302534FF0000B6C
:103710000891022B04D001CFC117032B09D00AE076
:10372000FF1D27F00707F7E8020108E032E01FE07D
:1037300020E000B2C117042B01D140B2C117031E13
:1037400071F1000307DA4FF0000CD0EB0C006CEBCA
:1037500001012D2302E0230504D52B238DF824300D
:10376000012303E0E30701D02023F7E7984658E060
:103770000A2110E010210EE010204FF0000B0890FD
:103780000CE010214FF0000B44F004044FF0080946
:10379000089103E008214FF0000B0891C4F3025395
:1037A000022B04D001CF0021032B06D006E0FF1D21
:1037B00027F00707F7E8020103E080B2042B00D1ED
:1037C000C0B24FF0000823072BD5702A07D0DDF8D0
:1037D00020C08CF0100C5CEA0B0C05D00EE04023EE
:1037E0008DF82430012308E050EA010306D030238D
:1037F0008DF824308DF8252002239846DDF820C06E
:103800008CF0080C5CEA0B0C0BD150EA010301D1DF
:10381000630706D530238DF824304FF00108A9F155
:103820000109582A04D038A20B9208AA0A920BE088
:103830003AA2F9E75B46089AFCF7A8FC0B9B9B5C55
:103840000A9A521E0A92137050EA0102F2D10A98A3
:10385000ADEB000000F1200B600702D524F48034AA
:1038600001E04FF00109D94502DDA9EB0B0000E0B2
:10387000002000EB0B0141440890AAEB010AE00391
:1038800006D4DDE90F232146504600F063F80644D4
:103890004FF0000908E009A911F80900DDE90F124D
:1038A000904709F10109761CC145F4DBE0030CD512
:1038B000DDE90F232146504600F04CF8064404E0B1
:1038C000DDE90F1230209047761C0899481E0890B9
:1038D0000029F5DC08E00A980A990078491C0A9149
:1038E000DDE90F129047761CBBF10001ABF1010B33
:1038F000F1DC21465046DDE90F2300F019F80644BB
:103900006D1C1BE60928010030313233343536375F
:10391000383961626364656600000000303132331B
:1039200034353637383941424344454600000000BB
:103930002DE9F041044600251E461746880404D4AC
:1039400005E039462020B0476D1C641EF9D5284695
:10395000BDE8F0812DE9F041044600251E46904661
:10396000C80301D5302700E02027880404D505E0EE
:1039700041463846B0476D1C641EF9D52846BDE85F
:10398000F081000010B5044601E0FFF741FD14F896
:10399000010B04490028F8D1BDE810400A20FFF7C8
:1039A00037BD000000000020000000000000000003
:1039B00001020304060708090000000001020304D5
:1039C000010202030405060708090A0B0C0D0E0F7D
:1039D000101061707020737461727420616464727D
:1039E000206572726F722120526561643A203078CE
:1039F000253038582C204578706563746564203E06
:103A0000203078253038580D0A00617070207369B5
:103A10007A65206572726F722120526561643A2066
:103A20003078253038582C2045787065637465648B
:103A3000206265747765656E2030782530385820AF
:103A4000616E64203078253038580D0A000000007F
:103A5000703A000800000020100000000035000847
:103A6000803A000810000020380D000010350008D2
:103A70000000000000127A000201000010000000A7
:0400000508000131BD
:00000001FF
