:020000040800F2
:108000004005002045810008B1A400084DA20008E9
:10801000ADA40008F5810008D9A9000800000000FF
:1080200000000000000000000000000061A5000842
:10803000F98100080000000021A50008B9A500088A
:108040005F8100085F8100085F8100085F81000890
:108050005F8100085F8100085F8100085F81000880
:108060005F8100085F8100085F8100085F81000870
:108070005F8100085F8100085F8100085F81000860
:108080005F8100085F8100085F8100085F81000850
:108090005F8100085F8100085F8100085F81000840
:1080A0005F8100085F8100085F8100085F81000830
:1080B0005F8100085F8100085F8100085F81000820
:1080C0005F8100085F8100085F8100085F81000810
:1080D0005F810008C9A900085F8100085F8100086E
:1080E0005F8100085F8100085F8100085F810008F0
:1080F0005F8100085F8100085F8100085F810008E0
:108100005F8100085F8100085F8100085F810008CF
:108110005F8100085F8100085F8100085F810008BF
:108120005F8100085F8100085F8100085F810008AF
:10813000DFF80CD000F02AF8004800479DAA00089C
:10814000400500200648804706480047FEE7FEE756
:10815000FEE7FEE7FEE7FEE7FEE7FEE7FEE7FEE7F7
:108160002DA6000831810008D2B201E000F8012BF1
:10817000491EFBD270470022F6E710B513460A46A7
:1081800004461946FFF7F0FF204610BD1CB509480C
:108190000090094801900546009C06E0E06840F028
:1081A000010394E8070098471034AC42F6D3FFF778
:1081B000C3FF000030AB000850AB000880B541F6AB
:1081C0000000C4F20100202100F032FD4FF47A706B
:1081D00000F060FB80BD000080B540F23410C2F2B8
:1081E0000000007818B9FFE7FFF7E8FF00E0FFE7BD
:1081F00080BD0000FFE7FEE77047000081B0EFF3AD
:10820000108072B60090FFE7FEE7000080B584B0F2
:108210000290029820B9FFE701208DF80F00E0E0FE
:10822000029890F8200020B9FFE7029800F0DEF8ED
:10823000FFE702980168086840F00100086000F05C
:1082400023FD0190FFE7029800684068C007A8B9C5
:10825000FFE700F019FD0199401A0B280DD3FFE745
:108260000299486A40F4003048620299052081F87A
:10827000200001208DF80F00B3E0E4E702980168C8
:10828000086820F00200086000F0FEFC0190FFE7A3
:108290000298006840688007002815D5FFE700F0C5
:1082A000F3FC0199401A0B280DD3FFE70299486AA5
:1082B00040F4003048620299052081F82000012036
:1082C0008DF80F008DE0E3E70298007E012807D1CA
:1082D000FFE702980168086840F08000086006E047
:1082E00002980168086820F080000860FFE70298A3
:1082F000407E012807D1FFE702980168086840F036
:108300004000086006E002980168086820F040001C
:108310000860FFE70298807E012807D1FFE70298F6
:108320000168086840F02000086006E002980168D3
:10833000086820F020000860FFE70298C07E01284E
:1083400007D1FFE702980168086820F01000086074
:1083500006E002980168086840F010000860FFE736
:108360000298007F012807D1FFE70298016808689A
:1083700040F00800086006E002980168086820F0F4
:1083800008000860FFE70298407F012807D1FFE757
:1083900002980168086840F00400086006E002984E
:1083A0000168086820F004000860FFE7029B196874
:1083B0005A689868D3F80CC040EA0C00D3F810C093
:1083C00040EA0C005B691843013A1043C861029906
:1083D00000204862029A012182F820108DF80F00D7
:1083E000FFE79DF80F0004B080BD000080B58AB0A3
:1083F0000990002008900790069005900998006861
:1084000046F20041C4F20001884239D1FFE7FFE79C
:1084100041F21C00C4F20200016841F000710160E9
:10842000006800F0007004900498FFE7FFE741F255
:108430001800C4F20200016841F004010160006804
:1084400000F0040003900398FFE74FF400600590EC
:1084500000200690079040F60000C4F20100019051
:1084600005A9029100F038FA019802994FF4805260
:108470000592022206920322089200F02DFAFFE7ED
:108480000AB080BD80B582B00090009820B9FFE7A7
:1084900001208DF8070011E00098407938B9FFE716
:1084A000009900200871009800F00CF8FFE700998F
:1084B0000120487100208DF80700FFE79DF80700B4
:1084C00002B080BD82B001900198006843F20001C3
:1084D000C4F20201884210D1FFE7FFE741F2140025
:1084E000C4F20200016841F040010160006800F040
:1084F000400000900098FFE7FFE702B070470000DF
:1085000083B0019000208DF80300019890F82100BD
:1085100002280DD0FFE7019904208863FFE7019945
:10852000002081F82000FFE701208DF80B0021E0FA
:1085300001980168086820F00E0008600198016841
:10854000086820F0010008600198C16B026C0120EE
:1085500090404860FFE70199012081F82100FFE782
:108560000199002081F82000FFE79DF803008DF8B5
:108570000B00FFE79DF80B0003B0704780B596B085
:10858000159000208DF85300159890F821000228CE
:1085900007D0FFE715990420886301208DF8530068
:1085A00074E115980168086820F00E0008601598BD
:1085B0000168086820F001000860159800688121B2
:1085C000C4F202018842C0F0A880FFE71598006855
:1085D0000821C4F20201884203D1FFE70120139071
:1085E00094E0159800681C21C4F20201884203D16E
:1085F000FFE71020129086E0159800683021C4F241
:108600000201884204D1FFE74FF48070119077E0B7
:10861000159800684421C4F20201884204D1FFE7A2
:108620004FF48050109068E0159800685821C4F20B
:108630000201884204D1FFE74FF480300F9059E0E7
:10864000159800686C21C4F20201884204D1FFE74A
:108650004FF480100E904AE0159800688021C4F213
:108660000201884204D1FFE74FF080700D903BE09B
:108670001598006840F20841C4F20201884203D113
:10868000FFE701200C902CE01598006840F21C4197
:10869000C4F20201884203D1FFE710200B901DE0D5
:1086A0001598006840F23041C4F20201884204D1BA
:1086B000FFE74FF480700A900DE01598016840F2D2
:1086C0004442C4F202024FF48030914208BF4FF49A
:1086D00080500A90FFE70A980B90FFE70B980C90E8
:1086E000FFE70C980D90FFE70D980E90FFE70E98AE
:1086F0000F90FFE70F981090FFE710981190FFE799
:1087000011981290FFE712981390FFE7139840F228
:108710000441C4F202010860A5E015980068082130
:10872000C4F20201884203D1FFE70120099094E0DE
:10873000159800681C21C4F20201884203D1FFE7AA
:108740001020089086E0159800683021C4F20201DC
:10875000884204D1FFE74FF48070079077E01598C6
:1087600000684421C4F20201884204D1FFE74FF4BB
:108770008050069068E0159800685821C4F2020104
:10878000884204D1FFE74FF48030059059E01598F6
:1087900000686C21C4F20201884204D1FFE74FF463
:1087A000801004904AE0159800688021C4F202010C
:1087B000884204D1FFE74FF0807003903BE01598AA
:1087C000006840F20841C4F20201884203D1FFE789
:1087D000012002902CE01598006840F21C41C4F280
:1087E0000201884203D1FFE7102001901DE0159897
:1087F000006840F23041C4F20201884204D1FFE730
:108800004FF4807000900DE01598016840F24442EA
:10881000C4F202024FF48030914208BF4FF48050FE
:108820000090FFE700980190FFE701980290FFE7B2
:1088300002980390FFE703980490FFE704980590DF
:10884000FFE705980690FFE706980790FFE707986F
:108850000890FFE708980990FFE709980421C4F2FF
:1088600002010860FFE71599012081F82100FFE768
:108870001599002081F82000FFE71598406B20B182
:10888000FFE71598416B8847FFE7FFE79DF8530026
:1088900016B080BD80B584B0039000F0F5F9029069
:1088A000039801900198013048B1FFE740F20400BD
:1088B000C2F200000178019808440190FFE7FFE749
:1088C00000F0E2F90299401A0199884201D2FFE7CB
:1088D000F6E704B080BD000092B011901091002026
:1088E0000F900B90FFE7109800680F99C840002880
:1088F00000F09B81FFE70F99012088400E901098AF
:1089000000680E9908400D900D980E99884240F02D
:108910008881FFE7109840680790002851D0FFE752
:10892000079801283AD0FFE7079802283FD0FFE7D1
:10893000079803285FD0FFE70798112832D0FFE798
:108940000798122838D0FFE707980021C1F21101DB
:10895000884236D0FFE707980021C1F21201884211
:108960002FD0FFE707980021C1F22101884228D0CB
:10897000FFE707980021C1F22201884221D0FFE7DA
:1089800007980021C1F2310188421AD0FFE7079809
:108990000021C1F23201884213D02FE01098C06844
:1089A0000B902CE01098C06804300B9027E01098D2
:1089B000C06808300B9022E01098C0680C300B9013
:1089C0001DE01098806818B9FFE704200B9011E0B3
:1089D00010988068012806D1FFE708200B900E98B8
:1089E0001199086105E008200B900E9811994861D3
:1089F000FFE7FFE703E000200B9000E0FFE70D98A2
:108A0000FF2803D8FFE71198069003E0119804307F
:108A10000690FFE706980A900D98FF2804D8FFE714
:108A20000F988000059006E00F996FF01F0000EB93
:108A300081000590FFE7059809900A980068099A57
:108A40000F21914088430B99914008430A9908608F
:108A50001098C079C006002840F1E280FFE7FFE7E8
:108A600041F21800C4F20200016841F00101016006
:108A7000006800F0010008900898FFE70F9820F0C8
:108A800003000821C4F2010140580C900F9800F037
:108A9000030081000F2000FA01F10C9888430C902C
:108AA000119840F60001C4F20101884203D1FFE7AA
:108AB0000020049042E0119840F60041C4F2010108
:108AC000884203D1FFE70120039034E0119841F27E
:108AD0000001C4F20101884203D1FFE702200290A5
:108AE00026E0119841F20041C4F20101884203D10D
:108AF000FFE70320019018E0119841F60001C4F24D
:108B00000101884203D1FFE7042000900AE0119997
:108B100041F60042C4F201020620914208BF05203E
:108B20000090FFE700980190FFE701980290FFE7AF
:108B300002980390FFE703980490FFE704980F99C9
:108B400001F00301890000FA01F10C9808430C9030
:108B50000C980F9921F003010822C4F201028850F9
:108B600010988079C006002809D5FFE70D9A40F2D9
:108B70000841C4F2010108681043086008E00D9A3A
:108B800040F20841C4F20101086890430860FFE721
:108B9000109880798006002809D5FFE70D9A40F2E9
:108BA0000C41C4F2010108681043086008E00D9A06
:108BB00040F20C41C4F20101086890430860FFE7ED
:108BC000109880798007002809D5FFE70D9A40F2B8
:108BD0000441C4F2010108681043086008E00D9ADE
:108BE00040F20441C4F20101086890430860FFE7C5
:108BF00010988079C00748B1FFE70D9A40F2004114
:108C0000C4F2010108681043086008E00D9A40F2C0
:108C10000041C4F20101086890430860FFE7FFE7E4
:108C2000FFE70F9801300F905DE612B0704700002B
:108C300083B00290ADF806100298C0680090009AC8
:108C4000BDF8060002EA0001904340EA01400299A3
:108C5000086103B07047000082B00190ADF80210C7
:108C60008DF801209DF8010028B1FFE7BDF8020052
:108C70000199086105E0BDF802000004019908614E
:108C8000FFE702B07047000040F23810C2F2000067
:108C90000068704780B58EB00C900C9820B9FFE743
:108CA00001208DF8370043E10C9890F83D0040B961
:108CB000FFE70C99002081F83C000C9800F03CF98B
:108CC000FFE70C99242081F83D000C9801680868A2
:108CD00020F0010008600C980168086840F400402A
:108CE00008600C980168086820F40040086000F0F3
:108CF0004DFB0A900C98406848F2A061C0F2010157
:108D000088420BD8FFE70A9948F28042C0F21E025F
:108D10000020914238BF012009900AE00A9940F6EC
:108D20000012C0F23D020020914238BF012009909C
:108D3000FFE70998012804D1FFE701208DF83700EB
:108D4000F6E00A984DF68361C4F21B31A0FB0110D6
:108D5000800C0B900C980068406820F03F000B9945
:108D600008430C99096848600C980068006A20F074
:108D70003F0008900C98406848F2A061C0F20101E1
:108D8000884204D8FFE70B98013007900EE00B985B
:108D90004FF49671484344F6D351C1F26201A0FBEF
:108DA0000101012000EB91100790FFE70898079957
:108DB00008430C99096808620C980068C0694CF671
:108DC000FF71884306900C98406848F2A061C0F299
:108DD000010188421FD8FFE70A9801380C994968B9
:108DE0004900B0FBF1F001306FF31F30032803D8C6
:108DF000FFE7042005900BE00A9801380C994968B8
:108E00004900B0FBF1F001306FF31F300590FFE730
:108E1000059804904CE00C98806868B9FFE70A98C0
:108E200001380C99496801EB4101B0FBF1F00130C8
:108E30006FF31F3003900DE00A9801380C994968D0
:108E400019225143B0FBF1F00130042161F31F30CE
:108E50000390FFE70398000518B9FFE7012002908F
:108E600023E00C98806868B9FFE70A9801380C99EC
:108E7000496801EB4101B0FBF1F001306FF31F30A5
:108E800001900DE00A9801380C9949681922514364
:108E9000B0FBF1F00130042161F31F300190FFE7D6
:108EA000019840F400400290FFE702980490FFE729
:108EB0000698049908430C990968C8610C980068E1
:108EC000006820F0C0000C9B1968DA691B6A1A431D
:108ED000104308600C980068806848F2FF318843AE
:108EE0000C9A1168D36812691A43104388600C9871
:108EF0000068C06820F0FF000C9B19685A699B69E4
:108F00001A431043C8600C980168086840F00100DB
:108F100008600C99002008640C9A202182F83D100A
:108F20000C9908630C9981F83E008DF83700FFE733
:108F30009DF837000EB080BD80B588B00790002046
:108F400006900590049003900798006845F2004150
:108F5000C4F2000188422CD1FFE7FFE741F218007C
:108F6000C4F20200016841F008010160006800F0ED
:108F7000080002900298FFE7C0200390122004909E
:108F80000320069040F60040C4F2010003A9FFF759
:108F9000A3FCFFE741F21C00C4F20200016841F4A7
:108FA00000110160006800F4001001900198FFE7D3
:108FB000FFE708B080BD000040F20400C2F20000EC
:108FC000027840F23811C2F20001086810440860CB
:108FD0007047000080B542F20001C4F20201086847
:108FE00040F010000860032000F096F80F2000F019
:108FF00005F800F03BF8002080BD000080B582B08D
:10900000009040F20000C2F20000006840F204014B
:10901000C2F200010A784FF47A71B1FBF2F1B0FBB1
:10902000F1F000F03DFE20B1FFE701208DF80700D0
:1090300018E000980F280DD8FFE700994FF0FF3097
:10904000002200F04FF8009840F20801C2F200013F
:10905000086003E001208DF8070003E000208DF890
:109060000700FFE79DF8070002B080BD83B0FFE76F
:1090700041F21800C4F20200016841F001010160F0
:10908000006800F0010002900298FFE7FFE741F25C
:109090001C00C4F20200016841F0805101600068C8
:1090A00000F0805001900198FFE7FFE70421C4F22F
:1090B000010108680090009820F0E060009000989E
:1090C00040F00070009000980860FFE703B0704720
:1090D00080B582B08DF807009DF9070001F07EFC95
:1090E00002B080BD80B586B08DF817000491039260
:1090F0000020029001F08AFC02909DF91700019077
:1091000002980499039A01F0D5F90146019801F0FB
:1091100085FC06B080BD000080B582B0019001984A
:1091200001F09EFC02B080BD80B584B00290019138
:10913000029820B9FFE701208DF80F001BE101988C
:1091400042F20001C4F20201096801F007018842FD
:1091500016D9FFE742F20000C4F20200016821F0D4
:109160000701019A11430160006800F007000199AE
:10917000884204D0FFE701208DF80F00FBE0FFE7F5
:1091800002980078800700282AD5FFE70298007827
:109190004007002809D5FFE741F20401C4F20201AB
:1091A000086840F4E0600860FFE702980078000774
:1091B000002809D5FFE741F20401C4F20201086862
:1091C00040F460500860FFE741F20401C4F202017C
:1091D000086820F0F000029A926810430860FFE7E8
:1091E00002980078C007002860D0FFE70298406826
:1091F00001280ED1FFE741F20000C4F2020000682E
:109200008003002804D4FFE701208DF80F00B2E0AE
:1092100021E00298406802280ED1FFE741F20000E9
:10922000C4F2020000688001002804D4FFE7012096
:109230008DF80F009FE00DE041F20000C4F2020043
:1092400000688007002804D4FFE701208DF80F0094
:1092500091E0FFE7FFE741F20401C4F20201086870
:1092600020F00300029A526810430860FFF70CFDDB
:109270000090FFE741F20400C4F20200006800F031
:109280000C0002994968B0EB810F0ED0FFE7FFF7A1
:10929000FBFC0099401A41F28931884204D3FFE770
:1092A00003208DF80F0066E0E4E7FFE7019842F243
:1092B0000001C4F20201096801F00701884216D2D8
:1092C000FFE742F20000C4F20200016821F007014A
:1092D000019A11430160006800F00700019988427B
:1092E00004D0FFE701208DF80F0044E0FFE702986B
:1092F0000078400700280CD5FFE741F20401C4F2D2
:109300000201086820F4E060029AD2681043086005
:10931000FFE702980078000700280DD5FFE741F22B
:109320000401C4F20201086820F46050029A126934
:1093300040EAC2000860FFE700F04CF841F2040187
:10934000C4F202010968C9B20A094AF60631C0F638
:109350000001895CC84040F20001C2F200010860CF
:1093600040F20800C2F200000068FFF747FE00204C
:109370008DF80F00FFE79DF80F0004B080BD0000DE
:1093800040F20000C2F200000068704780B5FFF7AD
:10939000F7FF41F20401C4F202010968C1F302229D
:1093A0004AF61631C0F60001895CC84080BD000055
:1093B00080B5FFF7E5FF41F20401C4F2020109683C
:1093C000C1F3C2224AF61631C0F60001895CC840DA
:1093D00080BD000086B000200590049003900290AC
:1093E000019041F20400C4F2020000680590059863
:1093F00000F00C000146009100283FD0FFE70098E4
:10940000042804D0FFE70098082806D037E041F28E
:109410000020C0F27A00019037E00598C0F3834144
:109420004AF61E30C0F60000405C02909DF816001F
:10943000C007C0B1FFE741F20400C4F202000068B7
:10944000C0F340414AF62E30C0F60000405C049064
:10945000029841F20021C0F27A0148430499B0FB1E
:10946000F1F0039007E0029840F60011C0F23D01D0
:1094700048430390FFE70398019006E0FFE741F2BD
:109480000020C0F27A000190FFE7019806B0704713
:1094900080B586B00490049820B9FFE701208DF8CC
:1094A00017002EE304980078C007002800F0AE8073
:1094B000FFE741F20400C4F20200006800F00C0073
:1094C000042813D0FFE741F20400C4F20200006850
:1094D00000F00C0008281BD1FFE741F20400C4F2A1
:1094E00002000068C003002812D5FFE741F2000027
:1094F000C4F2020000688003002808D5FFE7049842
:10950000406820B9FFE701208DF81700F9E27CE000
:10951000FFE704984068B0F5803F09D1FFE741F2CA
:109520000001C4F20201086840F48030086032E0B3
:109530000498406868B9FFE741F20001C4F20201F3
:10954000086820F480300860086820F480200860F3
:1095500020E004984068B0F5A02F0DD1FFE741F25C
:109560000001C4F20201086840F480200860086825
:1095700040F4803008600CE041F20001C4F20201C6
:10958000086820F480300860086820F480200860B3
:10959000FFE7FFE7FFE7FFE704984068D0B1FFE788
:1095A000FFF772FB0390FFE741F20000C4F20200F4
:1095B0000068800300280CD4FFE7FFF765FB0399E0
:1095C000401A652804D3FFE703208DF8170098E2BE
:1095D000EAE719E0FFF758FB0390FFE741F20000CC
:1095E000C4F202000068800300280CD5FFE7FFF7F3
:1095F0004BFB0399401A652804D3FFE703208DF83D
:1096000017007EE2EAE7FFE7FFE7FFE7049800784C
:109610008007002840F18D80FFE741F20400C4F28A
:109620000200006810F00C0F13D0FFE741F20400B5
:10963000C4F20200006800F00C00082829D1FFE7FE
:1096400041F20400C4F202000068C003002820D4E4
:10965000FFE741F20000C4F2020000688007002822
:1096600009D5FFE704980069012804D0FFE701202D
:109670008DF8170045E241F20001C4F202010868CA
:1096800020F0F800049A526940EAC2000860FFE73F
:109690004EE00498006958B3FFE70021C4F242216C
:1096A00001200860FFF7F0FA0390FFE741F20000A5
:1096B000C4F202000068800700280CD4FFE7FFF71F
:1096C000E3FA0399401A032804D3FFE703208DF837
:1096D000170016E2EAE741F20001C4F2020108684D
:1096E00020F0F800049A526940EAC20008601EE0C7
:1096F0000021C4F2422100200860FFF7C5FA039060
:10970000FFE741F20000C4F2020000688007002871
:109710000CD5FFE7FFF7B8FA0399401A032804D3E2
:10972000FFE703208DF81700EBE1EAE7FFE7FFE72B
:10973000FFE7049800780007002848D5FFE7049861
:10974000806918B3FFE740F28041C4F24221012052
:109750000860FFF799FA0390FFE741F22400C4F292
:1097600002000068800700280CD4FFE7FFF78CFA9E
:109770000399401A032804D3FFE703208DF817004C
:10978000BFE1EAE7012000F0CDFE1FE040F280419A
:10979000C4F2422100200860FFF776FA0390FFE749
:1097A00041F22400C4F202000068800700280CD5B2
:1097B000FFE7FFF769FA0399401A032804D3FFE78C
:1097C00003208DF817009CE1EAE7FFE7FFE7049824
:1097D00000784007002840F1D880FFE700208DF88E
:1097E000070041F21C00C4F202000068C00000281B
:1097F00013D4FFE7FFE741F21C00C4F20200016846
:1098000041F080510160006800F0805000900098A5
:10981000FFE701208DF80700FFE747F20000C4F2E0
:1098200000000068C005002822D4FFE747F20001CD
:10983000C4F20001086840F480700860FFF724FA61
:109840000390FFE747F20000C4F200000068C00583
:1098500000280CD4FFE7FFF717FA0399401A652890
:1098600004D3FFE703208DF817004AE1EAE7FFE79A
:10987000FFE70498C068012809D1FFE741F2200101
:10988000C4F20201086840F00100086031E0049869
:10989000C06868B9FFE741F22001C4F2020108681C
:1098A00020F001000860086820F0040008601FE054
:1098B0000498C06805280DD1FFE741F22001C4F2E9
:1098C0000201086840F004000860086840F00100E8
:1098D00008600CE041F22001C4F20201086820F0A7
:1098E00001000860086820F004000860FFE7FFE757
:1098F000FFE7FFE70498C068E0B1FFE7FFF7C4F9AE
:109900000390FFE741F22000C4F2020000688007E4
:1099100000280ED4FFE7FFF7B7F90399401A41F288
:109920008931884204D3FFE703208DF81700E8E06F
:10993000E8E71BE0FFF7A8F90390FFE741F22000FA
:10994000C4F202000068800700280ED5FFE7FFF789
:109950009BF90399401A41F28931884204D3FFE709
:1099600003208DF81700CCE0E8E7FFE79DF807003B
:10997000012809D1FFE741F21C01C4F20201086885
:1099800020F080500860FFE7FFE70498C0690028D6
:1099900000F0B380FFE741F20400C4F20200006867
:1099A00000F00C00082800F08280FFE70498C069EE
:1099B00002285CD1FFE76021C4F242210020086048
:1099C000FFF762F90390FFE741F20000C4F20200E2
:1099D0000068800100280CD5FFE7FFF755F90399CF
:1099E000401A032804D3FFE703208DF8170088E00E
:1099F000EAE70498006AB0F5803F0CD1FFE741F236
:109A00000401C4F20201086820F40030049A92684C
:109A100010430860FFE741F20401C4F20201086844
:109A200020F47410049B1A6A5B6A1A43104308609E
:109A30006021C4F2422101200860FFF725F903905C
:109A4000FFE741F20000C4F2020000688001002834
:109A50000CD4FFE7FFF718F90399401A032804D341
:109A6000FFE703208DF817004BE0EAE71EE06021D6
:109A7000C4F2422100200860FFF706F90390FFE7D7
:109A800041F20000C4F202000068800100280CD5F9
:109A9000FFE7FFF7F9F80399401A032804D3FFE71B
:109AA00003208DF817002CE0EAE7FFE724E0049894
:109AB000C069012804D1FFE701208DF8170020E0DC
:109AC00041F20400C4F2020000680290029800F41F
:109AD00080300499096A884208D1FFE7029800F4AF
:109AE00070100499496A884204D0FFE701208DF87C
:109AF000170006E0FFE7FFE7FFE700208DF81700FB
:109B0000FFE79DF8170006B080BD000080B584B067
:109B10000290029820B9FFE701208DF80F006EE057
:109B20000298406A60B9FFE702984068B0F5827F0A
:109B300001D1FFE703E002990020C861FFE705E0DB
:109B400002990020086102994861FFE7029900200C
:109B50008862029890F8510040B9FFE7029900200E
:109B600081F85000029800F04FF8FFE702990220B8
:109B700081F8510002980168086820F040000860F0
:109B8000029A019211685068D2F808C0D36800F4B4
:109B900082700CF4044C604403F4006318441369AD
:109BA00003F002031844536903F001031844936956
:109BB00003F400731844D36903F038031844136A9C
:109BC00003F080031843926A02F4005210430860C5
:109BD000029801688269042000EA124048600298F5
:109BE0000168C86920F40060C861029900204865D6
:109BF000029A012182F851108DF80F00FFE79DF8BD
:109C00000F0004B080BD000080B58AB0099000202C
:109C100008900790069005900998006843F60001A7
:109C2000C4F20001884239D1FFE7FFE741F21C008E
:109C3000C4F20200016841F480410160006800F450
:109C4000804004900498FFE7FFE741F21800C4F257
:109C50000200016841F008010160006800F008009E
:109C600003900398FFE74FF42040059002200690F0
:109C70000320089040F60040C4F20100019005A9BD
:109C80000291FEF729FE019802994FF48042059255
:109C9000002206920792FEF71FFEFFE70AB080BD82
:109CA00080B582B00190019800F05CFC02B080BDEC
:109CB00082B00190ADF8021002B0704781B0009000
:109CC00001B0704780B592B011901198006800689B
:109CD000109011980068C0680F9011980068406952
:109CE0000E9000200D900C90109800F00F000D9039
:109CF0000D9888B9FFE79DF84000800600280AD536
:109D0000FFE79DF83C008006002804D5FFE7119886
:109D100000F0FCFCE9E1FFE70D98002800F0C280AC
:109D2000FFE79DF83800C00738B9FFE7BDF83C00F1
:109D300010F4907F00F0B680FFE79DF84000C00768
:109D400058B1FFE79DF83D00C00730B1FFE711991A
:109D5000486C40F001004864FFE79DF84000400770
:109D600000280BD5FFE79DF83800C00730B1FFE7AA
:109D70001199486C40F002004864FFE79DF84000EC
:109D8000800700280BD5FFE79DF83800C00730B1E9
:109D9000FFE71199486C40F004004864FFE79DF824
:109DA00040000007002811D5FFE79DF83C00800621
:109DB000002805D4FFE79DF83800C00730B1FFE761
:109DC0001199486C40F008004864FFE71198406C16
:109DD000002866D0FFE79DF84000800600280AD5DD
:109DE000FFE79DF83C008006002804D5FFE71198A6
:109DF00000F08CFCFFE7119800684069C0F3801008
:109E00000C901198406C0007002804D4FFE70C98D0
:109E100000283ED0FFE7119800F01AFC1198006866
:109E20004069400600282FD5FFE7FFE7FFE71198BC
:109E3000006850E8050F20F040000B90FFE70B99F9
:109E40001198026842E805100028F0D1FFE7FFE70B
:109E50001198C06B98B1FFE71198C16B4AF231605D
:109E6000C0F6000048631198C06BFEF787FB28B16D
:109E7000FFE71198C06B416B8847FFE703E011983B
:109E8000FFF71CFFFFE703E01198FFF717FFFFE75D
:109E900006E01198FFF712FF119900204864FFE7D0
:109EA000FFE722E11198006B012840F0FE80FFE7F8
:109EB0009DF84000C006002840F1F780FFE79DF8BC
:109EC0003C00C006002840F1F080FFE7FFE70020DB
:109ED0000A901198006800680A901198006840681C
:109EE0000A900A98FFE71198006840694006002828
:109EF00040F18180FFE71198C06B00684068ADF8C1
:109F00002600BDF82600002874D0FFE7BDF8260023
:109F10001199898D88426DDAFFE7BDF82600119905
:109F2000C8851198C06B8069202858D0FFE7FFE7EB
:109F3000FFE71198006850E8030F20F48070089044
:109F4000FFE708991198026842E803100028F0D151
:109F5000FFE7FFE7FFE7FFE71198006850E8050F0C
:109F600020F001000790FFE707991198026842E886
:109F700005100028F0D1FFE7FFE7FFE7FFE71198A2
:109F8000006850E8050F20F040000690FFE70699B2
:109F90001198026842E805100028F0D1FFE7FFE7BA
:109FA0001199202081F84200119900200863FFE7F1
:109FB000FFE71198006850E8030F20F010000590AB
:109FC000FFE705991198026842E803100028F0D1D4
:109FD000FFE7FFE71198C06BFEF792FAFFE71199D0
:109FE000022048631198818DC28D891A89B2FFF7CA
:109FF0005FFEFFE779E01199888DC98D401AADF8B1
:10A0000012001198C08D00284ED0FFE7BDF8120055
:10A01000002849D0FFE7FFE7FFE71198006850E804
:10A02000030F20F490700390FFE7039911980268E2
:10A0300042E803100028F0D1FFE7FFE7FFE7FFE762
:10A040001198006850E8050F20F001000290FFE72A
:10A0500002991198026842E805100028F0D1FFE744
:10A06000FFE71199202081F8420011990020086330
:10A07000FFE7FFE71198006850E8030F20F0100099
:10A080000190FFE701991198026842E80310002847
:10A09000F0D1FFE7FFE71199022048631198BDF85E
:10A0A0001210FFF705FEFFE71FE09DF840000006D5
:10A0B00000280AD5FFE79DF83C000006002804D5DB
:10A0C000FFE7119800F036FC0FE09DF840004006D5
:10A0D00000280AD5FFE79DF83C004006002804D57B
:10A0E000FFE7119800F0FEFAFFE712B080BD000014
:10A0F00080B582B00090009820B9FFE701208DF86C
:10A10000070040E00098806908B1FFE700E0FFE742
:10A11000009890F8410040B9FFE70099002081F8CD
:10A120004000009800F034F8FFE70099242081F8FF
:10A13000410000980168C86820F40050C860009889
:10A1400000F09AFB00980168086920F490400861CB
:10A1500000980168486920F02A0048610098016869
:10A16000C86840F40050C860009900204864009A14
:10A17000202182F84110009A82F842100099486329
:10A180008DF80700FFE79DF8070002B080BD0000D2
:10A1900080B58CB00B9000200A9009900890079031
:10A1A0000B98006843F60001C4F20101884243D1D4
:10A1B000FFE7FFE741F21800C4F20200016841F432
:10A1C00080410160006800F4804006900698FFE737
:10A1D000FFE741F21800C4F20200016841F00401F7
:10A1E0000160006800F0040005900598FFE74FF457
:10A1F000007007900220089003200A9040F60000AB
:10A20000C4F20100019007A90291FEF765FB0198D5
:10A2100002994FF4806207920022039208920992F9
:10A22000FEF75AFB039A252004900521FEF75AFFFA
:10A230000498FEF74DFFFFE70CB080BD81B00090A1
:10A2400001B0704781B0009001B07047FFE7FEE7B2
:10A2500080B582B040F21000C2F20000019046F2D8
:10A260000041C4F2000101602421416000218160AD
:10A27000C1604FF4803202614FF480124261017676
:10A28000012242768276C17601774177FDF7BEFFE3
:10A2900018B1FFE7FDF7B2FFFFE702B080BD000095
:10A2A00080B540F23800C2F2000043F20001C4F26F
:10A2B00002010160FEF7E6F818B1FFE7FDF79EFF27
:10A2C000FFE780BD80B590B000200F900E900D90FC
:10A2D0000C90FFE741F21800C4F20200016841F05F
:10A2E00040010160006800F040000B900B98FFE710
:10A2F000FFE741F21800C4F20200016841F01001CA
:10A300000160006800F010000A900A98FFE7FFE77C
:10A3100041F21800C4F20200016841F00801016036
:10A32000006800F0080009900998FFE7FFE741F294
:10A330001800C4F20200016841F0040101600068E5
:10A3400000F0040008900898FFE741F60000C4F20E
:10A35000010001902021079101220292FEF77CFC6E
:10A36000029A40F60040C4F2010005904FF481517A
:10A37000FEF772FC0198079A02990C920D91002148
:10A3800003910E91022104910F910CA90691FEF701
:10A39000A3FA029B039A059806994FF4805CCDF8C6
:10A3A00030C00D930E9203220F92FEF795FADDF85E
:10A3B00008C0039B049A05980699DDF81CE0CDF8C7
:10A3C00030E0CDF834C00E930F92FEF785FA10B04E
:10A3D00080BD000080B582B040F24000C2F20000B3
:10A3E000019045F20041C4F20001016048F2A06111
:10A3F000C0F20101416000218160C1604FF48042E0
:10A40000026141618161C1610162FEF743FC18B1E3
:10A41000FFE7FDF7F3FEFFE702B080BD80B582B035
:10A4200040F29400C2F20000019043F60001C4F231
:10A43000000101604FF48271416000218160C160C0
:10A44000016141614FF4007282611022C2610162B8
:10A45000416281620A21C162FFF758FB18B1FFE730
:10A46000FDF7CCFEFFE702B080BD000080B582B0F2
:10A4700040F2EC00C2F20000019043F60001C4F289
:10A48000010101604FF4E131416000218160C16050
:10A4900001610C2242618161C161FFF729FE18B19F
:10A4A000FFE7FDF7ABFEFFE702B080BDFFE7FEE789
:10A4B000FFE7FEE788B0079006910592079800F045
:10A4C000070004900498C0F10700052803D3FFE7B4
:10A4D0000420019004E00498C0F107000190FFE718
:10A4E0000198039004980430062803D8FFE7002061
:10A4F000009003E0049803380090FFE70098029072
:10A5000006980399012202FA01F101390840029BE1
:10A51000984005999A40013A1140084308B07047A5
:10A520007047000082B00190019840F20001C2F231
:10A5300000010968C90844F6D352C1F26202A1FBC6
:10A540000221890948430090FFE700BFFFE7009818
:10A55000411E00910028F8D1FFE702B070470000CB
:10A560007047000080B582B0009000980138B0F1CB
:10A57000807F03D3FFE70120019019E000980138A4
:10A580004EF21401CEF2000108604FF0FF300F21AF
:10A5900000F044FA4EF21801CEF2000100200860EB
:10A5A0004EF21002CEF20002072111600190FFE787
:10A5B000019802B080BD000080B5FEF7FDFC80BDB3
:10A5C00080B590B006A800902821FDF7D4FD009832
:10A5D00000230593049303930293019301220692AF
:10A5E0004FF48031079108930A9202220D920E9146
:10A5F0004FF4E0110F91FEF74BFF18B1FFE7FDF7A5
:10A60000FDFDFFE70F200190022102910020039041
:10A610004FF480620492059001A8FEF785FD18B101
:10A62000FFE7FDF7EBFDFFE710B080BD70470000CE
:10A6300080B582B001900198406A00900099002096
:10A64000C8850099C8840098FFF738FB02B080BD28
:10A6500084B00390FFE7FFE70398006850E8030F1A
:10A6600020F490700290FFE702990398026842E894
:10A6700003100028F0D1FFE7FFE7FFE7FFE70398AB
:10A68000006850E8050F20F001000190FFE70199F4
:10A690000398026842E805100028F0D1FFE7FFE7C1
:10A6A0000398006B012814D1FFE7FFE7FFE7039849
:10A6B000006850E8030F20F010000090FFE70099B9
:10A6C0000398026842E803100028F0D1FFE7FFE793
:10A6D000FFE70399202081F84200039900200863D6
:10A6E00004B0704780B582B0019001980168C868D5
:10A6F00020F04000C8600199202081F841000198B5
:10A70000FFF7A0FD002002B080BD000080B586B03C
:10A710000490049890F84200222840F0A480FFE7BB
:10A7200004988068B0F5805F15D1FFE70498006950
:10A7300088B9FFE7002003900498806A029004988B
:10A74000006840686FF35F20029908800499886A66
:10A750000230886225E00498806A0390002002900D
:10A7600004988068B0F5805F08D0FFE7049880689F
:10A7700050B9FFE70498006930B9FFE70498006812
:10A7800040680399087007E004980068406800F08A
:10A790007F0003990870FFE70499886A0130886296
:10A7A000FFE70499C88D0138C8850004002856D1F8
:10A7B000FFE704980168C86820F02000C86004988A
:10A7C0000168C86820F48070C8600498016848690E
:10A7D00020F0010048610499202081F8420004998A
:10A7E000002048630498006B012830D1FFE70499EA
:10A7F00000200863FFE7FFE70498006850E8030FB4
:10A8000020F010000190FFE701990498026842E8E7
:10A8100003100028F0D1FFE7FFE704980068006804
:10A82000C00600280ED5FFE7FFE70020009004983F
:10A8300000680068009004980068406800900098E4
:10A84000FFE7FFE70498818DFFF732FA03E00498F1
:10A85000FFF7F4FCFFE700208DF8170007E0002069
:10A860008DF8170003E002208DF81700FFE79DF830
:10A87000170006B080BD000080B584B00390039837
:10A880000068006920F44050039A1168D2681043B0
:10A890000861039988680A6949691043084302906E
:10A8A00003980068C06841F20C618843029908432C
:10A8B00003990968C86003980068406920F44070F3
:10A8C000039A11689269104348610398006843F63F
:10A8D0000001C4F20101884204D1FFE7FEF768FDE0
:10A8E000019003E0FEF752FD0190FFE70198192166
:10A8F0004843039A116852689200B0FBF2FC48F298
:10A900001F52C5F2EB12ACFB02304309642003FB7B
:10A9100010CC322000EB0C10A0FB0202F02000EA69
:10A92000521000EB0310C2F343121044886004B0CD
:10A9300080BD000083B00190019890F8410021286B
:10A940003AD1FFE701988068B0F5805F13D1FFE747
:10A950000198006978B9FFE70198006A00900098B3
:10A9600000886FF35F200199096848600199086ABF
:10A970000230086208E0019A106A411C11620078F6
:10A98000019909684860FFE70199C88C0138C884BB
:10A99000000468B9FFE701980168C86820F08000EA
:10A9A000C86001980168C86840F04000C860FFE7CF
:10A9B00000208DF80B0003E002208DF80B00FFE76C
:10A9C0009DF80B0003B0704780B540F2EC00C2F276
:10A9D0000000FFF777F980BDFFE7FEE781B08DF853
:10A9E00003009DF9030000280ED4FFE79DF9031032
:10A9F00001F01F02012090404A094EF20011CEF2F0
:10AA0000000141F82200FFE701B070474EF60C50FC
:10AA1000CEF200000068C0F30220704782B08DF8CB
:10AA2000070000919DF9070000280AD4FFE700986D
:10AA300000019DF907104EF20042CEF20002885448
:10AA40000BE0009800019DF8071001F00F014EF691
:10AA50001452CEF200028854FFE702B070470000A3
:10AA600083B00290029800F0070000904EF60C515F
:10AA7000CEF200010868019001984FF6FF021040E5
:10AA800001900198009A40EA02200022C0F2FA5296
:10AA9000104301900198086003B0704780B582B000
:10AAA00000200090EFF3108072B601904EF608512E
:10AAB000CEF2000148F20000C0F60000086062B665
:10AAC000FEF788FAFFF77CFDFFF7FCFBFFF7C0FB02
:10AAD000FFF7CCFCFFF7E4FBFFF77CFCFFF79EFCE5
:10AAE000FFE7FDF779FBFCE702E008C8121F08C189
:10AAF000002AFAD170477047002001E001C1121FFF
:10AB0000002AFBD170470000000000000000010295
:10AB10000304060708090000000001020304020301
:10AB20000405060708090A0B0C0D0E0F1010010290
:10AB300050AB00080000002010000000E8AA000848
:10AB400060AB00081000002030050000F8AA0008E3
:10AB500000127A0001000000100000000000000058
:04000005080081313D
:00000001FF
