:020000040800F2
:108000008804002045810008D9A10008919F00083C
:10801000D5A10008D986000885A500080000000049
:1080200000000000000000000000000089A200081D
:10803000DD8600080000000049A20008E1A2000857
:108040005F8100085F8100085F8100085F81000890
:108050005F8100085F8100085F8100085F81000880
:108060005F8100085F8100085F8100085F81000870
:108070005F8100085F8100085F8100085F81000860
:108080005F8100085F8100085F8100085F81000850
:108090005F8100085F8100085F8100085F81000840
:1080A0005F8100085F8100085F8100085F81000830
:1080B0005F8100085F8100085F8100085F81000820
:1080C0005F8100085F8100085F8100085F81000810
:1080D0005F8100085F8100085F8100085F81000800
:1080E0005F8100085F8100085F8100085F810008F0
:1080F0005F8100085F8100085F8100085F810008E0
:108100005F8100085F8100085F8100085F810008CF
:108110005F8100085F8100085F8100085F810008BF
:108120005F8100085F8100085F8100085F810008AF
:10813000DFF80CD000F02AFA004800473DA60008FE
:10814000880400200648804706480047FEE7FEE70F
:10815000FEE7FEE7FEE7FEE7FEE7FEE7FEE7FEE7F7
:1081600055A3000831810008D2B201E000F8012BCC
:10817000491EFBD270470022F6E710B513460A46A7
:1081800004461946FFF7F0FF204610BD30B50B46F8
:10819000014600202022012409E021FA02F59D4237
:1081A00005D303FA02F5491B04FA02F52844151E0B
:1081B000A2F10102F1DC30BD2DE9F05F054600209F
:1081C00092469B4688460646814640241BE0284648
:1081D00041464746224600F000FA53465A46C01A26
:1081E000914110D311461846224600F0E7F92D1AA6
:1081F00067EB01084F4622460120002100F0DEF91E
:1082000017EB00094E41201EA4F10104DFDC4846B3
:1082100031462A464346BDE8F09F2DE9FE4F804691
:1082200081EA0300C00F0C46009021F0004123F0CA
:108230000045B8EB0200A94105D2404621469046D0
:108240001C460B46024623F00040104347D0270D42
:10825000C7F30A00C3F30A510290401A0190402864
:108260006BDAC3F3130040F4801B0098924620B1F0
:108270000023D2EB030A63EB0B0B01985946C0F1C4
:108280004002504600F09AF906460D4650465946BF
:10829000019A00F0B2F910EB08006141002487EA6E
:1082A000115284EAE7731A4340D0009A62B3019AEC
:1082B000012A4FEA075215DC001B61EB02014FF067
:1082C000004202EA0752CDE90042001C41F580114C
:1082D00032462B4600F0B2F903B0BDE8F08F4046BD
:1082E0002146F9E7001B61EB0201001C41F58013F8
:1082F00000185B412018A2F5001747EB030140EA84
:10830000D570B6196D4111E06D084FEA360645EAA1
:10831000C0754FEA0752001B61EB0201001C41F5DA
:10832000801149084FEA30000019514132462B466E
:1083300003B0BDE8F04F00F072B900980122400090
:108340000023D0EB020263EBE073009821464FEA72
:10835000E074B8EB000061EB0401E9E783F000434F
:108360005BE781F0004158E72DE9FE4F81EA030405
:1083700004F0004421F0004100944FF0000B23F082
:10838000004350EA01045ED052EA03045BD0C3F319
:108390000A54C1F30A552C44A4F2F3340194A0FB0F
:1083A0000254C1F3130141F48011C3F3130343F4E6
:1083B000801301FB024400FB034E840A970A44EA3F
:1083C000815447EA8357A4FB076802958D0A05FB91
:1083D00007854FEA932C04FB0C542705029D4FEAB6
:1083E000065847EA1637B5EB08056EEB070C870E03
:1083F000920E47EA811742EA8312A7FB0201B6EB0D
:108400000B0164EB00042B0D43EA0C335E1844EBC4
:108410001C50DA465146E7FB0201C5F313044FEA4C
:108420000B3343EA14534FEA0432019C43EA060338
:10843000A4F10C040294009CCDE900B400F0FEF815
:1084400003B0BDE8F08F00200146F9E72DE9F04DBB
:1084500081EA030404F0004B21F0004514464FF07C
:10846000000A23F0004150EA050220D054EA01023C
:108470001DD0C5F30A570246C5F31303C1F3130019
:10848000C1F30A5640F4801543F48013A7EB0608A5
:10849000101BD64608F2FD3873EB050002D308F135
:1084A000010801E092185B41B8F1000F03DA0020E7
:1084B0000146BDE8F08D00204FF480110646844649
:1084C0000EE0171B73EB050705D3121B63EB0503C7
:1084D00006434CEA010C49084FEA300092185B4110
:1084E00050EA0107EDD152EA030012D082EA0400FB
:1084F00083EA0501084305D0101BAB4106D20122D7
:10850000002306E000224FF0004302E06FF001027A
:1085100053101AEB06004CEB085110EB0A0041EB2C
:108520000B01BDE8F04D00F07AB8C1F30A52C1F377
:10853000130140F2FF3341F480119A4202DA002025
:108540000146704740F233439A42A2F2334202DCC2
:10855000524200F042B800F031B8000030B5041EBD
:1085600071F1000404DB4FF00044404264EB010170
:10857000141E73F1000405DB1C464FF00043524209
:1085800063EB0403994208BF904230BD1CB5094813
:108590000090094801900546009C06E0E06840F024
:1085A000010394E8070098471034AC42F6D3FFF774
:1085B000C3FD000034B0000854B00008202A04DBDA
:1085C000203A00FA02F1002070479140C2F12003E6
:1085D00020FA03F3194390407047202A04DB203A25
:1085E00021FA02F00021704721FA02F3D040C2F1D3
:1085F00020029140084319467047202A06DBCB171A
:10860000203A41FA02F043EAE07306E041FA02F34D
:10861000D040C2F12002914008431946704710B57E
:10862000141E73F1000408DA401C41F10001921895
:108630005B411A4301D120F0010010BD2DE9F04D3E
:1086400092469B4611B1B1FA81F202E0B0FA80F293
:1086500020329046FFF7B2FF04460F4640EA0A0078
:1086600041EA0B0153465A46084313D0114653EAD8
:10867000010019D0C8F140025046FFF7AEFF054691
:108680000E46504659464246FFF798FF084305D02C
:10869000012004E020463946BDE8F08D0020054366
:1086A00046EAE0762C4337430A986305E40AA0EBD8
:1086B00008000022FD0A44EA47540A3002D500208F
:1086C0000146E9E7010510196941DDE9084500198E
:1086D0006941BDE8F04DA2E7FFE7FEE77047000003
:1086E00081B0EFF3108072B60090FFE7FEE7000064
:1086F00086B004900391049800680190049890F863
:1087000020008DF803009DF80300012806D0FFE744
:108710009DF80300022840F09B80FFE70199D1F803
:10872000000240F00100C1F800020398406900F027
:108730001F01012088400290029A0199D1F81C0281
:108740009043C1F81C020398C069F0B9FFE7029A90
:108750000199D1F80C029043C1F80C02039A908859
:10876000D168526940EA0140019901EBC201C1F8A8
:108770004002039A10889168526940EA01400199C9
:1087800001EBC201C1F84402FFE70398C069012868
:108790001ED1FFE7029A0199D1F80C021043C1F8EB
:1087A0000C02039A90881168526940EA01400199CD
:1087B00001EBC201C1F84002039A908991685269A5
:1087C00040EA0140019901EBC201C1F84402FFE710
:1087D0000398806940B9FFE7029A0199D1F8040231
:1087E0009043C1F8040207E0029A0199D1F804020B
:1087F0001043C1F80402FFE70398006940B9FFE79E
:10880000029A0199D1F814029043C1F8140207E0CA
:10881000029A0199D1F814021043C1F81402FFE73B
:108820000398006A012808D1FFE7029A0199D1F85C
:108830001C021043C1F81C02FFE70199D1F80002A5
:1088400020F00100C1F8000200208DF8170008E0B8
:108850000499486A40F48020486201208DF817008E
:10886000FFE79DF8170006B07047000084B0039042
:10887000029100200190039890F820008DF80300E9
:108880009DF80300012805D0FFE79DF803000228AA
:1088900012D1FFE7029838B9FFE703980068C06873
:1088A00000F00300019006E003980068006900F002
:1088B00003000190FFE7FFE7019804B07047000054
:1088C00086B00490039102920193049890F82000DE
:1088D0008DF803009DF80300012806D0FFE79DF8FE
:1088E0000300022840F0E880FFE7039880B9FFE723
:1088F00004980068C068800748B9FFE70499486A8F
:1089000040F40010486201208DF81700DDE00FE010
:10891000049800680069800748B9FFE70499486A2D
:1089200040F40010486201208DF81700CDE0FFE709
:1089300004980068039900EB0110D0F8B00100F032
:108940000400029988600298806858B9FFE704988B
:108950000068039900EB0110D0F8B001400D0299B6
:1089600008600AE004980068039900EB0110D0F851
:10897000B001C00802994860FFE7049800680399B5
:1089800000EB0110D0F8B00100F002000299C860BD
:1089900004980068039900EB0110D0F8B40100F0CE
:1089A0000F00082804D3FFE70299082008610BE0B4
:1089B00004980068039900EB0110D0F8B40100F0AE
:1089C0000F0002990861FFE704980068039900EB23
:1089D0000110D0F8B40180B2000A029988610498AD
:1089E0000068039900EB0110D0F8B401000C029963
:1089F000486104980068039900EB0110D0F8B801B1
:108A00000199087004980068039900EB0110D0F8F0
:108A1000B801000A0199487004980068039900EBB6
:108A20000110D0F8B801000C019988700498006812
:108A3000039900EB0110D0F8B801000E0199C8703D
:108A400004980068039900EB0110D0F8BC0101996B
:108A5000087104980068039900EB0110D0F8BC017C
:108A6000000A0199487104980068039900EB01100D
:108A7000D0F8BC01000C0199887104980068039932
:108A800000EB0110D0F8BC01000E0199C8710398E9
:108A900038B9FFE704980168C86840F02000C86052
:108AA00006E004980168086940F020000861FFE7CB
:108AB00000208DF8170008E00499486A40F48020EF
:108AC000486201208DF81700FFE79DF8170006B0F7
:108AD0007047000080B584B00290029820B9FFE78B
:108AE00001208DF80F00E0E0029890F8200020B9F6
:108AF000FFE7029800F0DEF8FFE7029801680868D7
:108B000040F00100086000F061FB0190FFE702986F
:108B100000684068C007A8B9FFE700F057FB01995B
:108B2000401A0B280DD3FFE70299486A40F4003041
:108B300048620299052081F8200001208DF80F007D
:108B4000B3E0E4E702980168086820F002000860DA
:108B500000F03CFB0190FFE7029800684068800746
:108B6000002815D5FFE700F031FB0199401A0B28CA
:108B70000DD3FFE70299486A40F400304862029939
:108B8000052081F8200001208DF80F008DE0E3E73B
:108B90000298007E012807D1FFE702980168086863
:108BA00040F08000086006E002980168086820F044
:108BB00080000860FFE70298407E012807D1FFE7A8
:108BC00002980168086840F04000086006E00298DA
:108BD0000168086820F040000860FFE70298807E86
:108BE000012807D1FFE702980168086840F02000DB
:108BF000086006E002980168086820F0200008601C
:108C0000FFE70298C07E012807D1FFE702980168BC
:108C1000086820F01000086006E002980168086803
:108C200040F010000860FFE70298007F012807D19C
:108C3000FFE702980168086840F00800086006E055
:108C400002980168086820F008000860FFE70298B1
:108C5000407F012807D1FFE702980168086840F0CB
:108C60000400086006E002980168086820F004002B
:108C70000860FFE7029B19685A689868D3F80CC02F
:108C800040EA0C00D3F810C040EA0C005B691843BE
:108C9000013A1043C861029900204862029A0121FA
:108CA00082F820108DF80F00FFE79DF80F0004B048
:108CB00080BD000080B58AB0099000200890079020
:108CC000069005900998006846F20041C4F2000140
:108CD000884239D1FFE7FFE741F21C00C4F20200ED
:108CE000016841F000710160006800F000700490BC
:108CF0000498FFE7FFE741F21800C4F202000168A0
:108D000041F004010160006800F004000390039842
:108D1000FFE74FF40060059000200690079040F6B2
:108D20000000C4F20100019005A9029100F076F85C
:108D3000019802994FF48052059202220692032272
:108D4000089200F06BF8FFE70AB080BD80B584B0F0
:108D50000290029890F8200001282FD1FFE7029995
:108D6000022081F8200002980168086820F00100C4
:108D7000086000F02BFA0190FFE702980068406855
:108D8000C007A8B1FFE700F021FA0199401A0B28AB
:108D90000DD3FFE70299486A40F400304862029917
:108DA000052081F8200001208DF80F000FE0E4E796
:108DB0000299002048628DF80F0008E00299486A85
:108DC00040F40020486201208DF80F00FFE79DF875
:108DD0000F0004B080BD000080B584B0039000F0A7
:108DE000F5F90290039801900198013048B1FFE72E
:108DF00040F20800C2F20000017801980844019096
:108E0000FFE7FFE700F0E2F90299401A0199884272
:108E100001D2FFE7F6E704B080BD000092B01190E8
:108E2000109100200F900B90FFE7109800680F99A9
:108E3000C840002800F09B81FFE70F99012088407F
:108E40000E90109800680E9908400D900D980E999C
:108E5000884240F08881FFE710984068079000281A
:108E600051D0FFE7079801283AD0FFE7079802287A
:108E70003FD0FFE7079803285FD0FFE70798112846
:108E800032D0FFE70798122838D0FFE70798002173
:108E9000C1F21101884236D0FFE707980021C1F2E4
:108EA000120188422FD0FFE707980021C1F221016B
:108EB000884228D0FFE707980021C1F222018842AA
:108EC00021D0FFE707980021C1F2310188421AD072
:108ED000FFE707980021C1F23201884213D02FE04A
:108EE0001098C0680B902CE01098C06804300B906C
:108EF00027E01098C06808300B9022E01098C068F6
:108F00000C300B901DE01098806818B9FFE7042022
:108F10000B9011E010988068012806D1FFE7082027
:108F20000B900E981199086105E008200B900E989F
:108F300011994861FFE7FFE703E000200B9000E094
:108F4000FFE70D98FF2803D8FFE71198069003E08C
:108F5000119804300690FFE706980A900D98FF28B4
:108F600004D8FFE70F988000059006E00F996FF096
:108F70001F0000EB81000590FFE7059809900A9813
:108F80000068099A0F21914088430B99914008434A
:108F90000A9908601098C079C006002840F1E28064
:108FA000FFE7FFE741F21800C4F20200016841F058
:108FB00001010160006800F0010008900898FFE7D7
:108FC0000F9820F003000821C4F2010140580C90D2
:108FD0000F9800F0030081000F2000FA01F10C98B7
:108FE00088430C90119840F60001C4F201018842B8
:108FF00003D1FFE70020049042E0119840F60041C1
:10900000C4F20101884203D1FFE70120039034E05C
:10901000119841F20001C4F20101884203D1FFE737
:109020000220029026E0119841F20041C4F20101B1
:10903000884203D1FFE70320019018E0119841F620
:109040000001C4F20101884203D1FFE7042000902F
:109050000AE0119941F60042C4F201020620914251
:1090600008BF05200090FFE700980190FFE70198F6
:109070000290FFE702980390FFE703980490FFE750
:1090800004980F9901F00301890000FA01F10C988E
:1090900008430C900C980F9921F003010822C4F2A8
:1090A0000102885010988079C006002809D5FFE792
:1090B0000D9A40F20841C4F20101086810430860AB
:1090C00008E00D9A40F20841C4F20101086890439B
:1090D0000860FFE7109880798006002809D5FFE72F
:1090E0000D9A40F20C41C4F2010108681043086077
:1090F00008E00D9A40F20C41C4F201010868904367
:109100000860FFE7109880798007002809D5FFE7FD
:109110000D9A40F20441C4F201010868104308604E
:1091200008E00D9A40F20441C4F20101086890433E
:109130000860FFE710988079C00748B1FFE70D9AF3
:1091400040F20041C4F2010108681043086008E0E1
:109150000D9A40F20041C4F2010108689043086092
:10916000FFE7FFE7FFE70F9801300F905DE612B0D1
:109170007047000083B00290ADF806100298C068F6
:109180000090009ABDF8060002EA0001904340EA10
:1091900001400299086103B07047000082B001905D
:1091A000ADF802108DF801209DF8010028B1FFE70D
:1091B000BDF802000199086105E0BDF80200000455
:1091C00001990861FFE702B07047000040F280009B
:1091D000C2F200000068704740F20800C2F20000CE
:1091E000027840F28001C2F2000108681044086071
:1091F0007047000080B542F20001C4F20201086825
:1092000040F010000860032000F08CF80F2000F000
:1092100005F800F03BF8002080BD000080B582B06A
:10922000009040F20400C2F20000006840F2080121
:10923000C2F200010A784FF47A71B1FBF2F1B0FB8F
:10924000F1F000F069FD20B1FFE701208DF8070083
:1092500018E000980F280DD8FFE700994FF0FF3075
:10926000002200F045F8009840F20C01C2F2000123
:10927000086003E001208DF8070003E000208DF86E
:109280000700FFE79DF8070002B080BD83B0FFE74D
:1092900041F21800C4F20200016841F001010160CE
:1092A000006800F0010002900298FFE7FFE741F23A
:1092B0001C00C4F20200016841F0805101600068A6
:1092C00000F0805001900198FFE7FFE70421C4F20D
:1092D000010108680090009820F0E060009000987C
:1092E00040F00070009000980860FFE703B07047FE
:1092F00080B586B08DF8170004910392002002908B
:1093000001F042F902909DF917000190029804992A
:10931000039A00F063FF0146019801F03DF906B0A1
:1093200080BD000080B582B00190019801F056F92F
:1093300002B080BD80B584B002900191029820B93E
:10934000FFE701208DF80F001BE1019842F20001B8
:10935000C4F20201096801F00701884216D9FFE74B
:1093600042F20000C4F20200016821F00701019AF4
:1093700011430160006800F007000199884204D0A1
:10938000FFE701208DF80F00FBE0FFE7029800786F
:10939000800700282AD5FFE70298007840070028B8
:1093A00009D5FFE741F20401C4F20201086840F464
:1093B000E0600860FFE7029800780007002809D500
:1093C000FFE741F20401C4F20201086840F4605072
:1093D0000860FFE741F20401C4F20201086820F0CE
:1093E000F000029A926810430860FFE70298007844
:1093F000C007002860D0FFE70298406801280ED11E
:10940000FFE741F20000C4F2020000688003002878
:1094100004D4FFE701208DF80F00B2E021E00298AC
:10942000406802280ED1FFE741F20000C4F20200BA
:1094300000688001002804D4FFE701208DF80F00A8
:109440009FE00DE041F20000C4F2020000688007D6
:10945000002804D4FFE701208DF80F0091E0FFE71A
:10946000FFE741F20401C4F20201086820F00300A2
:10947000029A526810430860FFF7A8FE0090FFE7C9
:1094800041F20400C4F20200006800F00C000299EE
:109490004968B0EB810F0ED0FFE7FFF797FE009908
:1094A000401A41F28931884204D3FFE703208DF846
:1094B0000F0066E0E4E7FFE7019842F20001C4F222
:1094C0000201096801F00701884216D2FFE742F263
:1094D0000000C4F20200016821F00701019A114363
:1094E0000160006800F007000199884204D0FFE79E
:1094F00001208DF80F0044E0FFE702980078400754
:1095000000280CD5FFE741F20401C4F2020108680B
:1095100020F4E060029AD26810430860FFE70298E6
:109520000078000700280DD5FFE741F20401C4F2DE
:109530000201086820F46050029A126940EAC200F1
:109540000860FFE700F04CF841F20401C4F20201A8
:109550000968C9B20A094AF6EE71C0F60001895CD1
:10956000C84040F20401C2F20001086040F20C0061
:10957000C2F200000068FFF751FE00208DF80F00D6
:10958000FFE79DF80F0004B080BD000040F204002A
:10959000C2F200000068704780B5FFF7F7FF41F2A4
:1095A0000401C4F202010968C1F302224AF6FE7105
:1095B000C0F60001895CC84080BD000080B5FFF79F
:1095C000E5FF41F20401C4F202010968C1F3C222BD
:1095D0004AF6FE71C0F60001895CC84080BD0000FB
:1095E00086B000200590049003900290019041F213
:1095F0000400C4F2020000680590059800F00C0019
:109600000146009100283FD0FFE70098042804D0CD
:10961000FFE70098082806D037E041F20020C0F2AA
:109620007A00019037E00598C0F383414BF20600C1
:10963000C0F60000405C02909DF81600C007C0B163
:10964000FFE741F20400C4F202000068C0F34041A9
:109650004BF21600C0F60000405C0490029841F204
:109660000021C0F27A0148430499B0FBF1F0039065
:1096700007E0029840F60011C0F23D014843039014
:10968000FFE70398019006E0FFE741F20020C0F2F7
:109690007A000190FFE7019806B0704780B586B068
:1096A0000490049820B9FFE701208DF817002EE3FD
:1096B00004980078C007002800F0AE80FFE741F270
:1096C0000400C4F20200006800F00C00042813D06B
:1096D000FFE741F20400C4F20200006800F00C0051
:1096E00008281BD1FFE741F20400C4F20200006821
:1096F000C003002812D5FFE741F20000C4F20200C7
:1097000000688003002808D5FFE70498406820B966
:10971000FFE701208DF81700F9E27CE0FFE70498ED
:109720004068B0F5803F09D1FFE741F20001C4F283
:109730000201086840F48030086032E00498406814
:1097400068B9FFE741F20001C4F20201086820F4A1
:1097500080300860086820F48020086020E00498C9
:109760004068B0F5A02F0DD1FFE741F20001C4F22F
:109770000201086840F480200860086840F48030E6
:1097800008600CE041F20001C4F20201086820F414
:1097900080300860086820F480200860FFE7FFE759
:1097A000FFE7FFE704984068D0B1FFE7FFF70EFD41
:1097B0000390FFE741F20000C4F20200006880035A
:1097C00000280CD4FFE7FFF701FD0399401A652834
:1097D00004D3FFE703208DF8170098E2EAE719E0C9
:1097E000FFF7F4FC0390FFE741F20000C4F202002F
:1097F0000068800300280CD5FFE7FFF7E7FC03991A
:10980000401A652804D3FFE703208DF817007EE295
:10981000EAE7FFE7FFE7FFE7049800788007002802
:1098200040F18D80FFE741F20400C4F202000068BD
:1098300010F00C0F13D0FFE741F20400C4F2020055
:10984000006800F00C00082829D1FFE741F204006D
:10985000C4F202000068C003002820D4FFE741F2F0
:109860000000C4F2020000688007002809D5FFE765
:1098700004980069012804D0FFE701208DF8170043
:1098800045E241F20001C4F20201086820F0F8004C
:10989000049A526940EAC2000860FFE74EE004986B
:1098A000006958B3FFE70021C4F24221012008609B
:1098B000FFF78CFC0390FFE741F20000C4F20200C6
:1098C0000068800700280CD4FFE7FFF77FFC0399AE
:1098D000401A032804D3FFE703208DF8170016E28F
:1098E000EAE741F20001C4F20201086820F0F80042
:1098F000049A526940EAC20008601EE00021C4F2E6
:10990000422100200860FFF761FC0390FFE741F26D
:109910000000C4F202000068800700280CD5FFE7B1
:10992000FFF754FC0399401A032804D3FFE70320F0
:109930008DF81700EBE1EAE7FFE7FFE7FFE70498A0
:1099400000780007002848D5FFE70498806918B31D
:10995000FFE740F28041C4F2422101200860FFF796
:1099600035FC0390FFE741F22400C4F202000068D6
:10997000800700280CD4FFE7FFF728FC0399401A62
:10998000032804D3FFE703208DF81700BFE1EAE7BF
:10999000012000F05BFC1FE040F28041C4F2422154
:1099A00000200860FFF712FC0390FFE741F224005B
:1099B000C4F202000068800700280CD5FFE7FFF71B
:1099C00005FC0399401A032804D3FFE703208DF810
:1099D00017009CE1EAE7FFE7FFE7049800784007FB
:1099E000002840F1D880FFE700208DF8070041F201
:1099F0001C00C4F202000068C000002813D4FFE776
:109A0000FFE741F21C00C4F20200016841F08051FE
:109A10000160006800F0805000900098FFE701208E
:109A20008DF80700FFE747F20000C4F2000000686D
:109A3000C005002822D4FFE747F20001C4F200016C
:109A4000086840F480700860FFF7C0FB0390FFE7F0
:109A500047F20000C4F200000068C00500280CD4E2
:109A6000FFE7FFF7B3FB0399401A652804D3FFE72C
:109A700003208DF817004AE1EAE7FFE7FFE70498C3
:109A8000C068012809D1FFE741F22001C4F20201B8
:109A9000086840F00100086031E00498C06868B9C7
:109AA000FFE741F22001C4F20201086820F0010042
:109AB0000860086820F0040008601FE00498C0688F
:109AC00005280DD1FFE741F22001C4F20201086828
:109AD00040F004000860086840F0010008600CE0F5
:109AE00041F22001C4F20201086820F00100086080
:109AF000086820F004000860FFE7FFE7FFE7FFE7E2
:109B00000498C068E0B1FFE7FFF760FB0390FFE750
:109B100041F22000C4F202000068800700280ED441
:109B2000FFE7FFF753FB0399401A41F2893188425E
:109B300004D3FFE703208DF81700E8E0E8E71BE017
:109B4000FFF744FB0390FFE741F22000C4F202005C
:109B50000068800700280ED5FFE7FFF737FB039961
:109B6000401A41F28931884204D3FFE703208DF87F
:109B70001700CCE0E8E7FFE79DF80700012809D1CE
:109B8000FFE741F21C01C4F20201086820F0805096
:109B90000860FFE7FFE70498C069002800F0B38081
:109BA000FFE741F20400C4F20200006800F00C007C
:109BB000082800F08280FFE70498C06902285CD181
:109BC000FFE76021C4F2422100200860FFF7FEFA9F
:109BD0000390FFE741F20000C4F202000068800138
:109BE00000280CD5FFE7FFF7F1FA0399401A032884
:109BF00004D3FFE703208DF8170088E0EAE7049814
:109C0000006AB0F5803F0CD1FFE741F20401C4F2D5
:109C10000201086820F40030049A9268104308603A
:109C2000FFE741F20401C4F20201086820F4741055
:109C3000049B1A6A5B6A1A43104308606021C4F2ED
:109C4000422101200860FFF7C1FA0390FFE741F2CB
:109C50000000C4F202000068800100280CD4FFE775
:109C6000FFF7B4FA0399401A032804D3FFE703204F
:109C70008DF817004BE0EAE71EE06021C4F24221B4
:109C800000200860FFF7A2FA0390FFE741F200000E
:109C9000C4F202000068800100280CD5FFE7FFF73E
:109CA00095FA0399401A032804D3FFE703208DF89F
:109CB00017002CE0EAE7FFE724E00498C0690128D8
:109CC00004D1FFE701208DF8170020E041F20400E5
:109CD000C4F2020000680290029800F480300499F7
:109CE000096A884208D1FFE7029800F470100499CD
:109CF000496A884204D0FFE701208DF8170006E08A
:109D0000FFE7FFE7FFE700208DF81700FFE79DF86A
:109D1000170006B080BD000080B582B001900198A8
:109D200000F0B4FA02B080BD80B582B00090009817
:109D300020B9FFE701208DF8070040E00098806916
:109D400008B1FFE700E0FFE7009890F8410040B954
:109D5000FFE70099002081F84000009800F034F8F7
:109D6000FFE70099242081F8410000980168C86845
:109D700020F40050C860009800F038FB009801689B
:109D8000086920F49040086100980168486920F053
:109D90002A00486100980168C86840F40050C86013
:109DA000009900204864009A202182F84110009A0E
:109DB00082F84210009948638DF80700FFE79DF88C
:109DC000070002B080BD000080B58AB00990002075
:109DD00008900790069005900998006843F60001E6
:109DE000C4F20101884239D1FFE7FFE741F21800D0
:109DF000C4F20200016841F480410160006800F48F
:109E0000804004900498FFE7FFE741F21800C4F295
:109E10000200016841F004010160006800F00400E4
:109E200003900398FFE74FF400700590022006901E
:109E30000320089040F60000C4F20100019005A93B
:109E40000291FEF7EBFF019802994FF480620592B0
:109E5000002206920792FEF7E1FFFFE70AB080BDFD
:109E600080B58AB008900791ADF81A2005930020BC
:109E70000290089890F84100202840F08180FFE788
:109E8000079820B1FFE7BDF81A0020B9FFE70120CD
:109E90008DF8270078E0089900204864089921206F
:109EA00081F84100FFF792F90290BDF81A00089975
:109EB0008884BDF81A000899C88408988068B0F5AD
:109EC000805F09D1FFE70898006928B9FFE7002003
:109ED00004900798039004E00798049000200390F2
:109EE000FFE7FFE70898C08C78B3FFE70898029B6C
:109EF00005996A4611608021002200F0D5FA40B130
:109F0000FFE70899202081F8410003208DF8270001
:109F10003AE0049858B9FFE7039800886FF35F2090
:109F200008990968486003980230039008E0049893
:109F30000078089909684860049801300490FFE7A8
:109F40000899C88C0138C884CCE70898029B059909
:109F50006A4611604021002200F0A6FA40B1FFE7F6
:109F60000899202081F8410003208DF827000BE09C
:109F70000899202081F8410000208DF8270003E097
:109F800002208DF82700FFE79DF827000AB080BD6A
:109F9000FFE7FEE780B58CB002A800902821FEF70D
:109FA000EAF8009900220792089201200990029293
:109FB00003920492059206920A9040F21000C2F2B7
:109FC00000000190FEF794FB0198FEF7BFFE0CB075
:109FD00080BD000080B586B00590049140F210006D
:109FE000C2F2000000210191FEF740FC01460198F9
:109FF000049A11708DF80F00FFE79DF80F00049987
:10A000000978884223DAFFE705989DF80F1001EBE5
:10A01000C10100EB8100029005989DF80F1001EB43
:10A02000C10100EB81002421FEF7A5F8029A02F19C
:10A030001C0340F21000C2F200000021FEF740FCB9
:10A04000FFE79DF80F0001308DF80F00D5E706B04F
:10A0500080BD000080B582B040F21000C2F2000066
:10A06000019046F20041C4F20001016024214160E8
:10A0700000218160C1604FF4803202614FF4801290
:10A0800042610176012242768276C176017741777C
:10A09000FEF720FD18B1FFE7FEF722FBFFE702B055
:10A0A00080BD000080B590B000200F900E900D9004
:10A0B0000C90FFE741F21800C4F20200016841F081
:10A0C00040010160006800F040000B900B98FFE732
:10A0D000FFE741F21800C4F20200016841F01001EC
:10A0E0000160006800F010000A900A98FFE7FFE79F
:10A0F00041F21800C4F20200016841F0040101605D
:10A10000006800F0040009900998FFE7FFE741F2BA
:10A110001800C4F20200016841F008010160006803
:10A1200000F0080008900898FFE741F60000C4F22C
:10A13000010001902021079101220292FFF72EF8E1
:10A140000799029A40F60040C4F201000590FFF71B
:10A1500025F80198079A02990C920D91002103911C
:10A160000E91022104910F910CA90691FEF756FE63
:10A17000DDF808C0039B049A05980699DDF81CE0F9
:10A18000CDF830E0CDF834C00E930F92FEF746FEC6
:10A1900010B080BD80B582B040F23800C2F200003D
:10A1A000019043F60001C4F2010101604FF4E13176
:10A1B000416000218160C16001610C2242618161C6
:10A1C000C161FFF7B1FD18B1FFE7FEF789FAFFE7BC
:10A1D00002B080BDFFE7FEE7FFE7FEE788B007902B
:10A1E00006910592079800F0070004900498C0F1CA
:10A1F0000700052803D3FFE70420019004E004983A
:10A20000C0F107000190FFE7019803900498043023
:10A21000062803D8FFE70020009003E004980338E5
:10A220000090FFE70098029006980399012202FA35
:10A2300001F101390840029B984005999A40013A82
:10A240001140084308B070477047000082B0019089
:10A25000019840F20401C2F200010968C90844F6FD
:10A26000D352C1F26202A1FB022189094843009046
:10A27000FFE700BFFFE70098411E00910028F8D1DA
:10A28000FFE702B0704700007047000080B582B061
:10A29000009000980138B0F1807F03D3FFE70120E0
:10A2A000019019E0009801384EF21401CEF200013D
:10A2B00008604FF0FF300F2100F06EF94EF21801E8
:10A2C000CEF20001002008604EF21002CEF2000231
:10A2D000072111600190FFE7019802B080BD0000E6
:10A2E00080B5FEF779FF80BD80B590B006A80090DC
:10A2F0002821FDF740FF0098002305930493039362
:10A3000002930193012206924FF480310791089342
:10A310000A9202220D920E914FF4E0110F91FFF775
:10A32000BDF918B1FFE7FEF7DBF9FFE70F20019059
:10A3300002210291002003904FF480620492059064
:10A3400001A8FEF7F7FF18B1FFE7FEF7C9F9FFE72D
:10A3500010B080BD7047000084B00390FFE7FFE7B6
:10A360000398006850E8030F20F490700290FFE714
:10A3700002990398026842E803100028F0D1FFE731
:10A38000FFE7FFE7FFE70398006850E8050F20F0BC
:10A3900001000190FFE701990398026842E8051067
:10A3A0000028F0D1FFE7FFE70398006B012814D1E4
:10A3B000FFE7FFE7FFE70398006850E8030F20F08E
:10A3C00010000090FFE700990398026842E803102C
:10A3D0000028F0D1FFE7FFE7FFE70399202081F88D
:10A3E000420003990020086304B0704780B584B030
:10A3F000039003980068006920F44050039A1168A4
:10A40000D26810430861039988680A694969104352
:10A410000843029003980068C06841F20C618843C9
:10A420000299084303990968C86003980068406965
:10A4300020F44070039A11689269104348610398B0
:10A44000006843F60001C4F20101884204D1FFE72D
:10A45000FFF7B4F8019003E0FFF79EF80190FFE7E3
:10A46000019819214843039A116852689200B0FB81
:10A47000F2FC48F21F52C5F2EB12ACFB023043096A
:10A48000642003FB10CC322000EB0C10A0FB020276
:10A49000F02000EA521000EB0310C2F34312104404
:10A4A000886004B080BD000080B586B0DDF820C0B3
:10A4B000049003918DF80B200193FFE70498006846
:10A4C000006803990840401AB0FA80F040099DF8EE
:10A4D0000B1088424DD1FFE708980130002847D083
:10A4E000FFE7FEF773FE0199401A0899884203D8E6
:10A4F000FFE7089820B9FFE703208DF817003CE03C
:10A5000004980068C0684007002830D5FFE703982A
:10A5100080282CD0FFE70398402828D0FFE7049834
:10A520000068006800F008010120B0EBD10F1DD1D8
:10A53000FFE7FFE7002000900498006800680090A3
:10A5400004980068406800900098FFE70498FFF7BF
:10A5500003FF049908204864FFE70499002081F86C
:10A560004000FFE701208DF8170006E0FFE7FFE756
:10A57000A4E700208DF81700FFE79DF8170006B04C
:10A5800080BD0000FFE7FEE74EF60C50CEF2000063
:10A590000068C0F30220704782B08DF80700009178
:10A5A0009DF9070000280AD4FFE7009800019DF9F3
:10A5B00007104EF20042CEF2000288540BE00098E1
:10A5C00000019DF8071001F00F014EF61452CEF273
:10A5D00000028854FFE702B07047000083B0029089
:10A5E000029800F0070000904EF60C51CEF20001E8
:10A5F0000868019001984FF6FF0210400190019801
:10A60000009A40EA02200022C0F2FA521043019060
:10A610000198086003B0704780B582B00190009146
:10A6200040F23800C2F2000001A901224FF47A730F
:10A63000FFF716FC019802B080BD000080B5A0B005
:10A64000002001901E90EFF3108072B61F904EF61E
:10A650000851CEF2000148F20000C0F60000086088
:10A6600062B6FEF7C7FDFFF73FFEFFF71BFDFFF7E2
:10A67000F1FCFFF78FFDFFF78DFC03A86C21FDF7C0
:10A680007AFD01988DF80B00FFE703A80DF10B018F
:10A69000FFF7A0FC00208DF80A00FFE79DF80A00F4
:10A6A0009DF80B10884219DAFFE79DF80A0000EBCD
:10A6B000C00203A901EB820051F82210026900F1E7
:10A6C0001C034BF21800C0F6000000F017F8FFE77B
:10A6D0009DF80A0001308DF80A00DFE700208DF8B0
:10A6E0000B0041F60000C4F201002021FEF742FDFC
:10A6F0004FF4C870FEF770FBC7E700000FB4054BBE
:10A7000010B503A9044A029800F0DAF810BC5DF80D
:10A7100014FB000019A600080000002002E008C891
:10A72000121F08C1002AFAD170477047002001E0CB
:10A7300001C1121F002AFBD1704700002DE9FF5F05
:10A7400082B00021DDE90430020DDDF840B00343A2
:10A7500018D044F61050A2F2FF324243151411985B
:10A7600001281FD0A5EB0B00401C5FEA000A4FF048
:10A7700000064E4FDFF83891B046504615D5CAF165
:10A78000000413E0119801244AA3012801D16FEAC3
:10A790000B010298119AC0E90031C0E9024206B0EB
:10A7A000BDE8F09FCBF10000DFE704460021404AFE
:10A7B000491842EB0450CDE9001012E0E00707D041
:10A7C00032463B4640464946FDF7CEFD8046894627
:10A7D00032463B4610461946FDF7C6FD06460F4673
:10A7E0006410002CEAD1DDE90401DDE90023BAF1AF
:10A7F000000F06DAFDF7B8FD42464B46FDF7B4FD03
:10A8000005E0FDF723FE42464B46FDF71FFE0446DA
:10A810000E460022284BFDF7A1FE03D84FF0FF3073
:10A82000014607E00022254B20463146FDF7F5FCA6
:10A83000FDF77BFE102409E0002C0ADB0A2200232E
:10A84000FDF7BAFC039B30321A55641E50EA010230
:10A85000F2D1641C039AC4F111031444119A012A21
:10A8600003D0012208430DD10AE0084304D00020A0
:10A870004FF0110B119072E7A3EB0B056D1E0DE06D
:10A880005B4504DD4FF0000205F1010504E003DA49
:10A890004FF00002A5F10105002AECD002981199B1
:10A8A000C0E90231C0E9004579E70000000014402A
:10A8B0000000F03F300000000000F0430000E03FE7
:10A8C0002DE9FF4F95B09B468946064600250FE2CD
:10A8D000252877D100242746F84A0121059400E075
:10A8E000044316F8013F203B01FA03F01042F7D170
:10A8F00030782A2811D06FF02F033078A0F1300281
:10A90000092A16D8059A44F0020402EB820203EBEE
:10A9100042021044761C0590EFE759F8042B05928B
:10A92000002A03DA504244F40054059044F0020433
:10A93000761C30782E2816D116F8010F44F0040446
:10A940002A280DD06FF02F023078A0F13003092BA8
:10A9500009D807EB870302EB4303C718761CF3E71C
:10A9600059F8047B761C30786C280FD006DC4C2814
:10A9700017D068280DD06A2814D104E0742810D0AC
:10A980007A280FD10DE044F400140AE044F4801456
:10A9900001E044F440147278824202D104F580143C
:10A9A000761C761C307866280BD013DC582877D0BC
:10A9B00009DC002875D04528F6D04628F4D0472871
:10A9C0001AD19DE118E0632835D0642879D0652834
:10A9D00012D195E1702873D008DC6728F1D069287E
:10A9E0006FD06E280DD06F2806D1B5E073282CD01B
:10A9F000752875D0782874D05A46179990476D1CE1
:10AA000075E1C4F30250022809D003280DD0D9F80B
:10AA1000001004280DD00D6009F1040967E1D9F890
:10AA20000010EA17C1E90052F6E7D9F800100D80CE
:10AA3000F2E70D70F0E719F8041B8DF80010002004
:10AA40008DF80100EA46012003E059F804AB4FF00D
:10AA5000FF3061074FF0000102D40DE008F1010161
:10AA60008846B9420FDA8045F8DB1AF80810002949
:10AA7000F4D108E008F1010188468142FADB1AF8B6
:10AA800008100029F6D105985B46A0EB080721467F
:10AA90003846179A00F094FA284400EB080507E0BE
:10AAA0004DE029E10DE01AF8010B5A46179990473D
:10AAB000B8F10108F7D25B4621463846179A13E1F0
:10AAC00042E00A220092C4F302524FF0000A022A26
:10AAD00008D059F804CB032A4FEAEC710AD00DE0F4
:10AAE00029E02AE009F1070121F00702F2E802C19A
:10AAF000914609E00FFA8CFC4FEAEC71042A03D16D
:10AB00004FFA8CFC4FEAEC71002907DA0A46002163
:10AB1000DCF1000C61EB02012D2202E0220504D5DC
:10AB20002B228DF80420012203E0E20701D020222D
:10AB3000F7E7904659E00A2102E010220DE01021CB
:10AB40004FF0000A00910BE010224FF0000A44F091
:10AB500004040827009203E008224FF0000A009244
:10AB6000C4F30252022A05D059F804CB0021032A6B
:10AB700008D009E009F1070121F00702F2E802C15B
:10AB8000914605E01FFA8CFC042A01D10CF0FF0C61
:10AB90004FF00008220728D5702806D0009B83F0CC
:10ABA000100353EA0A0305D00EE040228DF804207A
:10ABB000012208E05CEA010206D030228DF8042070
:10ABC0008DF8050002229046009B83F0080353EAAB
:10ABD0000A030AD15CEA010201D1620705D53022DD
:10ABE0008DF804204FF001087F1E582804D034A0AF
:10ABF00003900EA802900DE036A0F9E75346604698
:10AC0000009AFDF7D9FA84460398825C0298401EA8
:10AC1000029002705CEA0100F0D1029806A9081ABD
:10AC200000F1200A600702D524F4803400E00127F7
:10AC3000574502DDA7EB0A0000E0002000EB0A0107
:10AC4000009005984144401A0590E00306D45B4605
:10AC50002146179A059800F0B3F90544002706E04D
:10AC600001A85A46C05D179990476D1C7F1C474547
:10AC7000F6DBE0030CD55B462146179A059800F0F9
:10AC80009FF9054404E030205A46179990476D1CFF
:10AC90000099481E00900029F5DC08E0029802990E
:10ACA0005A460078491C0291179990476D1CBAF1D9
:10ACB0000001AAF1010AF1DC65E1000009280100A8
:10ACC0003031323334353637383961626364656622
:10ACD00000000000303132333435363738394142E4
:10ACE000434445460000000000F058F90544761C36
:10ACF000307800287FF4ECAD19B02846BDE8F08F1D
:10AD0000620700D4062709F1070222F0070CFCE8CD
:10AD10000223E14603F000485FEA080C02D00FF27C
:10AD2000702C0DE05FEA045C02D50FF2682C07E09E
:10AD30005FEAC47C02D00FF2602C01E0AFF2700C2D
:10AD40004FF0FF3823F00043CDF850C065280CD0F9
:10AD500006DC452809D046281DD047283DD13DE0D6
:10AD6000662818D067287ED138E00021112F01DB3A
:10AD7000112000E0781CCDE9000106A90EA8FFF71C
:10AD8000DDFCDDE90F010E9A03910021009207F12D
:10AD9000010A04914DE04FF000400097CDE9011009
:10ADA00006A90EA8FFF7CAFCDDE90F0203920E9B6D
:10ADB00011990022DDF80CA00093049211B9791CBE
:10ADC00000EB010AB7EB0A0004D4C0F1FF3007F131
:10ADD000010A0490AAEB0700019044E0012F00DA79
:10ADE00001270021112F01DD112000E03846CDE9B7
:10ADF000000106A90EA8FFF7A1FCDDE90F010E9ADC
:10AE00000391002104910092BA4621070CD40399C2
:10AE1000514500DA8A46BAF1010F05DD009AAAF120
:10AE20000101515C302908D0B84202DA10F1040F58
:10AE300006DA0121CDE9011015E0AAF10101E9E7E7
:10AE4000002805DC049901440491AAEB000102E00A
:10AE5000411C514500DD8A460499401A401C01906E
:10AE60004FF000400290200704D40198504501DBC8
:10AE7000CDF8048000208DF84F0002980DF14F07A7
:10AE8000B0F1004F25D02B200E9002984FF0020811
:10AE900000280CDA404202902D200E9007E00A2193
:10AEA0000298FDF773F93031029007F8011DB8F1EF
:10AEB0000001A8F10108F2DC02980028EFD1791E08
:10AEC0000E980870307800F0200040F0450007F838
:10AED000020D12A8C01B00F107081498007800B1F9
:10AEE000012000EB0A01019801EBE0710598414453
:10AEF000401A401E0590E00306D45B462146179A8F
:10AF0000059800F05DF805441498007818B15A4689
:10AF1000179990476D1CE00324D55B462146179A8C
:10AF2000059800F04DF805441CE00498002807DB64
:10AF3000DDE90301884203DD0098405C179901E0D8
:10AF4000179930205A469047049805F10105401C96
:10AF500004900198401E019004D12E205A46179962
:10AF600090476D1CBAF10001AAF1010ADDDC05E091
:10AF700017F8010B5A46179990476D1CB8F100015C
:10AF8000A8F10108F4DC5B462146179A0598ABE668
:10AF90002D0000002B000000200000002DE9F041F2
:10AFA000044600251E461746880404D405E03946A9
:10AFB0002020B0476D1C641EF9D52846BDE8F081FD
:10AFC0002DE9F041044600251E469046C80301D5F0
:10AFD000302700E02027880404D505E041463846A4
:10AFE000B0476D1C641EF9D52846BDE8F08100000D
:10AFF0000000000000000102030406070809000029
:10B0000000000102030402030405060708090A0BF5
:10B010000C0D0E0F1010010249443A2025642C201B
:10B02000444C433A2025642C20446174613A202525
:10B03000730A000058B00008000000201000000053
:10B040001CA7000868B00008100000207804000069
:10B050002CA70008000000000000000000127A0089
:08B060000100000010000000D7
:04000005080081313D
:00000001FF
