:020000040800F2
:10800000D8450020458100089DCB0008D5BF000859
:1080100099CB0008D58B000855D40008000000005B
:108020000000000000000000000000009DCE0008DD
:10803000D98B0008000000000DCC0008F5CE000828
:108040005F8100085F8100085F8100085F81000890
:108050005F8100085F8100085F8100085F81000880
:108060005F8100085F8100085F8100085F81000870
:108070005F8100085F8100085F8100085F81000860
:108080005F8100085F8100085F8100085F81000850
:108090005F8100085F8100085F8100085F81000840
:1080A0005F8100085F8100085F8100085F81000830
:1080B0005F8100085F8100085F8100085F81000820
:1080C0005F8100085F8100085F8100085F81000810
:1080D0005F81000845D400085F8100085F810008C7
:1080E0005F8100085F8100085F8100085F810008F0
:1080F0005F8100085F8100085F8100085F810008E0
:108100005F8100085F8100085F8100085F810008CF
:108110005F8100085F8100085F8100085F810008BF
:108120005F8100085F8100085F8100085F810008AF
:10813000DFF80CD000F04EFA0048004765D5000883
:10814000D84500200648804706480047FEE7FEE77E
:10815000FEE7FEE7FEE7FEE7FEE7FEE7FEE7FEE7F7
:1081600069CF00083181000840EA01039B0703D072
:1081700009E008C9121F08C0042AFAD203E011F866
:10818000013B00F8013B521EF9D27047D2B201E028
:1081900000F8012B491EFBD270470022F6E710B50C
:1081A00013460A4604461946FFF7F0FF204610BD65
:1081B00030B505462A460B4612F8010B13F8014B61
:1081C00008B1A042F8D01CB1002802D06D1CF1E724
:1081D000284630BD30B50B46014600202022012440
:1081E00009E021FA02F59D4205D303FA02F5491B85
:1081F00004FA02F52844151EA2F10102F1DC30BD9B
:108200002DE9F05F0546002092469B4688460646CB
:10821000814640241BE0284641464746224600F05E
:1082200000FA53465A46C01A914110D311461846D7
:10823000224600F0E7F92D1A67EB01084F46224667
:108240000120002100F0DEF917EB00094E41201E4D
:10825000A4F10104DFDC484631462A464346BDE826
:10826000F09F2DE9FE4F804681EA0300C00F0C46C7
:10827000009021F0004123F00045B8EB0200A94135
:1082800005D24046214690461C460B46024623F046
:108290000040104347D0270DC7F30A00C3F30A512B
:1082A0000290401A019040286BDAC3F3130040F4A7
:1082B000801B0098924620B10023D2EB030A63EBA7
:1082C0000B0B01985946C0F14002504600F09AF954
:1082D00006460D4650465946019A00F0B2F910EB99
:1082E00008006141002487EA115284EAE7731A43C7
:1082F00040D0009A62B3019A012A4FEA075215DC76
:10830000001B61EB02014FF0004202EA0752CDE987
:108310000042001C41F5801132462B4600F0B2F9B4
:1083200003B0BDE8F08F40462146F9E7001B61EB42
:108330000201001C41F5801300185B412018A2F5D2
:10834000001747EB030140EAD570B6196D4111E003
:108350006D084FEA360645EAC0754FEA0752001B22
:1083600061EB0201001C41F5801149084FEA300021
:108370000019514132462B4603B0BDE8F04F00F0E2
:1083800072B90098012240000023D0EB020263EB97
:10839000E073009821464FEAE074B8EB000061EB0F
:1083A0000401E9E783F000435BE781F0004158E70F
:1083B0002DE9FE4F81EA030404F0004421F000415E
:1083C00000944FF0000B23F0004350EA01045ED00C
:1083D00052EA03045BD0C3F30A54C1F30A552C4498
:1083E000A4F2F3340194A0FB0254C1F3130141F44D
:1083F0008011C3F3130343F4801301FB024400FB19
:10840000034E840A970A44EA815447EA8357A4FB3F
:10841000076802958D0A05FB07854FEA932C04FB3C
:108420000C542705029D4FEA065847EA1637B5EB6C
:1084300008056EEB070C870E920E47EA811742EA99
:108440008312A7FB0201B6EB0B0164EB00042B0DBA
:1084500043EA0C335E1844EB1C50DA465146E7FB06
:108460000201C5F313044FEA0B3343EA14534FEAF6
:108470000432019C43EA0603A4F10C040294009C1C
:10848000CDE900B400F0FEF803B0BDE8F08F0020A5
:108490000146F9E72DE9F04D81EA030404F0004BB1
:1084A00021F0004514464FF0000A23F0004150EA45
:1084B000050220D054EA01021DD0C5F30A57024636
:1084C000C5F31303C1F31300C1F30A5640F480153A
:1084D00043F48013A7EB0608101BD64608F2FD38BC
:1084E00073EB050002D308F1010801E092185B412B
:1084F000B8F1000F03DA00200146BDE8F08D00203E
:108500004FF48011064684460EE0171B73EB0507F7
:1085100005D3121B63EB050306434CEA010C490823
:108520004FEA300092185B4150EA0107EDD152EA60
:10853000030012D082EA040083EA0501084305D053
:10854000101BAB4106D20122002306E000224FF0AF
:10855000004302E06FF0010253101AEB06004CEBEF
:10856000085110EB0A0041EB0B01BDE8F04D00F0A3
:108570007AB8C1F30A52C1F3130140F2FF3341F458
:1085800080119A4202DA00200146704740F23343DC
:108590009A42A2F2334202DC524200F042B800F0AA
:1085A00031B8000030B5041E71F1000404DB4FF057
:1085B0000044404264EB0101141E73F1000405DB2A
:1085C0001C464FF00043524263EB0403994208BF3C
:1085D000904230BD1CB509480090094801900546FD
:1085E000009C06E0E06840F0010394E8070098472B
:1085F0001034AC42F6D3FFF79FFD000070DF000897
:1086000090DF0008202A04DB203A00FA02F1002063
:1086100070479140C2F1200320FA03F319439040C0
:108620007047202A04DB203A21FA02F0002170472B
:1086300021FA02F3D040C2F12002914008431946CA
:108640007047202A06DBCB17203A41FA02F043EAB2
:10865000E07306E041FA02F3D040C2F120029140FB
:1086600008431946704710B5141E73F1000408DA68
:10867000401C41F1000192185B411A4301D120F0E6
:10868000010010BD2DE9F04D92469B4611B1B1FAA3
:1086900081F202E0B0FA80F220329046FFF7B2FF9A
:1086A00004460F4640EA0A0041EA0B0153465A4687
:1086B000084313D0114653EA010019D0C8F1400213
:1086C0005046FFF7AEFF05460E4650465946424615
:1086D000FFF798FF084305D0012004E02046394603
:1086E000BDE8F08D0020054346EAE0762C43374391
:1086F0000A986305E40AA0EB08000022FD0A44EA98
:1087000047540A3002D500200146E9E70105101957
:108710006941DDE9084500196941BDE8F04DA2E76E
:1087200080B586B00590ADF8121005980390BDF89D
:10873000120003308008029044F2AC00C2F2000044
:108740000268916841F0010191600399029A00F07A
:10875000A5FE0190019806B080BD000080B586B0EE
:1087600041F60000C4F20100009020210391002294
:10877000049201F095FA039940F60040C4F201001A
:1087800002900122019201F08BFAC820059001F0BD
:10879000B9F80098019A039901F082FA02980399B6
:1087A000049A01F07DFA059801F0ACF806B080BD9E
:1087B00080B586B044F27E00C2F20000018802203B
:1087C00000EB1130ADF8160000208DF81500FFE722
:1087D0009DF81500BDF8161088420CDAFFE79DF8E9
:1087E0001510002003F0F6FFFFE79DF8150001309B
:1087F0008DF81500ECE744F2D011C2F200010191AE
:1088000000200290087010224A708870C87044F2EC
:108810007E02C2F2000213880B7152784A7188718D
:10882000C871082204F04CF80298ADF81200ADF8B7
:108830001000FFE7BDF8120044F27E01C2F2000111
:108840000988884231DAFFE744F27E00C2F2000074
:108850000088BDF81210401AB0F5807F05DBFFE7F5
:108860004FF48070ADF810000AE044F27E00C2F2CE
:1088700000000088BDF81210401AADF81000FFE7A4
:10888000BDF8122002F5805040F21001C2F2000142
:108890001144BDF8102004F013F8BDF81010BDF815
:1088A00012000844ADF81200C4E700208DF80E0055
:1088B000ADF80C0001208DF80C005A208DF80D0049
:1088C0006B208DF80E00102003A9032203F0BCFEDC
:1088D0000A2001F017F84DF65270C0F6000004F0BF
:1088E00069FE44F2C811C2F200010520087006B00A
:1088F00080BD000080B584B044F21000C2F20000D8
:1089000044F27C01C2F2000103F032FE00208DF837
:108910000F00FFE79DF80F0044F27C01C2F2000156
:108920000978884250DAFFE79DF80F0000EBC0019C
:1089300044F21000C2F2000000EB8100C069029016
:1089400044F27E00C2F20000018840F21000C2F240
:108950000000FFF7E5FE01900298019988420DD1D1
:10896000FFE74DF64170C0F6000004F023FE44F22C
:10897000C811C2F20001042008701EE04DF63070EC
:10898000C0F6000004F016FE40F21000C2F2000033
:108990004FF48041FFF701FC44F27E01C2F2000176
:1089A0000020088044F28001C2F20001086044F215
:1089B000C811C2F200010870FFE7FFE79DF80F0041
:1089C00001308DF80F00A5E704B080BD80B582B0FE
:1089D000FFE70020019044F26010C2F2000001683D
:1089E000096801910068406801900198FFE7FFE77E
:1089F0000020009044F26010C2F200000168096893
:108A000000910068406800900098FFE744F2601011
:108A1000C2F2000044F2A811C2F20001202202F0CA
:108A2000C3FE03F081FD02B080BD000080B584B0BC
:108A300044F21000C2F2000044F27C01C2F20001D4
:108A400003F096FD00208DF80F00FFE79DF80F0062
:108A500044F27C01C2F200010978884235DAFFE76E
:108A600001F036F944F28001C2F20001086044F2DC
:108A70007E00C2F200000190018840F21000C2F2B4
:108A8000000008449DF80F1001EBC10244F21001F0
:108A9000C2F20001029101EB820202F11C01126993
:108AA000FFF762FB019902989DF80F2002EBC202CA
:108AB00000EB82000269088810440880FFE79DF8F7
:108AC0000F0001308DF80F00C0E744F27C01C2F2C4
:108AD00000010020087044F28000C2F2000000682B
:108AE00008B3FFE744F28000C2F20000006800F51E
:108AF000FA60009001F0ECF801460098884212D22A
:108B0000FFE744F27E00C2F2000001884DF60670D5
:108B1000C0F6000004F04EFD44F2C811C2F200019C
:108B200003200870FFE704B080BD000080B54DF65B
:108B30006871C0F600010020032203F059FD44F2E1
:108B4000C811C2F200010220087080BD80B582B059
:108B500044F2C810C2F200000078014601910528D5
:108B600035D80199DFE801F003062326292CFFF709
:108B7000F5FD2DE04DF62570C0F6000004F01AFD5D
:108B80004DF61A70C0F6000004F014FDFFF7CEFF9A
:108B900040F21000C2F200004FF48041FFF7FDFAEE
:108BA00044F27E01C2F200010020088010E0FFF7CD
:108BB0003DFF0DE0FFF79EFE0AE0FFF7F9FD07E03D
:108BC0004FF47A7000F09EFE01F0DCFB00E0FFE75E
:108BD00002B080BDFFE7FEE77047000081B0EFF311
:108BE000108072B60090FFE7FEE7000088B00690A4
:108BF000059104920393069890F820008DF80700E1
:108C000006980068806800900598806808B9FFE7BA
:108C100000E0FFE79DF80700012806D0FFE79DF878
:108C20000700022840F08080FFE79DF8030040071E
:108C300000280CD4FFE79DF803000007002806D4A5
:108C4000FFE79DF80300C006002864D5FFE7009801
:108C5000C0F30160029002990120884003990860E6
:108C60000598806868B9FFE705980168C06840EA20
:108C7000415006990968029A01EB0211C1F880017E
:108C80000EE005994A688868C96840EAC20008434E
:108C900006990968029A01EB0211C1F88001FFE709
:108CA0000598006906990968029A01EB0211C1F85A
:108CB00084010598007D01280CD1FFE70698006823
:108CC000029900EB0111D1F8840140F48070C1F8E1
:108CD0008401FFE70498406806990968029A01EB4D
:108CE0000211C1F88C010498006806990968029A7B
:108CF00001EB0211C1F8880106980068029900EBA7
:108D00000111D1F8800140F00100C1F8800100207C
:108D10008DF81F0011E00699486A40F4001048627F
:108D200001208DF81F0008E00699486A40F4802071
:108D3000486201208DF81F00FFE79DF81F0008B072
:108D40007047000086B00490039104980068019079
:108D5000049890F820008DF803009DF80300012886
:108D600006D0FFE79DF80300022840F09B80FFE754
:108D70000199D1F8000240F00100C1F80002039807
:108D8000406900F01F01012088400290029A019979
:108D9000D1F81C029043C1F81C020398C069F0B9D5
:108DA000FFE7029A0199D1F80C029043C1F80C0236
:108DB000039A9088D168526940EA0140019901EB19
:108DC000C201C1F84002039A10889168526940EAD2
:108DD0000140019901EBC201C1F84402FFE7039889
:108DE000C06901281ED1FFE7029A0199D1F80C024F
:108DF0001043C1F80C02039A90881168526940EA46
:108E00000140019901EBC201C1F84002039A908927
:108E10009168526940EA0140019901EBC201C1F831
:108E20004402FFE70398806940B9FFE7029A01997D
:108E3000D1F804029043C1F8040207E0029A0199B4
:108E4000D1F804021043C1F80402FFE70398006957
:108E500040B9FFE7029A0199D1F814029043C1F892
:108E6000140207E0029A0199D1F814021043C1F8E4
:108E70001402FFE70398006A012808D1FFE7029A6D
:108E80000199D1F81C021043C1F81C02FFE70199B7
:108E9000D1F8000220F00100C1F8000200208DF896
:108EA000170008E00499486A40F4802048620120D5
:108EB0008DF81700FFE79DF8170006B07047000017
:108EC00084B00390029100200190039890F8200054
:108ED0008DF803009DF80300012805D0FFE79DF8F9
:108EE0000300022812D1FFE7029838B9FFE7039880
:108EF0000068C06800F00300019006E00398006875
:108F0000006900F003000190FFE7FFE7019804B05B
:108F10007047000086B00490039102920193049878
:108F200090F820008DF803009DF80300012806D07A
:108F3000FFE79DF80300022840F0E880FFE7039870
:108F400080B9FFE704980068C068800748B9FFE768
:108F50000499486A40F40010486201208DF8170017
:108F6000DDE00FE0049800680069800748B9FFE77A
:108F70000499486A40F40010486201208DF81700F7
:108F8000CDE0FFE704980068039900EB0110D0F8EA
:108F9000B00100F00400029988600298806858B916
:108FA000FFE704980068039900EB0110D0F8B001C6
:108FB000400D029908600AE004980068039900EBEC
:108FC0000110D0F8B001C00802994860FFE704988A
:108FD0000068039900EB0110D0F8B00100F0020026
:108FE0000299C86004980068039900EB0110D0F85A
:108FF000B40100F00F00082804D3FFE7029908200D
:1090000008610BE004980068039900EB0110D0F8A8
:10901000B40100F00F0002990861FFE704980068AE
:10902000039900EB0110D0F8B40180B2000A029954
:10903000886104980068039900EB0110D0F8B4012E
:10904000000C0299486104980068039900EB011034
:10905000D0F8B8010199087004980068039900EBF2
:109060000110D0F8B801000A01994870049800680E
:10907000039900EB0110D0F8B801000C0199887039
:1090800004980068039900EB0110D0F8B801000EB5
:109090000199C87004980068039900EB0110D0F89A
:1090A000BC010199087104980068039900EB011054
:1090B000D0F8BC01000A019948710498006803992E
:1090C00000EB0110D0F8BC01000C019988710498E4
:1090D0000068039900EB0110D0F8BC01000E019963
:1090E000C871039838B9FFE704980168C86840F070
:1090F0002000C86006E004980168086940F020007C
:109100000861FFE700208DF8170008E00499486A1D
:1091100040F48020486201208DF81700FFE79DF899
:10912000170006B07047000083B002900020019045
:10913000029890F820008DF803009DF803000128A4
:1091400005D0FFE79DF80300022822D1FFE702982F
:10915000006880684001002804D5FFE701980130CD
:109160000190FFE70298006880680001002804D59C
:10917000FFE7019801300190FFE7029800688068DE
:10918000C000002804D5FFE7019801300190FFE7F7
:10919000FFE7019803B0704780B584B00290029851
:1091A00020B9FFE701208DF80F00E0E0029890F869
:1091B000200020B9FFE7029800F0DEF8FFE70298F0
:1091C0000168086840F00100086000F081FD01902E
:1091D000FFE7029800684068C007A8B9FFE700F001
:1091E00077FD0199401A0B280DD3FFE70299486AD1
:1091F00040F4003048620299052081F820000120E7
:109200008DF80F00B3E0E4E702980168086820F0E9
:109210000200086000F05CFD0190FFE70298006822
:1092200040688007002815D5FFE700F051FD01993F
:10923000401A0B280DD3FFE70299486A40F400302A
:1092400048620299052081F8200001208DF80F0066
:109250008DE0E3E70298007E012807D1FFE702983E
:109260000168086840F08000086006E00298016824
:10927000086820F080000860FFE70298407E01281F
:1092800007D1FFE702980168086840F040000860D5
:1092900006E002980168086820F040000860FFE7D7
:1092A0000298807E012807D1FFE7029801680868CC
:1092B00040F02000086006E002980168086820F08D
:1092C00020000860FFE70298C07E012807D1FFE771
:1092D00002980168086820F01000086006E0029813
:1092E0000168086840F010000860FFE70298007FFE
:1092F000012807D1FFE702980168086840F00800DC
:10930000086006E002980168086820F0080008601C
:10931000FFE70298407F012807D1FFE70298016824
:10932000086840F00400086006E0029801680868D8
:1093300020F004000860FFE7029B19685A689868EB
:10934000D3F80CC040EA0C00D3F810C040EA0C007F
:109350005B691843013A1043C861029900204862D2
:10936000029A012182F820108DF80F00FFE79DF886
:109370000F0004B080BD000080B58AB009900020C5
:1093800008900790069005900998006846F2004101
:10939000C4F20001884239D1FFE7FFE741F21C0027
:1093A000C4F20200016841F000710160006800F041
:1093B000007004900498FFE7FFE741F21800C4F240
:1093C0000200016841F004010160006800F004003F
:1093D00003900398FFE74FF400600590002006908B
:1093E000079040F60000C4F20100019005A9029127
:1093F00000F0AAFA019802994FF4805205920222D5
:1094000006920322089200F09FFAFFE70AB080BD9F
:1094100080B584B00290029890F8200001282FD1E6
:10942000FFE70299022081F820000298016808688D
:1094300020F00100086000F04BFC0190FFE702986B
:1094400000684068C007A8B1FFE700F041FC01993F
:10945000401A0B280DD3FFE70299486A40F4003008
:1094600048620299052081F8200001208DF80F0044
:109470000FE0E4E70299002048628DF80F0008E051
:109480000299486A40F40020486201208DF80F00DC
:10949000FFE79DF80F0004B080BD000085B0049088
:1094A0000391029200200090049A022151710499C4
:1094B0000A68916841F0010191600190FFE701980D
:1094C000029988420CD2FFE70398019950F82100D5
:1094D000049909680860FFE7019801300190EEE700
:1094E0000498006800680090049901204871009871
:1094F00005B0704780B582B00090009820B9FFE7B2
:1095000001208DF8070011E00098407938B9FFE795
:10951000009900200871009800F00CF8FFE700990E
:109520000120487100208DF80700FFE79DF8070033
:1095300002B080BD82B001900198006843F2000142
:10954000C4F20201884210D1FFE7FFE741F21400A4
:10955000C4F20200016841F040010160006800F0BF
:10956000400000900098FFE7FFE702B0704700005E
:1095700083B0019000208DF80300019890F821003D
:1095800002280DD0FFE7019904208863FFE70199C5
:10959000002081F82000FFE701208DF80B0021E07A
:1095A00001980168086820F00E00086001980168C1
:1095B000086820F0010008600198C16B026C01206E
:1095C00090404860FFE70199012081F82100FFE702
:1095D0000199002081F82000FFE79DF803008DF835
:1095E0000B00FFE79DF80B0003B0704780B596B005
:1095F000159000208DF85300159890F8210002284E
:1096000007D0FFE715990420886301208DF85300E7
:1096100074E115980168086820F00E00086015983C
:109620000168086820F00100086015980068812131
:10963000C4F202018842C0F0A880FFE715980068D4
:109640000821C4F20201884203D1FFE701201390F0
:1096500094E0159800681C21C4F20201884203D1ED
:10966000FFE71020129086E0159800683021C4F2C0
:109670000201884204D1FFE74FF48070119077E037
:10968000159800684421C4F20201884204D1FFE722
:109690004FF48050109068E0159800685821C4F28B
:1096A0000201884204D1FFE74FF480300F9059E067
:1096B000159800686C21C4F20201884204D1FFE7CA
:1096C0004FF480100E904AE0159800688021C4F293
:1096D0000201884204D1FFE74FF080700D903BE01B
:1096E0001598006840F20841C4F20201884203D193
:1096F000FFE701200C902CE01598006840F21C4117
:10970000C4F20201884203D1FFE710200B901DE054
:109710001598006840F23041C4F20201884204D139
:10972000FFE74FF480700A900DE01598016840F251
:109730004442C4F202024FF48030914208BF4FF419
:1097400080500A90FFE70A980B90FFE70B980C9067
:10975000FFE70C980D90FFE70D980E90FFE70E982D
:109760000F90FFE70F981090FFE710981190FFE718
:1097700011981290FFE712981390FFE7139840F2A8
:109780000441C4F202010860A5E0159800680821B0
:10979000C4F20201884203D1FFE70120099094E05E
:1097A000159800681C21C4F20201884203D1FFE72A
:1097B0001020089086E0159800683021C4F202015C
:1097C000884204D1FFE74FF48070079077E0159846
:1097D00000684421C4F20201884204D1FFE74FF43B
:1097E0008050069068E0159800685821C4F2020184
:1097F000884204D1FFE74FF48030059059E0159876
:1098000000686C21C4F20201884204D1FFE74FF4E2
:10981000801004904AE0159800688021C4F202018B
:10982000884204D1FFE74FF0807003903BE0159829
:10983000006840F20841C4F20201884203D1FFE708
:10984000012002902CE01598006840F21C41C4F2FF
:109850000201884203D1FFE7102001901DE0159816
:10986000006840F23041C4F20201884204D1FFE7AF
:109870004FF4807000900DE01598016840F244426A
:10988000C4F202024FF48030914208BF4FF480507E
:109890000090FFE700980190FFE701980290FFE732
:1098A00002980390FFE703980490FFE7049805905F
:1098B000FFE705980690FFE706980790FFE70798EF
:1098C0000890FFE708980990FFE709980421C4F27F
:1098D00002010860FFE71599012081F82100FFE7E8
:1098E0001599002081F82000FFE71598406B20B102
:1098F000FFE71598416B8847FFE7FFE79DF85300A6
:1099000016B080BD80B584B0039000F0E1F90290FC
:10991000039801900198013048B1FFE740F2080038
:10992000C2F200000178019808440190FFE7FFE7C8
:1099300000F0CEF90299401A0199884201D2FFE75E
:10994000F6E704B080BD000092B0119010910020A5
:109950000F900B90FFE7109800680F99C8400028FF
:1099600000F09B81FFE70F99012088400E9010982E
:1099700000680E9908400D900D980E99884240F0AD
:109980008881FFE7109840680790002851D0FFE7D2
:10999000079801283AD0FFE7079802283FD0FFE751
:1099A000079803285FD0FFE70798112832D0FFE718
:1099B0000798122838D0FFE707980021C1F211015B
:1099C000884236D0FFE707980021C1F21201884291
:1099D0002FD0FFE707980021C1F22101884228D04B
:1099E000FFE707980021C1F22201884221D0FFE75A
:1099F00007980021C1F2310188421AD0FFE7079889
:109A00000021C1F23201884213D02FE01098C068C3
:109A10000B902CE01098C06804300B9027E0109851
:109A2000C06808300B9022E01098C0680C300B9092
:109A30001DE01098806818B9FFE704200B9011E032
:109A400010988068012806D1FFE708200B900E9837
:109A50001199086105E008200B900E981199486152
:109A6000FFE7FFE703E000200B9000E0FFE70D9821
:109A7000FF2803D8FFE71198069003E011980430FF
:109A80000690FFE706980A900D98FF2804D8FFE794
:109A90000F988000059006E00F996FF01F0000EB13
:109AA00081000590FFE7059809900A980068099AD7
:109AB0000F21914088430B99914008430A9908600F
:109AC0001098C079C006002840F1E280FFE7FFE768
:109AD00041F21800C4F20200016841F00101016086
:109AE000006800F0010008900898FFE70F9820F048
:109AF00003000821C4F2010140580C900F9800F0B7
:109B0000030081000F2000FA01F10C9888430C90AB
:109B1000119840F60001C4F20101884203D1FFE729
:109B20000020049042E0119840F60041C4F2010187
:109B3000884203D1FFE70120039034E0119841F2FD
:109B40000001C4F20101884203D1FFE70220029024
:109B500026E0119841F20041C4F20101884203D18C
:109B6000FFE70320019018E0119841F60001C4F2CC
:109B70000101884203D1FFE7042000900AE0119917
:109B800041F60042C4F201020620914208BF0520BE
:109B90000090FFE700980190FFE701980290FFE72F
:109BA00002980390FFE703980490FFE704980F9949
:109BB00001F00301890000FA01F10C9808430C90B0
:109BC0000C980F9921F003010822C4F20102885079
:109BD00010988079C006002809D5FFE70D9A40F259
:109BE0000841C4F2010108681043086008E00D9ABA
:109BF00040F20841C4F20101086890430860FFE7A1
:109C0000109880798006002809D5FFE70D9A40F268
:109C10000C41C4F2010108681043086008E00D9A85
:109C200040F20C41C4F20101086890430860FFE76C
:109C3000109880798007002809D5FFE70D9A40F237
:109C40000441C4F2010108681043086008E00D9A5D
:109C500040F20441C4F20101086890430860FFE744
:109C600010988079C00748B1FFE70D9A40F2004193
:109C7000C4F2010108681043086008E00D9A40F240
:109C80000041C4F20101086890430860FFE7FFE764
:109C9000FFE70F9801300F905DE612B070470000AB
:109CA00082B00190ADF802108DF801209DF80100FE
:109CB00028B1FFE7BDF802000199086105E0BDF891
:109CC0000200000401990861FFE702B0704700003C
:109CD00044F2CC10C2F200000068704780B58EB02C
:109CE0000C900C9820B9FFE701208DF8370043E174
:109CF0000C9890F83D0040B9FFE70C99002081F8DE
:109D00003C000C9800F046FAFFE70C99242081F8FB
:109D10003D000C980168086820F0010008600C986C
:109D20000168086840F4004008600C980168086801
:109D300020F40040086000F059FC0A900C9840683C
:109D400048F2A061C0F2010188420BD8FFE70A99EE
:109D500048F28042C0F21E020020914238BF01202A
:109D600009900AE00A9940F60012C0F23D02002074
:109D7000914238BF01200990FFE70998012804D1DA
:109D8000FFE701208DF83700F6E00A984DF6836171
:109D9000C4F21B31A0FB0110800C0B900C980068E2
:109DA000406820F03F000B9908430C99096848600F
:109DB0000C980068006A20F03F0008900C984068FA
:109DC00048F2A061C0F20101884204D8FFE70B9875
:109DD000013007900EE00B984FF49671484344F61B
:109DE000D351C1F26201A0FB0101012000EB9110EF
:109DF0000790FFE70898079908430C9909680862DB
:109E00000C980068C0694CF6FF71884306900C9866
:109E1000406848F2A061C0F2010188421FD8FFE704
:109E20000A9801380C9949684900B0FBF1F00130FB
:109E30006FF31F30032803D8FFE7042005900BE0E1
:109E40000A9801380C9949684900B0FBF1F00130DB
:109E50006FF31F300590FFE7059804904CE00C98D5
:109E6000806868B9FFE70A9801380C99496801EBE6
:109E70004101B0FBF1F001306FF31F3003900DE0B2
:109E80000A9801380C99496819225143B0FBF1F046
:109E90000130042161F31F300390FFE703980005B0
:109EA00018B9FFE70120029023E00C98806868B998
:109EB000FFE70A9801380C99496801EB4101B0FBB2
:109EC000F1F001306FF31F3001900DE00A98013876
:109ED0000C99496819225143B0FBF1F0013004217B
:109EE00061F31F300190FFE7019840F400400290B9
:109EF000FFE702980490FFE70698049908430C993D
:109F00000968C8610C980068006820F0C0000C9BCC
:109F10001968DA691B6A1A43104308600C980068D4
:109F2000806848F2FF3188430C9A1168D36812693F
:109F30001A43104388600C980068C06820F0FF0046
:109F40000C9B19685A699B691A431043C8600C98A6
:109F50000168086840F0010008600C99002008645E
:109F60000C9A202182F83D100C9908630C9981F815
:109F70003E008DF83700FFE79DF837000EB080BD3A
:109F800010B588B084460C980B98DDF828E0CDF821
:109F900018C0ADF81610ADF81420ADF81230ADF8B9
:109FA0001000FFF795FE0390069890F83D002028DA
:109FB00040F0E880FFE7069803996A4611600221A5
:109FC000C0F210010122192302F02CF920B1FFE7A1
:109FD00002208DF81F00D9E0FFE7069890F83C00BA
:109FE000012804D1FFE702208DF81F00CEE006997A
:109FF000012081F83C00FFE7FFE706980068006851
:10A0000000F00100012807D0FFE706980168086802
:10A0100040F001000860FFE706980168086820F436
:10A02000006008600699212081F83D0006994020D3
:10A0300081F83E000699002008640A980699486253
:10A04000BDF81000069948850698408D0699088548
:10A0500006990020CFF6FF70C8620698BDF816106A
:10A06000BDF81420BDF81230DDF830C0039CEE4678
:10A07000CEF80440CEF800C001F0E0FF20B1FFE7C9
:10A0800001208DF81F0081E0FFE70698008D002871
:10A0900049D0FFE706980C99039A02F0F1F980B1D4
:10A0A000FFE70698006C042807D1FFE706980168CF
:10A0B000086840F400700860FFE701208DF81F0079
:10A0C00064E006980168406A007808610699486A69
:10A0D000013048620699088D013808850699488D37
:10A0E0000138488506980068406900F004010120A5
:10A0F000B0EB910F16D1FFE70698008D90B1FFE706
:10A1000006980168406A007808610699486A01303B
:10A1100048620699088D013808850699488D0138EE
:10A120004885FFE7B1E706980C99039A02F024F8F6
:10A1300080B1FFE70698006C042807D1FFE7069876
:10A140000168086840F400700860FFE701208DF89E
:10A150001F001BE006980168086840F40070086062
:10A160000699202081F83D000699002081F83E00E4
:10A17000FFE70699002081F83C00FFE700208DF8FA
:10A180001F0003E002208DF81F00FFE79DF81F006D
:10A1900008B010BD80B588B00790002006900590EB
:10A1A000049003900798006845F20041C4F2000152
:10A1B00088422CD1FFE7FFE741F21800C4F2020009
:10A1C000016841F008010160006800F00800029099
:10A1D0000298FFE7C020039012200490032006900D
:10A1E00040F60040C4F2010003A9FFF7ADFBFFE712
:10A1F00041F21C00C4F20200016841F40011016048
:10A20000006800F4001001900198FFE7FFE708B034
:10A2100080BD000040F20800C2F20000027844F263
:10A22000CC11C2F2000108681044086070470000B9
:10A2300080B542F20001C4F20201086840F010004B
:10A240000860032000F096F80F2000F005F800F0F9
:10A250003BF8002080BD000080B582B0009040F245
:10A260000400C2F20000006840F20801C2F20001DE
:10A270000A784FF47A71B1FBF2F1B0FBF1F001F022
:10A280008BFA20B1FFE701208DF8070018E0009855
:10A290000F280DD8FFE700994FF0FF30002200F0A3
:10A2A0004FF8009840F20C01C2F20001086003E090
:10A2B00001208DF8070003E000208DF80700FFE77C
:10A2C0009DF8070002B080BD83B0FFE741F218009F
:10A2D000C4F20200016841F001010160006800F071
:10A2E000010002900298FFE7FFE741F21C00C4F270
:10A2F0000200016841F080510160006800F0805068
:10A3000001900198FFE7FFE70421C4F2010108680A
:10A310000090009820F0E0600090009840F00070FD
:10A32000009000980860FFE703B0704780B582B0E6
:10A330008DF807009DF9070003F08EF802B080BD8C
:10A3400080B586B08DF8170004910392002002902A
:10A3500003F09AF802909DF9170001900298049971
:10A36000039A02F01DFC0146019803F095F806B02F
:10A3700080BD000080B582B00190019803F0AEF876
:10A3800002B080BD03F0C8F880B584B0029001919E
:10A39000029820B9FFE701208DF80F001BE101981A
:10A3A00042F20001C4F20201096801F0070188428B
:10A3B00016D9FFE742F20000C4F20200016821F062
:10A3C0000701019A11430160006800F0070001993C
:10A3D000884204D0FFE701208DF80F00FBE0FFE783
:10A3E00002980078800700282AD5FFE702980078B5
:10A3F0004007002809D5FFE741F20401C4F2020139
:10A40000086840F4E0600860FFE702980078000701
:10A41000002809D5FFE741F20401C4F202010868EF
:10A4200040F460500860FFE741F20401C4F2020109
:10A43000086820F0F000029A926810430860FFE775
:10A4400002980078C007002860D0FFE702984068B3
:10A4500001280ED1FFE741F20000C4F202000068BB
:10A460008003002804D4FFE701208DF80F00B2E03C
:10A4700021E00298406802280ED1FFE741F2000077
:10A48000C4F2020000688001002804D4FFE7012024
:10A490008DF80F009FE00DE041F20000C4F20200D1
:10A4A00000688007002804D4FFE701208DF80F0022
:10A4B00091E0FFE7FFE741F20401C4F202010868FE
:10A4C00020F00300029A526810430860FFF700FC76
:10A4D0000090FFE741F20400C4F20200006800F0BF
:10A4E0000C0002994968B0EB810F0ED0FFE7FFF72F
:10A4F000EFFB0099401A41F28931884204D3FFE70B
:10A5000003208DF80F0066E0E4E7FFE7019842F2D0
:10A510000001C4F20201096801F00701884216D265
:10A52000FFE742F20000C4F20200016821F00701D7
:10A53000019A11430160006800F007000199884208
:10A5400004D0FFE701208DF80F0044E0FFE70298F8
:10A550000078400700280CD5FFE741F20401C4F25F
:10A560000201086820F4E060029AD2681043086093
:10A57000FFE702980078000700280DD5FFE741F2B9
:10A580000401C4F20201086820F46050029A1269C2
:10A5900040EAC2000860FFE700F04CF841F2040115
:10A5A000C4F202010968C9B20A094DF6A661C0F6F3
:10A5B0000001895CC84040F20401C2F20001086059
:10A5C00040F20C00C2F200000068FFF745FE0020D8
:10A5D0008DF80F00FFE79DF80F0004B080BD00006C
:10A5E00040F20400C2F200000068704780B5FFF737
:10A5F000F7FF41F20401C4F202010968C1F302222B
:10A600004DF6B661C0F60001895CC84080BD00000F
:10A6100080B5FFF7E5FF41F20401C4F202010968C9
:10A62000C1F3C2224DF6B661C0F60001895CC84094
:10A6300080BD000086B00020059004900390029039
:10A64000019041F20400C4F20200006805900598F0
:10A6500000F00C000146009100283FD0FFE7009871
:10A66000042804D0FFE70098082806D037E041F21C
:10A670000020C0F27A00019037E00598C0F38341D2
:10A680004DF6BE60C0F60000405C02909DF81600DA
:10A69000C007C0B1FFE741F20400C4F20200006845
:10A6A000C0F340414DF6CE60C0F60000405C04901F
:10A6B000029841F20021C0F27A0148430499B0FBAC
:10A6C000F1F0039007E0029840F60011C0F23D015E
:10A6D00048430390FFE70398019006E0FFE741F24B
:10A6E0000020C0F27A000190FFE7019806B07047A1
:10A6F00080B586B00490049820B9FFE701208DF85A
:10A7000017002EE304980078C007002800F0AE8000
:10A71000FFE741F20400C4F20200006800F00C0000
:10A72000042813D0FFE741F20400C4F202000068DD
:10A7300000F00C0008281BD1FFE741F20400C4F22E
:10A7400002000068C003002812D5FFE741F20000B4
:10A75000C4F2020000688003002808D5FFE70498CF
:10A76000406820B9FFE701208DF81700F9E27CE08E
:10A77000FFE704984068B0F5803F09D1FFE741F258
:10A780000001C4F20201086840F48030086032E041
:10A790000498406868B9FFE741F20001C4F2020181
:10A7A000086820F480300860086820F48020086081
:10A7B00020E004984068B0F5A02F0DD1FFE741F2EA
:10A7C0000001C4F20201086840F4802008600868B3
:10A7D00040F4803008600CE041F20001C4F2020154
:10A7E000086820F480300860086820F48020086041
:10A7F000FFE7FFE7FFE7FFE704984068D0B1FFE716
:10A80000FFF766FA0390FFE741F20000C4F202008E
:10A810000068800300280CD4FFE7FFF759FA03997A
:10A82000401A652804D3FFE703208DF8170098E24B
:10A83000EAE719E0FFF74CFA0390FFE741F2000066
:10A84000C4F202000068800300280CD5FFE7FFF780
:10A850003FFA0399401A652804D3FFE703208DF8D7
:10A8600017007EE2EAE7FFE7FFE7FFE704980078DA
:10A870008007002840F18D80FFE741F20400C4F218
:10A880000200006810F00C0F13D0FFE741F2040043
:10A89000C4F20200006800F00C00082829D1FFE78C
:10A8A00041F20400C4F202000068C003002820D472
:10A8B000FFE741F20000C4F20200006880070028B0
:10A8C00009D5FFE704980069012804D0FFE70120BB
:10A8D0008DF8170045E241F20001C4F20201086858
:10A8E00020F0F800049A526940EAC2000860FFE7CD
:10A8F0004EE00498006958B3FFE70021C4F24221FA
:10A9000001200860FFF7E4F90390FFE741F200003F
:10A91000C4F202000068800700280CD4FFE7FFF7AC
:10A92000D7F90399401A032804D3FFE703208DF8D1
:10A93000170016E2EAE741F20001C4F202010868DA
:10A9400020F0F800049A526940EAC20008601EE054
:10A950000021C4F2422100200860FFF7B9F90390FA
:10A96000FFE741F20000C4F20200006880070028FF
:10A970000CD5FFE7FFF7ACF90399401A032804D37D
:10A98000FFE703208DF81700EBE1EAE7FFE7FFE7B9
:10A99000FFE7049800780007002848D5FFE70498EF
:10A9A000806918B3FFE740F28041C4F242210120E0
:10A9B0000860FFF78DF90390FFE741F22400C4F22D
:10A9C00002000068800700280CD4FFE7FFF780F939
:10A9D0000399401A032804D3FFE703208DF81700DA
:10A9E000BFE1EAE7012002F013F91FE040F28041E5
:10A9F000C4F2422100200860FFF76AF90390FFE7E4
:10AA000041F22400C4F202000068800700280CD53F
:10AA1000FFE7FFF75DF90399401A032804D3FFE726
:10AA200003208DF817009CE1EAE7FFE7FFE70498B1
:10AA300000784007002840F1D880FFE700208DF81B
:10AA4000070041F21C00C4F202000068C0000028A8
:10AA500013D4FFE7FFE741F21C00C4F202000168D3
:10AA600041F080510160006800F080500090009833
:10AA7000FFE701208DF80700FFE747F20000C4F26E
:10AA800000000068C005002822D4FFE747F200015B
:10AA9000C4F20001086840F480700860FFF718F9FC
:10AAA0000390FFE747F20000C4F200000068C00511
:10AAB00000280CD4FFE7FFF70BF90399401A65282B
:10AAC00004D3FFE703208DF817004AE1EAE7FFE728
:10AAD000FFE70498C068012809D1FFE741F220018F
:10AAE000C4F20201086840F00100086031E00498F7
:10AAF000C06868B9FFE741F22001C4F202010868AA
:10AB000020F001000860086820F0040008601FE0E1
:10AB10000498C06805280DD1FFE741F22001C4F276
:10AB20000201086840F004000860086840F0010075
:10AB300008600CE041F22001C4F20201086820F034
:10AB400001000860086820F004000860FFE7FFE7E4
:10AB5000FFE7FFE70498C068E0B1FFE7FFF7B8F848
:10AB60000390FFE741F22000C4F202000068800772
:10AB700000280ED4FFE7FFF7ABF80399401A41F223
:10AB80008931884204D3FFE703208DF81700E8E0FD
:10AB9000E8E71BE0FFF79CF80390FFE741F2200095
:10ABA000C4F202000068800700280ED5FFE7FFF717
:10ABB0008FF80399401A41F28931884204D3FFE7A4
:10ABC00003208DF81700CCE0E8E7FFE79DF80700C9
:10ABD000012809D1FFE741F21C01C4F20201086813
:10ABE00020F080500860FFE7FFE70498C069002864
:10ABF00000F0B380FFE741F20400C4F202000068F5
:10AC000000F00C00082800F08280FFE70498C0697B
:10AC100002285CD1FFE76021C4F2422100200860D5
:10AC2000FFF756F80390FFE741F20000C4F202007C
:10AC30000068800100280CD5FFE7FFF749F8039969
:10AC4000401A032804D3FFE703208DF8170088E09B
:10AC5000EAE70498006AB0F5803F0CD1FFE741F2C3
:10AC60000401C4F20201086820F40030049A9268DA
:10AC700010430860FFE741F20401C4F202010868D2
:10AC800020F47410049B1A6A5B6A1A43104308602C
:10AC90006021C4F2422101200860FFF719F80390F7
:10ACA000FFE741F20000C4F20200006880010028C2
:10ACB0000CD4FFE7FFF70CF80399401A032804D3DC
:10ACC000FFE703208DF817004BE0EAE71EE0602164
:10ACD000C4F2422100200860FEF7FAFF0390FFE76C
:10ACE00041F20000C4F202000068800100280CD587
:10ACF000FFE7FEF7EDFF0399401A032804D3FFE7AF
:10AD000003208DF817002CE0EAE7FFE724E0049821
:10AD1000C069012804D1FFE701208DF8170020E069
:10AD200041F20400C4F2020000680290029800F4AC
:10AD300080300499096A884208D1FFE7029800F43C
:10AD400070100499496A884204D0FFE701208DF809
:10AD5000170006E0FFE7FFE7FFE700208DF8170088
:10AD6000FFE79DF8170006B080BD000080B584B0F5
:10AD70000290029820B9FFE701208DF80F006EE0E5
:10AD80000298406A60B9FFE702984068B0F5827F98
:10AD900001D1FFE703E002990020C861FFE705E069
:10ADA00002990020086102994861FFE7029900209A
:10ADB0008862029890F8510040B9FFE7029900209C
:10ADC00081F85000029800F04FF8FFE70299022046
:10ADD00081F8510002980168086820F0400008607E
:10ADE000029A019211685068D2F808C0D36800F442
:10ADF00082700CF4044C604403F40063184413693B
:10AE000003F002031844536903F0010318449369E3
:10AE100003F400731844D36903F038031844136A29
:10AE200003F080031843926A02F400521043086052
:10AE3000029801688269042000EA12404860029882
:10AE40000168C86920F40060C86102990020486563
:10AE5000029A012182F851108DF80F00FFE79DF84A
:10AE60000F0004B080BD000080B58AB009900020BA
:10AE700008900790069005900998006843F6000135
:10AE8000C4F20001884239D1FFE7FFE741F21C001C
:10AE9000C4F20200016841F480410160006800F4DE
:10AEA000804004900498FFE7FFE741F21800C4F2E5
:10AEB0000200016841F008010160006800F008002C
:10AEC00003900398FFE74FF420400590022006907E
:10AED0000320089040F60040C4F20100019005A94B
:10AEE0000291FEF731FD019802994FF480420592DC
:10AEF000002206920792FEF727FDFFE70AB080BD09
:10AF000080B588B006900591ADF81220039306989D
:10AF100090F85100012804D0FFE702208DF81F00AF
:10AF200011E106984068B0F5827F16D1FFE70698D8
:10AF3000806890B9FFE70699042081F851000698CF
:10AF4000059ABDF812300399EC46CCF80010114672
:10AF500000F050FA8DF81F00F5E0FEF7B9FE029000
:10AF6000059820B1FFE7BDF8120020B9FFE70120E6
:10AF70008DF81F00E7E0FFE7069890F850000128E1
:10AF800004D1FFE702208DF81F00DCE006990120C4
:10AF900081F85000FFE7FFE70699042081F851008F
:10AFA0000699002048650599069A9163BDF812102C
:10AFB000069A9187BDF81210069AD1870699086300
:10AFC000069988860699C886069908640699486491
:10AFD00006988068B0F5004F0DD1FFE7069801682C
:10AFE000086820F04000086006980168086820F4AE
:10AFF00080400860FFE706980068006800F04000A5
:10B00000402807D0FFE706980168086840F0400034
:10B010000860FFE70698C068D0BBFFE7FFE7069827
:10B02000C08FA0B3FFE7069800688068C00778B1BA
:10B03000FFE706980068007B0699896B08700699FF
:10B04000886B013088630699C88F0138C8871DE076
:10B05000FEF73EFE0299401A0399884204D3FFE7A7
:10B060000398013018B9FFE7039870B9FFE7069914
:10B07000012081F85100FFE70699002081F8500077
:10B08000FFE703208DF81F005DE0FFE7C7E739E029
:10B09000FFE70698C08FA0B3FFE7069800688068B6
:10B0A000C00778B1FFE706980068C0680699896B09
:10B0B00008800699886B023088630699C88F01382A
:10B0C000C8871DE0FEF704FE0299401A03998842E2
:10B0D00004D3FFE70398013018B9FFE7039870B96C
:10B0E000FFE70699012081F85100FFE7069900204B
:10B0F00081F85000FFE703208DF81F0023E0FFE7F1
:10B10000C7E7FFE706980399029A01F09FFD20B177
:10B11000FFE7069920204865FFE70699012081F89E
:10B120005100FFE70699002081F85000FFE70698DC
:10B13000406D20B1FFE701208DF81F0003E00020E3
:10B140008DF81F00FFE79DF81F0008B080BD0000CC
:10B1500080B588B006900591ADF812200393FEF7F4
:10B16000B7FD0290BDF81200ADF80600069890F801
:10B170005100012804D0FFE702208DF81F0034E1C0
:10B18000059820B1FFE7BDF8120020B9FFE70120C4
:10B190008DF81F0029E1FFE7069890F8500001287C
:10B1A00004D1FFE702208DF81F001EE1069901205F
:10B1B00081F85000FFE7FFE70699032081F851006E
:10B1C0000699002048650599069A1163BDF812108A
:10B1D000069A9186BDF81210069AD1860699886360
:10B1E000069988870699C88706994864069908646D
:10B1F00006988068B0F5004F0DD1FFE7069801680A
:10B20000086820F04000086006980168086840F46B
:10B2100080400860FFE706980068006800F0400082
:10B22000402807D0FFE706980168086840F0400012
:10B230000860FFE70698C068B0F5006F51D1FFE7DE
:10B240000698406828B1FFE7BDF8060001280ED136
:10B25000FFE706980168006B0088C8600699086BD4
:10B26000023008630699C88E0138C886FFE7FFE7F9
:10B270000698C08EA0B3FFE7069800688068800734
:10B2800000280ED5FFE706980168006B0088C860AB
:10B290000699086B023008630699C88E0138C88683
:10B2A0001DE0FEF715FD0299401A0399884204D368
:10B2B000FFE70398013018B9FFE7039870B9FFE77B
:10B2C0000699012081F85100FFE70699002081F8D6
:10B2D0005000FFE703208DF81F0086E0FFE7C7E777
:10B2E00050E00698406828B1FFE7BDF80600012845
:10B2F0000ED1FFE706980168006B00780873069985
:10B30000086B013008630699C88E0138C886FFE7CC
:10B31000FFE70698C08EA0B3FFE706980068806834
:10B32000800700280ED5FFE706980168006B0078BB
:10B3300008730699086B013008630699C88E0138B6
:10B34000C8861DE0FEF7C4FC0299401A03998842A2
:10B3500004D3FFE70398013018B9FFE7039870B9E9
:10B36000FFE70699012081F85100FFE706990020C8
:10B3700081F85000FFE703208DF81F0035E0FFE75C
:10B38000C7E7FFE706980399029A01F0BBFC20B1DA
:10B39000FFE7069920204865FFE70698806870B9A6
:10B3A000FFE7FFE70020009006980068C068009063
:10B3B00006980068806800900098FFE7FFE706990C
:10B3C000012081F85100FFE70699002081F8500024
:10B3D000FFE70698406D20B1FFE701208DF81F00C0
:10B3E00003E000208DF81F00FFE79DF81F0008B064
:10B3F00080BD000080B58CB0DDF838C00A9009919E
:10B400000892ADF81E3001200390FEF761FC049015
:10B410000A9890F851008DF817000A984068069035
:10B42000BDF81E00ADF81C009DF81700012812D0D1
:10B43000FFE70698B0F5827F09D1FFE70A98806898
:10B4400028B9FFE79DF81700042804D0FFE7022081
:10B450008DF82F009BE1099838B1FFE7089820B1DB
:10B46000FFE7BDF81E0020B9FFE701208DF82F008F
:10B470008DE1FFE70A9890F85000012804D1FFE71A
:10B4800002208DF82F0082E10A99012081F85000F6
:10B49000FFE7FFE70A9890F85100042805D0FFE77E
:10B4A0000A99052081F85100FFE70A9900204865B4
:10B4B00008990A9A9163BDF81E100A9AD187BDF8BF
:10B4C0001E100A9A918709990A9A1163BDF81E10F5
:10B4D0000A9AD186BDF81E100A9A91860A990864C4
:10B4E0000A9948640A980068006800F04000402803
:10B4F00007D0FFE70A980168086840F0400008603C
:10B50000FFE70A98C068B0F5006F40F08180FFE760
:10B510000A98406828B1FFE7BDF81C0001280ED149
:10B52000FFE70A980168006B0088C8600A99086BF9
:10B53000023008630A99C88E0138C886FFE7FFE722
:10B540000A98C18E0120019039B9FFE70A98C08F8F
:10B55000002818BF01200190FFE70198C0070028CC
:10B5600055D0FFE70A98006880688007002818D542
:10B57000FFE70A98C08EA0B1FFE70398012810D119
:10B58000FFE70A980168006B0088C8600A99086B99
:10B59000023008630A99C88E0138C88600200390DB
:10B5A000FFE70A9800688068C007A8B1FFE70A981B
:10B5B000C08F88B1FFE70A980068C0680A99896B54
:10B5C00008800A99886B023088630A99C88F01380D
:10B5D000C88701200390FFE7FEF77AFB0499401A21
:10B5E0000E99884212D3FFE70E98013070B1FFE741
:10B5F0000A99012081F85100FFE70A99002081F89B
:10B600005000FFE703208DF82F00C0E098E782E0AC
:10B610000A98406828B1FFE7BDF81C0001280ED148
:10B62000FFE70A980168006B007808730A99086BB5
:10B63000013008630A99C88E0138C886FFE7FFE722
:10B640000A98C18E0120009039B9FFE70A98C08F8F
:10B65000002818BF01200090FFE70098C0070028CD
:10B6600058D0FFE70A98006880688007002818D53E
:10B67000FFE70A98C08EA0B1FFE70398012810D118
:10B68000FFE70A980168006B007808730A99086B55
:10B69000013008630A99C88E0138C88600200390DB
:10B6A000FFE70A9800688068C007A8B1FFE70A981A
:10B6B000C08F88B1FFE70A980068C0680A99896B53
:10B6C00008700A99886B013088630A99C88F01381D
:10B6D000C88701200390FFE7FEF7FAFA0499401AA1
:10B6E0000E99884204D3FFE70E98013018B9FFE79E
:10B6F0000E9870B9FFE70A99012081F85100FFE721
:10B700000A99002081F85000FFE703208DF82F00F0
:10B710003DE095E7FFE70A980E99049A01F0F2FAE6
:10B7200068B1FFE70A9920204865FFE70A990020E1
:10B7300081F85000FFE701208DF82F0027E00A98DC
:10B74000806870B9FFE7FFE7002002900A98006860
:10B75000C06802900A980068806802900298FFE72B
:10B76000FFE70A99012081F85100FFE70A990020BC
:10B7700081F85000FFE70A98406D20B1FFE70120F3
:10B780008DF82F0003E000208DF82F00FFE79DF8D3
:10B790002F000CB080BD000080B582B001900198F0
:10B7A00001F07EFB02B080BD80B586B004900391AD
:10B7B000ADF80A20049890F8420020284DD1FFE708
:10B7C000039820B1FFE7BDF80A0020B9FFE7012088
:10B7D0008DF8170045E004990120086304990020C2
:10B7E000486304980399BDF80A2001F041FD8DF8E3
:10B7F00009009DF8090058BBFFE70498006B012879
:10B8000021D1FFE7FFE7002001900498006800685D
:10B81000019004980068406801900198FFE7FFE7F5
:10B82000FFE70498006850E8030F40F01000009014
:10B83000FFE700990498026842E803100028F0D15D
:10B84000FFE7FFE703E001208DF80900FFE7FFE7CE
:10B850009DF809008DF8170003E002208DF817000D
:10B86000FFE79DF8170006B080BD000080B584B0EA
:10B870000390ADF80A100398006843F60001C4F283
:10B880000101884244D1FFE744F2C810C2F200002F
:10B890000078E8BBFFE744F2A810C2F200004DF6C2
:10B8A0006C71C0F60001FCF783FC80B3FFE744F243
:10B8B000C811C2F2000101200870FFE700200190CA
:10B8C00044F26010C2F2000001680968019100684A
:10B8D000406801900198FFE7FFE70020009044F2E4
:10B8E0006010C2F2000001680968009100684068B9
:10B8F00000900098FFE744F26010C2F2000044F2AA
:10B90000A811C2F200012022FFF74EFFFFE7FFE778
:10B9100004B080BD81B0009001B0704780B592B096
:10B920001190119800680068109011980068C06824
:10B930000F901198006840690E9000200D900C90B7
:10B94000109800F00F000D900D9888B9FFE79DF852
:10B950004000800600280AD5FFE79DF83C008006DD
:10B96000002804D5FFE7119801F06EFBE9E1FFE73D
:10B970000D98002800F0C280FFE79DF83800C0074E
:10B9800038B9FFE7BDF83C0010F4907F00F0B680B6
:10B99000FFE79DF84000C00758B1FFE79DF83D0064
:10B9A000C00730B1FFE71199486C40F001004864CE
:10B9B000FFE79DF84000400700280BD5FFE79DF802
:10B9C0003800C00730B1FFE71199486C40F0020021
:10B9D0004864FFE79DF84000800700280BD5FFE78B
:10B9E0009DF83800C00730B1FFE71199486C40F06E
:10B9F00004004864FFE79DF840000007002811D5C7
:10BA0000FFE79DF83C008006002805D4FFE79DF87D
:10BA10003800C00730B1FFE71199486C40F00800CA
:10BA20004864FFE71198406C002866D0FFE79DF856
:10BA30004000800600280AD5FFE79DF83C008006FC
:10BA4000002804D5FFE7119801F0FEFAFFE71198EE
:10BA500000684069C0F380100C901198406C00079A
:10BA6000002804D4FFE70C9800283ED0FFE7119887
:10BA700001F08CFA119800684069400600282FD523
:10BA8000FFE7FFE7FFE71198006850E8050F20F097
:10BA900040000B90FFE70B991198026842E80510EF
:10BAA0000028F0D1FFE7FFE71198C06B98B1FFE7DE
:10BAB0001198C16B4CF66D70C0F600004863119888
:10BAC000C06BFDF793FD28B1FFE71198C06B416B88
:10BAD0008847FFE703E01198FFF71CFFFFE703E04B
:10BAE0001198FFF717FFFFE706E01198FFF712FF25
:10BAF000119900204864FFE7FFE722E11198006BED
:10BB0000012840F0FE80FFE79DF84000C0060028B5
:10BB100040F1F780FFE79DF83C00C006002840F1A7
:10BB2000F080FFE7FFE700200A90119800680068A6
:10BB30000A901198006840680A900A98FFE71198E7
:10BB4000006840694006002840F18180FFE71198B5
:10BB5000C06B00684068ADF82600BDF826000028DC
:10BB600074D0FFE7BDF826001199898D88426DDAFF
:10BB7000FFE7BDF826001199C8851198C06B806950
:10BB8000202858D0FFE7FFE7FFE71198006850E84A
:10BB9000030F20F480700890FFE70899119802685D
:10BBA00042E803100028F0D1FFE7FFE7FFE7FFE7D7
:10BBB0001198006850E8050F20F001000790FFE79A
:10BBC00007991198026842E805100028F0D1FFE7B4
:10BBD000FFE7FFE7FFE71198006850E8050F20F046
:10BBE00040000690FFE706991198026842E80510A8
:10BBF0000028F0D1FFE7FFE71199202081F84200EB
:10BC0000119900200863FFE7FFE71198006850E8EA
:10BC1000030F20F010000590FFE7059911980268C6
:10BC200042E803100028F0D1FFE7FFE71198C06B4E
:10BC3000FDF79EFCFFE71199022048631198818D62
:10BC4000C28D891A89B2FFF711FEFFE779E01199D9
:10BC5000888DC98D401AADF812001198C08D00284A
:10BC60004ED0FFE7BDF81200002849D0FFE7FFE7FC
:10BC7000FFE71198006850E8030F20F490700390DC
:10BC8000FFE703991198026842E803100028F0D1F9
:10BC9000FFE7FFE7FFE7FFE71198006850E8050FAF
:10BCA00020F001000290FFE702991198026842E833
:10BCB00005100028F0D1FFE7FFE71199202081F857
:10BCC0004200119900200863FFE7FFE71198006820
:10BCD00050E8030F20F010000190FFE70199119840
:10BCE000026842E803100028F0D1FFE7FFE711994E
:10BCF000022048631198BDF81210FFF7B7FDFFE767
:10BD00001FE09DF84000000600280AD5FFE79DF8D7
:10BD10003C000006002804D5FFE7119801F0DAFA8C
:10BD20000FE09DF84000400600280AD5FFE79DF887
:10BD30003C004006002804D5FFE7119801F070F997
:10BD4000FFE712B080BD000080B582B0009000987F
:10BD500020B9FFE701208DF8070040E000988069D6
:10BD600008B1FFE700E0FFE7009890F8410040B914
:10BD7000FFE70099002081F84000009800F034F8B7
:10BD8000FFE70099242081F8410000980168C86805
:10BD900020F40050C860009801F00CFA0098016887
:10BDA000086920F49040086100980168486920F013
:10BDB0002A00486100980168C86840F40050C860D3
:10BDC000009900204864009A202182F84110009ACE
:10BDD00082F84210009948638DF80700FFE79DF84C
:10BDE000070002B080BD000080B58CB00B90002031
:10BDF0000A900990089007900B98006843F600019C
:10BE0000C4F20101884243D1FFE7FFE741F2180085
:10BE1000C4F20200016841F480410160006800F44E
:10BE2000804006900698FFE7FFE741F21800C4F251
:10BE30000200016841F004010160006800F00400A4
:10BE400005900598FFE74FF40070079002200890D6
:10BE500003200A9040F60000C4F20100019007A9F7
:10BE60000291FDF771FD019802994FF480620792EB
:10BE70000022039208920992FDF766FD039A25209D
:10BE800004900521FEF75CFA0498FEF74FFAFFE7ED
:10BE90000CB080BD81B0009001B0704780B58AB011
:10BEA00008900791ADF81A20059300200290089899
:10BEB00090F84100202840F08180FFE7079820B1EA
:10BEC000FFE7BDF81A0020B9FFE701208DF8270031
:10BED00078E00899002048640899212081F8410001
:10BEE000FDF7F6FE0290BDF81A0008998884BDF8A7
:10BEF0001A000899C88408988068B0F5805F09D155
:10BF0000FFE70898006928B9FFE700200490079828
:10BF1000039004E00798049000200390FFE7FFE7F8
:10BF20000898C08C78B3FFE70898029B05996A4689
:10BF300011608021002201F017FA40B1FFE7089953
:10BF4000202081F8410003208DF827003AE0049872
:10BF500058B9FFE7039800886FF35F2008990968D4
:10BF6000486003980230039008E00498007808992C
:10BF700009684860049801300490FFE70899C88C6C
:10BF80000138C884CCE70898029B05996A4611607D
:10BF90004021002201F0E8F940B1FFE70899202094
:10BFA00081F8410003208DF827000BE0089920203C
:10BFB00081F8410000208DF8270003E002208DF871
:10BFC0002700FFE79DF827000AB080BD81B00090F0
:10BFD00001B07047FFE7FEE782B00090009800686C
:10BFE000406900F480610120B0EB912F1ED1FFE782
:10BFF000009801686FF48060486100990020086330
:10C00000009A202182F83D10009981F83E000099A5
:10C01000086C40F004000864FFE70099002081F8F4
:10C020003C00FFE701208DF8070003E000208DF8B9
:10C030000700FFE79DF8070002B0704780B586B0A3
:10C04000DDF824C0DDF820C00490ADF80E10ADF886
:10C050000C20ADF80A3004980168086840F480703C
:10C0600008600498089B09996A4611604FF0011115
:10C07000002200F0D7F880B1FFE70498006800685C
:10C08000C005002805D5FFE704994FF40070086447
:10C09000FFE703208DF8170069E0BDF80E0000F0FF
:10C0A000FE000499096808610498089A099B022116
:10C0B000C0F2010100F03AF920B1FFE701208DF84C
:10C0C000170054E0FFE700200190049800684069E1
:10C0D000019004980068806901900198FFE7049836
:10C0E0000899099A00F0CCF980B1FFE70498006C38
:10C0F000042807D1FFE704980168086840F400703D
:10C100000860FFE701208DF8170030E0BDF80A0055
:10C11000012806D1FFE79DF80C0004990968086121
:10C1200021E09DF80D0004990968086104980899B8
:10C13000099A00F0A5F980B1FFE70498006C042883
:10C1400007D1FFE704980168086840F400700860B0
:10C15000FFE701208DF8170009E09DF80C00049915
:10C1600009680861FFE700208DF81700FFE79DF8D8
:10C17000170006B080BD000080B584B00290019128
:10C180000092FFE702980068406900F00401002077
:10C19000B0EB910F3ED1FFE70298FFF71DFF20B1F2
:10C1A000FFE701208DF80F0038E00198013080B3DF
:10C1B000FFE7FDF78DFD0099401A0199884203D8E9
:10C1C000FFE7019820BBFFE702980068406900F094
:10C1D00004010020B0EB910F19D1FFE70299002074
:10C1E0000863029A202182F83D10029981F83E00EE
:10C1F0000299086C40F020000864FFE702990020D3
:10C2000081F83C00FFE701208DF80F0006E0FFE712
:10C21000FFE7B7E700208DF80F00FFE79DF80F005C
:10C2200004B080BD80B588B0DDF828C006900591C7
:10C230008DF813200393FFE79DF8160001280CD119
:10C24000FFE7069800684069BDF814100840401ADE
:10C25000B0FA80F0400902900BE00698006880690F
:10C26000BDF814100840401AB0FA80F0400902905E
:10C27000FFE702989DF8131088424FD1FFE703981B
:10C280000130002849D0FFE7FDF722FD0A99401A46
:10C290000399884203D8FFE70398E8BBFFE79DF8BE
:10C2A000160001280CD1FFE7069800684069BDF828
:10C2B00014100840401AB0FA80F0400901900BE0D9
:10C2C000069800688069BDF814100840401AB0FA5A
:10C2D00080F040090190FFE701989DF81310884213
:10C2E00019D1FFE7069900200863069A202182F8F9
:10C2F0003D10069981F83E000699086C40F0200038
:10C300000864FFE70699002081F83C00FFE7012060
:10C310008DF81F0006E0FFE7FFE78DE700208DF8AE
:10C320001F00FFE79DF81F0008B080BD80B588B0F2
:10C330000690059104920393FFE79DF816000128EB
:10C340000CD1FFE7069800684069BDF8141008405A
:10C35000401AB0FA80F0400902900BE0069800689D
:10C360008069BDF814100840401AB0FA80F0400906
:10C370000290FFE7029800287AD1FFE7069800684C
:10C38000406900F480610120B0EB912F24D1FFE7D8
:10C3900006980168086840F4007008600698016813
:10C3A0006FF480604861069900200863069A202196
:10C3B00082F83D10069981F83E000699086C40F01D
:10C3C00004000864FFE70699002081F83C00FFE7BD
:10C3D00001208DF81F004FE004980130002846D05E
:10C3E000FFE7FDF775FC0399401A0499884203D8CA
:10C3F000FFE70498D0BBFFE79DF8160001280CD199
:10C40000FFE7069800684069BDF814100840401A1C
:10C41000B0FA80F0400901900BE00698006880694E
:10C42000BDF814100840401AB0FA80F0400901909D
:10C43000FFE70198C8B9FFE7069900200863069A4C
:10C44000202182F83D10069981F83E000699086C7B
:10C4500040F020000864FFE70699002081F83C00C6
:10C46000FFE701208DF81F0006E0FFE7FFE764E724
:10C4700000208DF81F00FFE79DF81F0008B080BD69
:10C4800080B584B0029001910092FFE702980068A5
:10C490004069C1B20020B0EBD11F3DD1FFE7029847
:10C4A000FFF79AFD20B1FFE701208DF80F0037E07C
:10C4B0000198013078B3FFE7FDF70AFC0099401AB4
:10C4C0000199884203D8FFE7019818BBFFE702985B
:10C4D00000684069C1B20020B0EBD11F19D1FFE75D
:10C4E000029900200863029A202182F83D100299E7
:10C4F00081F83E000299086C40F020000864FFE7D4
:10C500000299002081F83C00FFE701208DF80F0020
:10C5100006E0FFE7FFE7B9E700208DF80F00FFE72F
:10C520009DF80F0004B080BD80B58CB002A80090CB
:10C530002821FBF732FE0099002207920892012081
:10C5400009902023029303924FF6E073C0F20F0389
:10C550000493059206920A9044F28400C2F200000D
:10C560000190FCF7EFFB0198FCF752FF0CB080BD87
:10C5700080B586B00590049144F28400C2F20000B8
:10C5800000210191FCF79CFC01460198049A11706E
:10C590008DF80F00FFE79DF80F0004990978884295
:10C5A00023DAFFE705989DF80F1001EBC10100EBBE
:10C5B0008100029005989DF80F1001EBC10100EB7E
:10C5C00081002421FBF7E9FD029A02F11C0344F2E9
:10C5D0008400C2F200000021FCF79CFCFFE79DF8FC
:10C5E0000F0001308DF80F00D5E706B080BD0000C8
:10C5F00080B58AB0ADF8260008918DF81F20FFE7BE
:10C6000044F28400C2F20000FCF78EFD08B9FFE797
:10C61000F6E70020069005900490039002900190A8
:10C620000390BDF8261001919DF81F10059104900C
:10C630000090089A44F28400C2F2000001A96B46FF
:10C64000FCF7D4FA0AB080BD80B588B08DF81F0021
:10C650000691ADF816209DF81F00BDF8161008448D
:10C66000B0F5807F07DDFFE74DF6D060C0F6000033
:10C6700000F0A0FFABE008208DF815009DF81F002A
:10C6800000F00700C0F108008DF814000020ADF89C
:10C6900012009DF81F008DF81100BDF816009DF8DE
:10C6A0001410884218DCFFE79DF811200698BDF8A9
:10C6B000163069464FF47A7CC1F808C04B600860B8
:10C6C00044F2B400C2F20000A0210123FDF758FC9F
:10C6D0000520FDF717F97AE09DF8112006989DF8DE
:10C6E000143069464FF47A7CC1F808C04B6008608A
:10C6F00044F2B400C2F20000A0210123FDF740FC87
:10C700000520FDF7FFF89DF814109DF8110008446E
:10C710008DF811009DF81410BDF812000844ADF812
:10C7200012009DF81410BDF81600401AADF816005E
:10C73000FFE7BDF81600082828DBFFE79DF8112069
:10C740000698BDF81210084469464FF47A738B605E
:10C7500008234B60086044F2B400C2F20000A0213C
:10C760000123FDF70DFC0520FDF7CCF89DF8110025
:10C7700008308DF81100BDF812000830ADF8120035
:10C78000BDF816000838ADF81600D2E7BDF816005F
:10C7900001281BDBFFE79DF811200698BDF8121059
:10C7A0000844BDF8163069464FF47A7CC1F808C0D9
:10C7B0004B60086044F2B400C2F20000A0210123E3
:10C7C000FDF7DEFB0520FDF79DF8FFE7FFE708B06A
:10C7D00080BD000080B582B08DF807008DF806108E
:10C7E00000F0A0F800F02CF89DF8070000049DF878
:10C7F000061000EB01300090202000F051F89DF869
:10C80000020000F04DF89DF8010000F049F89DF895
:10C81000000000F045F800F01FF802B080BD0000F5
:10C8200080B582B044F20810C2F200000DF1070199
:10C8300001226423FEF764FB9DF8070002B080BD6F
:10C8400080B540F60040C4F201004FF48051002250
:10C85000FDF726FA80BD000080B540F60040C4F226
:10C8600001004FF480510122FDF71AFA80BD00004B
:10C8700080B582B0FFF7E4FFFFE7052000F010F875
:10C88000FFF7CEFF8DF807009DF80700C00708B935
:10C89000FFE700E0F1E7FFF7DFFF02B080BD000037
:10C8A00080B582B08DF8070044F20810C2F2000093
:10C8B0000DF1070101226423FEF74AFC02B080BD9E
:10C8C00080B584B003900291ADF8062000F02AF8FC
:10C8D000FFF7B6FF0220FFF7E3FF9DF80E00FFF71A
:10C8E000DFFF9DF80D00FFF7DBFF9DF80C00FFF761
:10C8F000D7FF00200090FFE70098BDF8061088429F
:10C900000ADAFFE702980099405CFFF7C9FFFFE7EA
:10C91000009801300090EFE7FFF79EFFFFF7A8FFB8
:10C9200004B080BD80B5FFF7A3FFFFF789FF0620A5
:10C93000FFF7B6FFFFF790FF80BD000080B582B023
:10C9400044F28400C2F20000019046F20041C4F2B9
:10C95000000101602421416000218160C1604FF429
:10C96000803202614FF480124261017601224276E8
:10C970008276C17601774177FCF70EFC18B1FFE7AC
:10C98000FCF72CF9FFE702B080BD000080B544F24F
:10C99000AC00C2F2000043F20001C4F202010160E7
:10C9A000FCF7A8FD18B1FFE7FCF718F9FFE780BD19
:10C9B00080B590B000200F900E900D900C90FFE786
:10C9C00041F21800C4F20200016841F04001016028
:10C9D000006800F040000B900B98FFE7FFE741F282
:10C9E0001800C4F20200016841F010010160006803
:10C9F00000F010000A900A98FFE7FFE741F21800E4
:10CA0000C4F20200016841F008010160006800F012
:10CA1000080009900998FFE7FFE741F21800C4F207
:10CA20000200016841F004010160006800F00400A8
:10CA300008900898FFE741F60000C4F20100019059
:10CA40002021079101220292FDF72AF9029A40F66D
:10CA50000040C4F2010005904FF48151FDF720F928
:10CA60000198079A02990C920D91002103910E9161
:10CA7000022104910F910CA90691FCF765FF029B1E
:10CA8000039A059806994FF4805CCDF830C00D9359
:10CA90000E9203220F92FCF757FFDDF808C0039BAC
:10CAA000049A05980699DDF81CE0CDF830E0CDF841
:10CAB00034C00E930F92FCF747FF10B080BD00000A
:10CAC00080B582B044F2B400C2F20000019045F299
:10CAD0000041C4F20001016048F2A061C0F201010E
:10CAE000416000218160C1604FF480420261416178
:10CAF0008161C1610162FDF7F1F818B1FFE7FCF750
:10CB00006DF8FFE702B080BD80B582B044F2081036
:10CB1000C2F20000019043F60001C4F2000101607E
:10CB20004FF48271416000218160C1600161416107
:10CB30004FF4007282611022C2610162416281621F
:10CB40000A21C162FEF712F918B1FFE7FCF746F8B7
:10CB5000FFE702B080BD000080B582B044F26010F3
:10CB6000C2F20000019043F60001C4F2010101602D
:10CB70004FF4E131416000218160C16001610C220C
:10CB800042618161C161FFF7DFF818B1FFE7FCF78F
:10CB900025F8FFE702B080BDFFE7FEE7FFE7FEE70D
:10CBA00088B0079006910592079800F0070004905E
:10CBB0000498C0F10700052803D3FFE70420019083
:10CBC00004E00498C0F107000190FFE7019803908A
:10CBD00004980430062803D8FFE70020009003E003
:10CBE000049803380090FFE7009802900698039994
:10CBF000012202FA01F101390840029B984005998F
:10CC00009A40013A1140084308B07047704700004D
:10CC100082B00190019840F20401C2F2000109685B
:10CC2000C90844F6D352C1F26202A1FB022189096C
:10CC300048430090FFE700BFFFE70098411E0091C6
:10CC40000028F8D1FFE702B07047000080B586B039
:10CC500004900391029204984068B0F5827F13D14A
:10CC6000FFE704988068B0F5004F06D0FFE704980E
:10CC70008068B0F5806F07D1FFE704980168086805
:10CC800020F040000860FFE704984068B0F5827F1C
:10CC90001BD1FFE704988068B0F5806F15D1FFE7DE
:10CCA0000498039B02996A4611600121002200F05A
:10CCB0005FF848B1FFE70499486D40F020004865EF
:10CCC00003208DF8170019E014E00498039B0299E3
:10CCD0006A4611608021002200F04AF848B1FFE75F
:10CCE0000499486D40F02000486503208DF8170036
:10CCF00004E0FFE700208DF81700FFE79DF817001C
:10CD000006B080BD80B586B004900391029204986D
:10CD1000039B02996A4611600221012200F028F863
:10CD200048B1FFE70499486D40F0200048650320B2
:10CD30008DF8170017E00498039B02996A4611606A
:10CD40008021002200F014F848B1FFE70499486DF3
:10CD500040F02000486503208DF8170003E0002014
:10CD60008DF81700FFE79DF8170006B080BD0000A2
:10CD700080B58AB0DDF830C0089007918DF81B208F
:10CD8000059305980190FCF7A3FF024601980C99C2
:10CD9000891A08440390FCF79BFF0290039840F225
:10CDA0000401C2F200010968C1F3CB314843049089
:10CDB000FFE708980068806807990840401AB0FAB1
:10CDC00080F040099DF81B1088425ED0FFE705986F
:10CDD0000130002858D0FFE7FCF77AFF0299401A8B
:10CDE0000399884204D2FFE70398002842D1FFE765
:10CDF00008980168486820F0E0004860089840689A
:10CE0000B0F5827F13D1FFE708988068B0F5004F36
:10CE100006D0FFE708988068B0F5806F07D1FFE77C
:10CE200008980168086820F040000860FFE708984B
:10CE3000806AB0F5005F0FD1FFE7FFE7089801684F
:10CE4000086820F40050086008980168086840F4F9
:10CE500000500860FFE7FFE70899012081F85100C2
:10CE6000FFE70899002081F85000FFE703208DF8C4
:10CE700027000EE0049818B9FFE700200390FFE7B1
:10CE8000049801380490FFE793E700208DF827000D
:10CE9000FFE79DF827000AB080BD00007047000042
:10CEA00080B582B0009000980138B0F1807F03D344
:10CEB000FFE70120019019E0009801384EF21401BB
:10CEC000CEF2000108604FF0FF300F2100F0E4FACD
:10CED0004EF21801CEF20001002008604EF210025E
:10CEE000CEF20002072111600190FFE7019802B025
:10CEF00080BD000080B5FDF78DF980BD80B590B094
:10CF000006A800902821FBF748F900980023059314
:10CF10000493039302930193012206924FF480310C
:10CF2000079108930A9202220D920E914FF4E0119C
:10CF30000F91FDF7DDFB18B1FFE7FBF74FFEFFE7B1
:10CF40000F20019002210291002003904FF4806293
:10CF50000492059001A8FDF717FA18B1FFE7FBF757
:10CF60003DFEFFE710B080BD7047000080B582B085
:10CF700001900198406A009000990020C8850099AE
:10CF8000C8840098FEF7C6FC02B080BD84B0039050
:10CF9000FFE7FFE70398006850E8030F20F4907064
:10CFA0000290FFE702990398026842E80310002804
:10CFB000F0D1FFE7FFE7FFE7FFE70398006850E8DD
:10CFC000050F20F001000190FFE701990398026826
:10CFD00042E805100028F0D1FFE7FFE70398006B57
:10CFE000012814D1FFE7FFE7FFE70398006850E846
:10CFF000030F20F010000090FFE7009903980268EB
:10D0000042E803100028F0D1FFE7FFE7FFE70399AC
:10D01000202081F8420003990020086304B0704783
:10D0200080B582B0019001980168C86820F0400086
:10D03000C8600199202081F841000198FEF7C6FFE1
:10D04000002002B080BD000080B586B00490049836
:10D0500090F84200222840F0A480FFE704988068FE
:10D06000B0F5805F15D1FFE70498006988B9FFE744
:10D07000002003900498806A029004980068406839
:10D080006FF35F20029908800499886A02308862F1
:10D0900025E00498806A039000200290049880683C
:10D0A000B0F5805F08D0FFE70498806850B9FFE7CB
:10D0B0000498006930B9FFE7049800684068039954
:10D0C000087007E004980068406800F07F0003994A
:10D0D0000870FFE70499886A01308862FFE70499C5
:10D0E000C88D0138C8850004002856D1FFE7049890
:10D0F0000168C86820F02000C86004980168C8680A
:10D1000020F48070C86004980168486920F001002C
:10D1100048610499202081F8420004990020486366
:10D120000498006B012830D1FFE7049900200863C0
:10D13000FFE7FFE70498006850E8030F20F01000B5
:10D140000190FFE701990498026842E80310002863
:10D15000F0D1FFE7FFE7049800680068C0060028E8
:10D160000ED5FFE7FFE700200090049800680068F4
:10D17000009004980068406800900098FFE7FFE77F
:10D180000498818DFEF772FB03E00498FEF782FE9F
:10D19000FFE700208DF8170007E000208DF817004A
:10D1A00003E002208DF81700FFE79DF8170006B096
:10D1B00080BD000080B584B00390039800680069CA
:10D1C00020F44050039A1168D26810430861039913
:10D1D00088680A6949691043084302900398006807
:10D1E000C06841F20C6188430299084303990968B9
:10D1F000C86003980068406920F44070039A116881
:10D200009269104348610398006843F60001C4F234
:10D210000101884204D1FFE7FDF7FAF9019003E02C
:10D22000FDF7E4F90190FFE7019819214843039ABB
:10D23000116852689200B0FBF2FC48F21F52C5F22E
:10D24000EB12ACFB02304309642003FB10CC32200C
:10D2500000EB0C10A0FB0202F02000EA521000EBE1
:10D260000310C2F343121044886004B080BD000074
:10D2700083B002900191ADF8022001980299886272
:10D28000BDF8020002998885BDF802000299C885A0
:10D290000299002048640299222081F842000298F5
:10D2A000006938B1FFE702980168C86840F48070EF
:10D2B000C860FFE702980168486940F001004861D2
:10D2C00002980168C86840F02000C860002003B0E0
:10D2D0007047000083B00190019890F84100212828
:10D2E0003AD1FFE701988068B0F5805F13D1FFE77E
:10D2F0000198006978B9FFE70198006A00900098EA
:10D3000000886FF35F200199096848600199086AF5
:10D310000230086208E0019A106A411C116200782C
:10D32000019909684860FFE70199C88C0138C884F1
:10D33000000468B9FFE701980168C86820F0800020
:10D34000C86001980168C86840F04000C860FFE705
:10D3500000208DF80B0003E002208DF80B00FFE7A2
:10D360009DF80B0003B0704780B586B0DDF820C093
:10D37000049003918DF80B200193FFE70498006857
:10D38000006803990840401AB0FA80F040099DF8FF
:10D390000B1088424DD1FFE708980130002847D094
:10D3A000FFE7FCF795FC0199401A0899884203D8D9
:10D3B000FFE7089820B9FFE703208DF817003CE04D
:10D3C00004980068C0684007002830D5FFE703983C
:10D3D00080282CD0FFE70398402828D0FFE7049846
:10D3E0000068006800F008010120B0EBD10F1DD1EA
:10D3F000FFE7FFE7002000900498006800680090B5
:10D4000004980068406800900098FFE70498FFF7D0
:10D41000BDFD049908204864FFE70499002081F8C5
:10D420004000FFE701208DF8170006E0FFE7FFE767
:10D43000A4E700208DF81700FFE79DF8170006B05D
:10D4400080BD000080B544F26010C2F20000FEF71B
:10D4500065FA80BDFFE7FEE781B08DF803009DF916
:10D46000030000280ED4FFE79DF9031001F01F020E
:10D47000012090404A094EF20011CEF2000141F81D
:10D480002200FFE701B070474EF60C50CEF20000CC
:10D490000068C0F30220704782B08DF80700009149
:10D4A0009DF9070000280AD4FFE7009800019DF9C4
:10D4B00007104EF20042CEF2000288540BE00098B2
:10D4C00000019DF8071001F00F014EF61452CEF244
:10D4D00000028854FFE702B07047000083B002905A
:10D4E000029800F0070000904EF60C51CEF20001B9
:10D4F0000868019001984FF6FF02104001900198D2
:10D50000009A40EA02200022C0F2FA521043019031
:10D510000198086003B07047BFF34F8F4EF60C516F
:10D52000CEF20001086800F4E0600422C0F2FA5272
:10D5300010430860BFF34F8FFFE700BFFDE7000017
:10D5400080B582B00190009144F26010C2F20000F8
:10D5500001A901224FF47A73FEF7A0FC019802B0F2
:10D5600080BD000080B582B000200090EFF31080F5
:10D5700072B601904EF60851CEF2000148F200005A
:10D58000C0F60000086062B6FCF752FEFFF7B6FC7A
:10D59000FFF70EFAFFF7D2F9FFF7DEFAFFF7F6F919
:10D5A000FFF78EFAFFF7B0FAFBF710FAFFE7FBF789
:10D5B000CDFAFCE70FB4054B10B503A9044A029855
:10D5C00000F0DAF810BC5DF814FB000041D500084B
:10D5D0000000002002E008C8121F08C1002AFAD18A
:10D5E00070477047002001E001C1121F002AFBD1E3
:10D5F000704700002DE9FF5F82B00021DDE90430B3
:10D60000020DDDF840B0034318D044F61050A2F2EA
:10D61000FF3242431514119801281FD0A5EB0B00CF
:10D62000401C5FEA000A4FF000064E4FDFF83891C9
:10D63000B046504615D5CAF1000413E011980124F4
:10D640004AA3012801D16FEA0B010298119AC0E99F
:10D650000031C0E9024206B0BDE8F09FCBF1000006
:10D66000DFE704460021404A491842EB0450CDE967
:10D67000001012E0E00707D032463B4640464946DC
:10D68000FAF796FE8046894632463B4610461946D2
:10D69000FAF78EFE06460F466410002CEAD1DDE94B
:10D6A0000401DDE90023BAF1000F06DAFAF780FE83
:10D6B00042464B46FAF77CFE05E0FAF7EBFE42469F
:10D6C0004B46FAF7E7FE04460E460022284BFAF7CF
:10D6D00069FF03D84FF0FF30014607E00022254BD9
:10D6E00020463146FAF7BDFDFAF743FF102409E062
:10D6F000002C0ADB0A220023FAF782FD039B30325A
:10D700001A55641E50EA0102F2D1641C039AC4F156
:10D7100011031444119A012A03D0012208430DD1A8
:10D720000AE0084304D000204FF0110B119072E77B
:10D73000A3EB0B056D1E0DE05B4504DD4FF0000211
:10D7400005F1010504E003DA4FF00002A5F101053F
:10D75000002AECD002981199C0E90231C0E90045D5
:10D7600079E70000000014400000F03F30000000A6
:10D770000000F0430000E03F2DE9FF4F95B09B46CD
:10D780008946064600250FE2252877D10024274642
:10D79000F84A0121059400E0044316F8013F203BBC
:10D7A00001FA03F01042F7D130782A2811D06FF037
:10D7B0002F033078A0F13002092A16D8059A44F0D8
:10D7C000020402EB820203EB42021044761C059035
:10D7D000EFE759F8042B0592002A03DA504244F48B
:10D7E0000054059044F00204761C30782E2816D19F
:10D7F00016F8010F44F004042A280DD06FF02F0210
:10D800003078A0F13003092B09D807EB870302EB2E
:10D810004303C718761CF3E759F8047B761C30786D
:10D820006C280FD006DC4C2817D068280DD06A2849
:10D8300014D104E0742810D07A280FD10DE044F4FC
:10D8400000140AE044F4801401E044F440147278B7
:10D85000824202D104F58014761C761C307866284A
:10D860000BD013DC582877D009DC002875D0452868
:10D87000F6D04628F4D047281AD19DE118E0632855
:10D8800035D0642879D0652812D195E1702873D0FD
:10D8900008DC6728F1D069286FD06E280DD06F287A
:10D8A00006D1B5E073282CD0752875D0782874D0AF
:10D8B0005A46179990476D1C75E1C4F3025002282F
:10D8C00009D003280DD0D9F8001004280DD00D6020
:10D8D00009F1040967E1D9F80010EA17C1E900521B
:10D8E000F6E7D9F800100D80F2E70D70F0E719F8AF
:10D8F000041B8DF8001000208DF80100EA4601207D
:10D9000003E059F804AB4FF0FF3061074FF000011E
:10D9100002D40DE008F101018846B9420FDA8045D2
:10D92000F8DB1AF808100029F4D108E008F1010129
:10D9300088468142FADB1AF808100029F6D10598CA
:10D940005B46A0EB080721463846179A00F094FA88
:10D95000284400EB080507E04DE029E10DE01AF846
:10D96000010B5A4617999047B8F10108F7D25B4668
:10D9700021463846179A13E142E00A220092C4F386
:10D9800002524FF0000A022A08D059F804CB032AA9
:10D990004FEAEC710AD00DE029E02AE009F1070115
:10D9A00021F00702F2E802C1914609E00FFA8CFC6F
:10D9B0004FEAEC71042A03D14FFA8CFC4FEAEC7168
:10D9C000002907DA0A460021DCF1000C61EB0201B4
:10D9D0002D2202E0220504D52B228DF804200122FD
:10D9E00003E0E20701D02022F7E7904659E00A2140
:10D9F00002E010220DE010214FF0000A00910BE030
:10DA000010224FF0000A44F004040827009203E0BB
:10DA100008224FF0000A0092C4F30252022A05D0F5
:10DA200059F804CB0021032A08D009E009F10701C5
:10DA300021F00702F2E802C1914605E01FFA8CFCD2
:10DA4000042A01D10CF0FF0C4FF00008220728D562
:10DA5000702806D0009B83F0100353EA0A0305D018
:10DA60000EE040228DF80420012208E05CEA010269
:10DA700006D030228DF804208DF805000222904651
:10DA8000009B83F0080353EA0A030AD15CEA01020F
:10DA900001D1620705D530228DF804204FF001082E
:10DAA0007F1E582804D034A003900EA802900DE0E9
:10DAB00036A0F9E753466046009AFAF7A1FB844680
:10DAC0000398825C0298401E029002705CEA01009A
:10DAD000F0D1029806A9081A00F1200A600702D5C1
