:020000040800F2
:1000000038090020050100087D240008DB200008D5
:1000100079240008F5030008F52800080000000016
:10002000000000000000000000000000AD240008F7
:10003000F90300080000000081240008AF24000834
:100040001F0100081F0100081F0100081F01000810
:100050001F0100081F0100081F0100081F01000800
:100060001F0100081F0100081F0100081F010008F0
:100070001F0100081F0100081F0100081F010008E0
:100080001F0100081F0100081F0100081F010008D0
:100090001F0100081F0100081F0100081F010008C0
:1000A0001F0100081F0100081F0100081F010008B0
:1000B0001F0100081F0100081F0100081F010008A0
:1000C0001F0100081F0100081F0100081F01000890
:1000D0001F010008E52800081F0100081F01000893
:1000E0001F0100081F0100081F010008DFF810D0E1
:1000F00000F052F800480047E12A0008AFF3008002
:10010000380900200648804706480047FEE7FEE71A
:10011000FEE7FEE7FEE7FEE7FEE7FEE7FEE7FEE7B7
:100120001D250008ED000008202A04DB203A21FAF2
:1001300002F00021704721FA02F3D040C2F1200200
:100140009140084319467047D2B201E000F8012BF4
:10015000491EFBD270470022F6E710B513460A4647
:1001600004461946FFF7F0FF204610BD30B50B4698
:10017000014600202022012409E021FA02F59D42D7
:1001800005D303FA02F5491B04FA02F52844151EAB
:10019000A2F10102F1DC30BD064C074D06E0E0683B
:1001A00040F0010394E8070098471034AC42F6D3BE
:1001B000FFF7A0FF302B0008502B00082DE9F0417D
:1001C00004460D462646E81CC11700EB91718F10BE
:1001D00008480068806840F00100064909688860A6
:1001E0003A463146034800F00EFD80464046BDE8E1
:1001F000F08100000000002010B509A002F07CFB97
:1002000000200C49087001F06BFF0BA002F074FB9A
:100210000F48008818B942F660300D49088010BDBB
:100220004170705F7570646174655F696E69740DAB
:100230000A000000260000204170705F7570646144
:1002400074655F776169745F636D640D0A00000017
:100250001A00002010B52F4800882F4909888842CD
:1002600033DA00242C4800882A490988401A0828D3
:1002700001DB082405E02848007826490978401A5F
:10028000C4B2002008E023490988244A1144095CCB
:10029000234A1154411CC8B2A042F4DB1D48008817
:1002A00020441C49088022461D49012001F060FFBE
:1002B00018490888C11700EB11610912A0EB012150
:1002C00011B9642000F066FD22E016A002F014FBD4
:1002D0000020104908801B49087040F6340000F0E7
:1002E00059FD0D4801880D48FFF768FF04460C488A
:1002F00000210160416001460C70200A4870200C0A
:100300008870200EC8700422012001F031FF00BF68
:1003100010BD0000280000201A0000200080000806
:100320002A0000204170705F7570646174655F73AE
:10033000656E645F6170705F66696E6973680D0AEF
:10034000000000002600002010B51849184801F0F0
:10035000E9FE002425E004EBC400154951F8200013
:10036000E8B904EBC40001EB8000007F682816D1D7
:1003700004EBC40001EB8000407F6A280FD104EB3E
:10038000C40001EB8000807F632808D10120094967
:10039000087009A002F0B0FA642000F0FBFC601CB9
:1003A000C4B2024800788442D5DB10BD270000208B
:1003B000C8040020260000204170705F75706461E1
:1003C00074655F73656E645F6170700D0A00000094
:1003D00010B50748007810B1012806D102E0FFF7F8
:1003E000B3FF03E0FFF736FF00E000BF00BF10BD22
:1003F0002600002000BFFEE7704772B600BFFEE790
:100400000021074AD1610749096941F00401054A01
:1004100011611146096941F0400111617047000006
:10042000A8000020002002400021074AD1610749AE
:10043000096941F00201054A1161114648610969E3
:1004400041F0400111617047A800002000200240E7
:100450000022054BDA61054A126942F00102034BA2
:100460001A61018070470000A800002000200240AF
:1004700000201E49C96801F0100139B11C49C96941
:1004800041F002011A4AD16140F010001749C968D1
:1004900001F0040139B11649C96941F00101144A5A
:1004A000D16140F004001149C96901F0010169B14D
:1004B0000F49C96941F004010D4AD16100BF0B49E0
:1004C000C96921F00101094AD16100BF00BF40F2B2
:1004D0000111884206D10549C96921F00101034A89
:1004E000D16101E00149C86000BF704700200240AF
:1004F000A800002070B5044600F0C2FE054609E0E1
:10050000601C38B124B100F0BBFE401BA04201D9F1
:10051000032070BD1248C06800F001000028EFD130
:100520000F48C06800F0200020B100BF20200C4917
:10053000C86000BF0A48C06800F0100048B9084809
:10054000C06900F0010020B90548C06800F004004F
:1005500018B1FFF78DFF0120DBE70020D9E700008D
:1005600000200240F0B504460D461E4694F8207067
:1005700020688368A86800B900E000BF012F01D09F
:10058000022F7DD103F0806030B903F0006018B90C
:1005900003F0805000287ED0C3F301610120884021
:1005A0003060A86860B9B5F800C0E86840EA4C5C03
:1005B000206800F5C07000EB0110C0F800C00FE02B
:1005C000D5E901C040EACC00D5F80CC040EA0C00E7
:1005D000D4F800C00CF5C07C0CEB011CCCF800007A
:1005E000D5F810C0206800F5C07000EB0110C0F80D
:1005F00004C0287D01280ED1206800F5C07000EBF2
:100600000110406840F4807C206800F5C07000EB69
:100610000110C0F804C0D079000692F806C040EA84
:100620000C4092F805C040EA0C2092F804C040EA61
:100630000C00D4F800C00CF5C07C0CEB011CCCF80D
:100640000C00D078000692F802C040EA0C4092F804
:1006500001C040EA0C2092F800C040EA0C00D4F837
:1006600000C00CF5C07C0CEB011CCCF80800206825
:1006700000F5C07000EB0110006840F0010C01E0D3
:100680000FE008E0206800F5C07000EB0110C0F832
:1006900000C00020F0BD606A40F4001060620120DC
:1006A000F8E7606A40F4802060620120F2E7F0B56C
:1006B00004460A46216894F82050012D01D0022DED
:1006C00074D1D1F8000240F00100C1F80002107DA1
:1006D00000F01F06012000FA06F3D1F81C0298432F
:1006E000C1F81C02D069C8B9D1F80C029843C1F80E
:1006F0000C02908880B2968940EA064601F5107097
:10070000576940F83760108880B2168940EA06467B
:1007100001F51070576900EBC7004660D0690128E9
:1007200019D1D1F80C021843C1F80C02908880B29C
:10073000168840EA064601F51070576940F83760A0
:10074000908980B2168940EA064601F51070576913
:1007500000EBC7004660906928B9D1F804029843BD
:10076000C1F8040204E0D1F804021843C1F80402FD
:10077000106928B9D1F814029843C1F8140204E0B2
:10078000D1F814021843C1F81402106A012804D1E8
:10079000D1F81C021843C1F81C02D1F8000220F065
:1007A0000100C1F800020020F0BDFFE7606A40F4DC
:1007B000802060620120F7E710B50246002092F821
:1007C0002030012B01D0022B09D121B91468E46833
:1007D00004F0030003E01468246904F0030010BD72
:1007E00070B5044694F82050012D01D0022D7DD122
:1007F00051B92068C06800F0030080B9606A40F415
:1008000000106062012070BD2068006900F00300E4
:1008100028B9606A40F4001060620120F3E72068A4
:1008200000F5D87000EB0110006800F00400906043
:10083000906840B9206800F5D87000EB011000689E
:10084000400D106007E0206800F5D87000EB011043
:100850000068C0085060206800F5D87000EB0110F7
:10086000006800F00200D060206800F5D87000EB4E
:100870000110406800F00F00082802D30820106122
:1008800008E0206800F5D87000EB0110406800F027
:100890000F001061206800F5D87000EB011040686F
:1008A00000F47F40000A9061206800F5D87000EBEA
:1008B00001104068000C5061206800F5D87000EB12
:1008C000011080681870206800F5D87000EB0110E6
:1008D000806800F47F40000A5870206800F5D870E6
:1008E00000EB0110806800F47F0000E03CE0000CA9
:1008F0009870206800F5D87000EB01108068000E39
:10090000D870206800F5D87000EB0110C06818712D
:10091000206800F5D87000EB0110C06800F47F403B
:10092000000A5871206800F5D87000EB0110C0680B
:1009300000F47F00000C9871206800F5D87000EB7F
:100940000110C068000ED87131B92068C06840F04D
:1009500020002668F06005E02068006940F0200073
:100960002668306100204EE7606A40F480206062B3
:10097000012048E70146002091F82020012A01D0FB
:10098000022A11D10B689B6803F0806303B1401CFD
:100990000B689B6803F0006303B1401C0B689B6805
:1009A00003F0805303B1401C704770B504460CB986
:1009B000012070BD94F8200010B9204600F0B0F876
:1009C0002068006840F001002168086000F058FCD1
:1009D00005460DE000F054FC401B0A2808D9606A67
:1009E00040F400306062052084F820000120E0E738
:1009F0002068406800F001000028EBD02068006803
:100A000020F002002168086000F03AFC05460DE085
:100A100000F036FC401B0A2808D9606A40F4003018
:100A20006062052084F820000120C2E72068406849
:100A300000F002000028EBD1207E012806D12068BA
:100A4000006840F080002168086005E020680068C8
:100A500020F0800021680860607E012806D12068AF
:100A6000006840F040002168086005E020680068E8
:100A700020F0400021680860A07E012806D120688F
:100A8000006840F020002168086005E020680068E8
:100A900020F0200021680860E07E012806D120684F
:100AA000006820F010002168086005E020680068F8
:100AB00040F0100021680860207F012806D12068DE
:100AC000006840F008002168086005E020680068C0
:100AD00020F0080021680860607F012806D12068A6
:100AE000006840F004002168086005E020680068A4
:100AF00020F0040021680860D4E90201084321695C
:100B00000843616908436168491E08432168C86158
:100B100000206062012084F82000002049E70000E6
:100B200010B586B004460020029003900490059012
:100B30001A49206888422ED100BF1948C06940F088
:100B400000701749C8610846C06900F00070019044
:100B500000BF00BF00BF0846806940F00400886104
:100B60000846806900F00400019000BF00BFC8146F
:100B7000029000200390049002A90A4800F0F0F9C6
:100B80004FF480500290022003900320059002A9A8
:100B9000044800F0E5F906B010BD00000064004014
:100BA000001002400008014070B5044694F820008F
:100BB000012822D1022084F820002068006820F05B
:100BC00001002168086000F05BFB05460DE000F0C5
:100BD00057FB401B0A2808D9606A40F40030606265
:100BE000052084F82000012070BD2068406800F0D6
:100BF00001000028EBD16062F6E7606A40F4002053
:100C000060620120F0E770B503460C460020022523
:100C10005D711D68AD6845F001051E68B560002175
:100C200004E054F821501E683560491C9142F8D305
:100C30001D68286801255D7170BD10B504460CB9AA
:100C4000012010BD607920B900202071204600F0FD
:100C500005F8012060710020F3E7000008B5094A9B
:100C6000016891420DD100BF0749496941F0400137
:100C7000054A51611146496901F04001009100BFE8
:100C800000BF08BD003002400010024001460022B3
:100C900091F82100022808D00420886300BF0020BA
:100CA00081F8200000BF012070470868006820F02C
:100CB0000E000B6818600868006820F001000B68DF
:100CC000186091F8403001209840CB6B58600120AB
:100CD00081F8210000BF002081F8200000BF1046ED
:100CE000E2E7000070B50446002594F821000228D0
:100CF00003D00420A063012548E02068006820F0AC
:100D00000E00216808602068006820F0010021685A
:100D100008601F492068884201D1012026E01C4953
:100D200014312068884201D110201FE01849283171
:100D30002068884201D1801518E015493C312068AF
:100D4000884201D1801411E0114950312068884255
:100D500002D14FF4803009E00D49643120688842A7
:100D600002D14FF4801001E04FF08070084908393B
:100D70004860012084F8210000BF002084F8200092
:100D800000BF606B10B12046616B8847284670BD7C
:100D90000800024070B5044600F072FA0646254687
:100DA000681C10B104480078054400BF00F068FAE0
:100DB000801BA842FAD370BD100000202DE9F0413D
:100DC00004460E460127002500BF2648007E012864
:100DD00002D10220BDE8F08101202249087600BF3F
:100DE0002068022813D14CF25030FFF783FB90BBF0
:100DF0000120FFF705FB4CF25030FFF77BFB074665
:100E00001948006920F004001749086123E04CF2FA
:100E10005030FFF76FFBF0B94FF0FF303060A5683E
:100E200012E02846FFF700FB4CF25030FFF762FB60
:100E300007460D48006920F002000B4908610FB118
:100E4000356007E005F58065D4E9021001EB8020EC
:100E5000A842E6D800BF00BF00200249087600BFC4
:100E60003846B7E7A8000020002002400348006988
:100E700040F08000014908610020704700200240D6
:100E80002DE9FE4F05468B4617469846012600245D
:100E90000020029000BF2448007E012802D10220D9
:100EA000BDE8FE8F01202049087600BF4CF250308B
:100EB000FFF720FB064686BB012D02D101200290E0
:100EC00006E0022D02D10220029001E004200290EF
:100ED00000241EE02201B946C24648465146FFF7AB
:100EE00023F980B20190022000FB04B00090019928
:100EF000FFF7AEFA4CF25030FFF7FCFA06460B480B
:100F0000006920F001000949086106B104E0601C95
:100F1000C4B202988442DDDB00BF00BF002002495A
:100F2000087600BF3046BBE7A80000200020024042
:100F300000200849096901F0800151B10649054ABC
:100F40005160064951601146096901F0800101B103
:100F5000012070470020024023016745AB89EFCD97
:100F60002DE9F8470346002294466EE14FF0010850
:100F700008FA02F4D1F8008008EA0400A0427DD10A
:100F8000DFF8DCA2D1F80480A8EB0A09D0453AD0FA
:100F900014DCB8F1030F50D009DCB8F1000F31D0E8
:100FA000B8F1010F1CD0B8F1020F49D120E0B8F11F
:100FB000110F18D0B8F1120F42D11EE0B9F5881FF9
:100FC00025D006DCB9F5803F20D0B9F5801F37D198
:100FD0001AE0B9F5001F18D0B9F5041F30D117E099
:100FE000D1F80CC02DE0D1F80C8008F1040C28E0F9
:100FF000D1F80C8008F1080C23E0D1F80C8008F13E
:101000000C0C1EE000BF00BF00BF00BF00BF00BF50
:10101000D1F80880B8F1000F02D14FF0040C0BE0BA
:10102000D1F80880B8F1010F03D14FF0080C1C6112
:1010300002E04FF0080C5C6103E04FF0000C00E0B0
:1010400000BF00BFFF2801D8984601E003F1040863
:101050004646FF2802D84FEA820803E0A2F10808BA
:101060004FEA88084746D6F800804FF00F0909FA82
:1010700007F928EA09080CFA07F900E088E048EACD
:101080000908C6F80080D1F8048008F08058B8F14B
:10109000805F7DD100BFDFF8CC81D8F8188048F0A0
:1010A0000108DFF8C091C9F81880C846D8F8188040
:1010B00008F00108CDF8008000BF00BF4FEAB93842
:1010C0004FEA920958F829504FEA82784FEA187986
:1010D0004FF00F0808FA09F825EA0805DFF88881BB
:1010E000434502D14FF0000816E0DFF88081434508
:1010F00002D14FF001080FE0DFF87481434502D1BF
:101100004FF0020808E0DFF86C81434502D14FF050
:10111000030801E04FF004084FEA82794FEA197999
:1011200008FA09F848EA0505DFF84C814FEA920908
:1011300048F82950D1F8048008F48018B8F5801FC9
:101140000AD1DFF83881D8F8008048EA0008DFF8D3
:101150002C91C9F8008009E0DFF82081D8F80080E0
:1011600028EA0008DFF81491C9F80080D1F804805B
:1011700008F40018B8F5001F10D1DFF8008108F15D
:101180000408D8F8008048EA0008DFF8F09000E092
:101190005AE009F10409C9F800800DE0DFF8DC80AD
:1011A00008F10408D8F8008028EA0008DFF8CC909D
:1011B00009F10409C9F80080D1F8048008F4003866
:1011C000B8F5003F0ED1DFF8B480A8F10408D8F8D4
:1011D000008048EA0008DFF8A490A9F10409C9F8E2
:1011E00000800DE0DFF89480A8F10408D8F80080B2
:1011F00028EA0008DFF88490A9F10409C9F8008002
:10120000D1F8048008F48038B8F5803F0ED1DFF8BB
:101210006C80A8F10808D8F8008048EA0008DFF8D8
:101220005C90A9F10809C9F800800DE0DFF84C8056
:10123000A8F10808D8F8008028EA0008DFF83C90F8
:10124000A9F10809C9F80080521CD1F8008028FAD9
:1012500002F8B8F1000F7FF489AEBDE8F88700000E
:10126000000011100010024000080140000C014075
:101270000010014000140140080001400804014032
:10128000014800687047000008000020034800681B
:1012900003490978084401490860704708000020A4
:1012A0001000002010B50848006840F01000064902
:1012B0000860032000F0A8F80F2000F007F800F005
:1012C0002BF8002010BD00000020024070B504463D
:1012D0000E4800784FF47A71B1FBF0F00C490968C0
:1012E000B1FBF0F5284600F0F9FB08B1012070BD14
:1012F000102C07D200222146501E00F047F8054866
:10130000046001E00120F2E70020F0E71000002077
:10131000140000200C00002008B500BF11488069AF
:1013200040F001000F4988610846806900F0010023
:10133000009000BF00BF00BF0846C06940F0805069
:10134000C8610846C06900F08050009000BF00BF2F
:1013500000BF0549486820F0E06040F00070486038
:1013600000BF08BD001002400000014001460846D1
:10137000002809DB00F01F0301229A4043099B006B
:1013800003F1E023C3F8002100BF70472DE9F05FAF
:1013900080460D461646002701F0BEFA074639463C
:1013A0002A46334601F00700C0F1070ABAF1040FDC
:1013B00002D94FF0040A01E0C0F1070AD14600F15A
:1013C000040ABAF1070F02D24FF0000A01E0A0F1BF
:1013D000030AD4464FF0010A0AFA09FAAAF1010AEF
:1013E0000AEA020A0AFA0CFA4FF0010B0BFA0CFB9C
:1013F000ABF1010B0BEA030B4AEA0B042146404612
:1014000001F092FABDE8F09F00BF00F00702064B22
:1014100019684FF6FF031940044B0B4343EA0221BE
:10142000014B196000BF70470CED00E00000FA05A9
:1014300070B504460D460CB9012070BD5A480068CD
:1014400000F00700A8420ED25748006820F00700BD
:101450002843554908600846006800F00700A84284
:1014600001D00120E9E7207800F0020002281DD118
:10147000207800F00400042805D14C48406840F46E
:10148000E0604A494860207800F00800082805D14B
:101490004648406840F460504449486043484068CA
:1014A00020F0F000A168084340494860207800F02F
:1014B000010078B36068012806D13C48006800F458
:1014C000003090B90120B8E76068022806D137489B
:1014D000006800F0007040B90120AEE733480068B2
:1014E00000F0020008B90120A7E73048406820F06A
:1014F0000300616808432D494860FFF7C1FE0646B6
:1015000009E0FFF7BDFE801B41F28831884202D915
:10151000032092E707E02548406800F00C0061686E
:10152000B0EB810FEDD12048006800F00700A84221
:101530000ED91D48006820F0070028431A490860AA
:101540000846006800F00700A84201D0012074E7B7
:10155000207800F00400042807D11448406820F4E3
:10156000E060E168084311494860207800F0080015
:10157000082808D10D48406820F46050216940EAED
:10158000C1000A49486000F03FF808494968C1F3C2
:101590000311074A515CC8400649086006480068C4
:1015A000FFF794FE002048E70020024000100240B0
:1015B000162B0008140000200C00002001480068D1
:1015C000704700001400002000B5FFF7F7FF044942
:1015D0004968C1F30221034A515CC84000BD0000C4
:1015E00000100240262B000800B5FFF7E7FF044972
:1015F0004968C1F3C221034A515CC84000BD0000E4
:1016000000100240262B000870B5002100220024A3
:1016100000230020134D696801F00C05F5B1042D7D
:1016200002D0082D19D101E00F4819E00F4DC1F388
:101630008346AB5D01F4803555B10A4D6D68C5F345
:1016400040450B4E725D084D5D43B5FBF2F402E080
:10165000084D03FB05F4204602E000BF024800BF2E
:1016600000BF70BD0010024000127A00042B000879
:10167000142B000800093D00F8B504460CB9012000
:10168000F8BD207800F00100002878D0F8484068C4
:1016900000F00C0004280CD0F548406800F00C0065
:1016A000082811D1F248406800F48030B0F5803F3E
:1016B0000AD1EF48006800F4003000285FD060686D
:1016C00000285CD10120DBE700BF6068B0F5803FF7
:1016D00006D1E748006840F48030E549086028E01A
:1016E000606858B9E248006820F48030E04908603A
:1016F0000846006820F4802008601AE06068B0F5B1
:10170000A02F0BD1DA48006840F48020D849086047
:101710000846006840F4803008600AE0D448006859
:1017200020F48030D24908600846006820F4802008
:10173000086000BF606888B1FFF7A2FD054606E0BB
:10174000FFF79EFD401B642801D9032098E7C84895
:10175000006800F400300028F2D010E0FFF790FDA0
:10176000054606E0FFF78CFD401B642801D90320E5
:1017700086E7BF48006800F400300028F2D12078E6
:1017800000F00200022857D1B948406800F00C0070
:1017900050B1B748406800F00C00082818D1B44890
:1017A000406800F4803098B9B148006800F0020049
:1017B00020B12069012801D0012061E7AC48006810
:1017C00020F0F800616940EAC100A949086033E0EF
:1017D0002069E8B10120A7490860FFF751FD0546DF
:1017E00006E0FFF74DFD401B022801D9032047E723
:1017F0009F48006800F002000028F2D09C48006872
:1018000020F0F800616940EAC1009949086013E0DE
:10181000002098490860FFF733FD054606E0FFF712
:101820002FFD401B022801D9032029E790480068BA
:1018300000F002000028F2D1207800F0080008280B
:101840002DD1A069B8B101208B490860FFF718FDC0
:10185000054606E0FFF714FD401B022801D90320CE
:101860000EE78348406A00F002000028F2D0012011
:1018700000F008FE13E000207F490860FFF700FD3C
:10188000054606E0FFF7FCFC401B022801D90320B7
:10189000F6E67748406A00F002000028F2D120788E
:1018A00000F00400042873D100277148C06900F0DB
:1018B000805070B900BF6E48C06940F080506C49DC
:1018C000C8610846C06900F08050009000BF00BFAA
:1018D00001276A48006800F48070B0B96748006862
:1018E00040F4807065490860FFF7CAFC054606E0D1
:1018F000FFF7C6FC401B642801D90320C0E65F48FF
:10190000006800F480700028F2D000BFE068012871
:1019100006D15748006A40F001005549086227E0A7
:10192000E06858B95248006A20F001005049086246
:101930000846006A20F00400086219E0E068052803
:101940000BD14B48006A40F0040049490862084640
:10195000006A40F0010008620AE04548006A20F091
:101960000100434908620846006A20F0040008624A
:1019700000BFE068A0B1FFF783FC054609E0FFF770
:101980007FFC401B41F28831884202D9032077E670
:1019900022E03748006A00F002000028EFD012E091
:1019A000FFF76EFC054608E0FFF76AFC401B41F2BA
:1019B0008831884201D9032062E62D48006A00F090
:1019C00002000028F0D1012F05D12948C06920F07C
:1019D00080502749C86100BFE069C8B32448406807
:1019E00000F00C00082860D0E069022848D10020EF
:1019F00020490866FFF744FC054606E0FFF740FC77
:101A0000401B022801D903203AE61948006800F07B
:101A100000700028F2D1206AB0F5803F07D1144849
:101A2000406820F40030A168084311494860D4E9B7
:101A3000080108430E49496821F4741108430C4910
:101A4000486001200B490866FFF71AFC054607E0CD
:101A50003DE0FFF715FC401B022801D903200FE6EB
:101A60000348006800F000700028F2D02FE000006A
:101A700000100240000042428004424200700040D8
:101A8000002014490866FFF7FBFB054606E0FFF758
:101A9000F7FB401B022801D90320F1E50E4800683E
:101AA00000F000700028F2D111E0E069012800D1B7
:101AB000E6E50948466806F48031206A814204D18F
:101AC00006F47011606A814201D00120D8E500203F
:101AD000D6E50000000042420010024070B5044606
:101AE0002546681EB0F1807F01D301200FE0681EFB
:101AF0004FF0E02148610F214FF0FF3000F014FF5C
:101B000000204FF0E021886107200861002070BDAF
:101B1000F8B504460E46174694F8420020282ED108
:101B200006B10FB90120F8BD0120206300206063D9
:101B30003A463146204600F03FFE0546EDB9206B9F
:101B4000012819D100BF0020009020680068009093
:101B500020684068009000BF00BF00BF00BF216840
:101B60000C3151E8001F41F0100021680C3141E8B0
:101B70000002002AF3D100E001252846D3E7022025
:101B8000D1E7000038B504460D461F492068884259
:101B900039D1FFF775FB1D4908601D4805801D48B8
:101BA00000881B49098808441A490880FFF7C0F9D2
:101BB00000F0FEFA00F034FBFFF758F94FF48061B3
:101BC0001548FEF7C8FA00BF0020009013480068CF
:101BD00000680090114800684068009000BF00BF96
:101BE00000BF002000900D480068006800900B487E
:101BF00000684068009000BF00BF4FF48062064953
:101C00000648FFF785FF38BD00380140200000205E
:101C1000180000201A000020C800002060000020EA
:101C2000704700002DE9F84F0446206805682068D9
:101C3000C668206847694FF00009CA4605F00F09D9
:101C4000B9F1000F0AD105F0200038B106F02000EC
:101C500020B1204600F0B3FCBDE8F88FB9F1000FC9
:101C60007BD007F0010018B906F49070002874D0FA
:101C700005F0010030B106F4807018B1606C40F0DE
:101C80000100606405F0040030B107F0010018B1F4
:101C9000606C40F00200606405F0020030B107F0B3
:101CA000010018B1606C40F00400606405F00800A9
:101CB00048B106F0200010B907F0010018B1606CBF
:101CC00040F008006064606C002845D005F02000FA
:101CD00028B106F0200010B1204600F070FC20680A
:101CE0004069C0F3801A606C00F0080010B9BAF1C6
:101CF000000F2CD0204600F01CFC2068406900F04A
:101D0000400000B300BF00BF2168143151E8001F3C
:101D100021F040002168143141E80002002AF3D18B
:101D200000BFE06B50B17748E16B4863E06BFEF7B2
:101D3000D9FF88B1E06B416B88470DE02046FFF783
:101D40006FFF09E009E02046FFF76AFF04E0204644
:101D5000FFF766FF002060647EE7206B012877D1E3
:101D600005F01000002873D006F010000028FAD00B
:101D700000BF002000902068006800902068406844
:101D8000009000BF00BF2068406900F040000028BC
:101D90005FD0E06B006840681FFA80F8B8F1000F70
:101DA00055D0A08D404552DDA4F82E80E06B8069AF
:101DB000202843D000BF00BF21680C3151E8001F2C
:101DC00021F4807021680C3141E80002002AF3D12F
:101DD00000BF00BF00BF2168143151E8001F21F08F
:101DE00001002168143141E80002002AF3D100BF4C
:101DF00000BF00BF2168143151E8001F21F04000EE
:101E00002168143141E80002002AF3D100BF2020EC
:101E100084F842000020206300BF00BF21680C311D
:101E200051E8001F21F0100021680C3141E8000248
:101E3000002AF3D100BFE06BFEF728FF02206063A9
:101E4000A08DE28D801A81B22046FFF79BFE03E74A
:101E500042E0A08DE18D401A1FFA80F8E08DD0B3EA
:101E6000B8F1000F37D000BF00BF21680C3151E836
:101E7000001F21F4907021680C3141E80002002A13
:101E8000F3D100BF00BF00BF2168143151E8001F2B
:101E900021F001002168143141E80002002AF3D149
:101EA00000BF202084F842000020206300BF00BF54
:101EB00021680C3151E8001F21F0100021680C311D
:101EC00041E80002002AF3D100BF022060634146CE
:101ED0002046FFF757FEBFE605F0800030B106F060
:101EE000800018B1204600F087FCB5E605F0400000
:101EF00030B106F0400018B1204600F050FBABE6D0
:101F000000BFA9E61F25000810B504460CB9012042
:101F100010BDA06900B100E000BF94F8410028B9ED
:101F2000002084F84000204600F02AF8242084F89D
:101F300041002068C06820F400502168C860204635
:101F400000F0BCFB2068006920F490402168086123
:101F50002068406920F02A00216848612068C06834
:101F600040F400502168C86000206064202084F89C
:101F7000410084F842000020606300BFC8E7000011
:101F800010B586B00446002002900390049005909E
:101F90001E492068884236D100BF1D48806940F440
:101FA00080401B4988610846806900F480400190A8
:101FB00000BF00BF00BF0846806940F00400886190
:101FC0000846806900F00400019000BF00BF48157A
:101FD0000290022003900320059002A90D48FEF70D
:101FE000BFFF4FF48060029000200390049002A98C
:101FF0000848FEF7B5FF002211462520FFF7C6F975
:102000002520FFF7B3F906B010BD000000380140ED
:10201000001002400008014070472DE9F84F0446C7
:102020000E46174699464FF0000A94F841002028C2
:1020300050D106B117B90120BDE8F88F00206064C7
:10204000212084F84100FFF71BF98246A784E7842A
:10205000A068B0F5805F04D1206910B90025B046B2
:1020600002E035464FF000081EE053460022802172
:102070002046CDF8009000F0EFFB20B1202084F83E
:1020800041000320D8E745B9B8F80000C0F30800C4
:102090002168486008F1020803E028782168486058
:1020A0006D1CE08C401EE084E08C0028DDD153469E
:1020B000002240212046CDF8009000F0CDFB20B159
:1020C000202084F841000320B6E7202084F8410056
:1020D0000020B1E70220AFE7704700BFFEE7000035
:1020E00000B58BB0282101A8FEF735F80020069036
:1020F0000790012008900020019002904FF6E070B8
:1021000003900020049005900120099001A9044843
:10211000FEF7CDFA0248FEF747FD0BB000BD000008
:10212000380000202DE9F04105460E4600210F48F9
:10213000FEF742FB3070002413E004EBC40005EB13
:10214000800704EBC40105EB81002421FEF703F8AE
:1021500007F11C033A4600210448FEF741FB601CCE
:10216000C4B23078A042E8DCBDE8F081380000203D
:1021700070B588B004460D46164600BF0B48FEF702
:10218000F9FB0328FAD3182102A8FDF7E4FF002089
:102190000490029406960590019001AB2A4602A98C
:1021A0000248FEF7DFF908B070BD000038000020DB
:1021B00070B586B000240025002015E0154A0244C1
:1021C000154B1B68D15CFF290CD00124114A024435
:1021D000114B1B681A44104E36888319C3F3090348
:1021E000D51A05E0411C88B20C4909888842E5DB14
:1021F00000BF64B100200290012003900495059077
:102200000020019001A902A8FEF7D8FD00BF06B08A
:1022100070BD0000008000081C0000201800002095
:1022200010B527490988274A1278881800EBD07121
:102230004910A0EB4101D1B92248007850B100F01B
:1022400049F8214801681E480088401C08441E497E
:10225000086008E000F06CF81B480068184909881D
:1022600008441949086000201649087027E01548FD
:10227000007880B100F02EF811480088401E134904
:10228000085C13490870104800680D490988084423
:102290000D49086010E000F04BF809480088401E26
:1022A0000A49085C0A49087005480088401E06492A
:1022B000096808440449086001200249087010BDFB
:1022C00018000020250000201C000020C80000206D
:1022D0002400002070B500241AE01048006810495E
:1022E0000844061934B90F48005D0F49097841EADE
:1022F000002505E0601E0B49085C095D40EA0125E8
:102300002A46002331460120FEF7BAFDA01C84B204
:10231000064800888442E0DB70BD00001C000020FD
:1023200000800008C80000202400002018000020C1
:1023300070B5002418E00F4800680F4908440619DA
:10234000601C0E49098888420CDA0D48015D02467E
:10235000601C105C41EA00252A460023314601201A
:10236000FEF78EFDA01C84B2044800888442E2DBA4
:1023700070BD00001C000020008000081800002034
:10238000C800002010B50E480E490860242048609F
:1023900000210C488160C1604FF480310161090166
:1023A0004161002101760121417681760021C176CB
:1023B00001774177FEF7F9FA08B1FEF71EF810BD74
:1023C000006400403800002010B505480549086049
:1023D0000846FEF732FC08B1FEF70FF810BD00000A
:1023E000003002400000002008B500BF134880699B
:1023F00040F01000114988610846806900F0100023
:10240000009000BF00BF00BF0846806940F0200078
:1024100088610846806900F02000009000BF00BF7E
:1024200000BF0846806940F0040088610846806962
:1024300000F00400009000BF00BF08BD0010024083
:1024400010B50B480B4908604FF4E130486000219B
:1024500008488160C16001610C21416100218161F6
:10246000C161FFF751FD08B1FDF7C7FF10BD0000C6
:10247000003801406000002000BFFEE700BFFEE71B
:102480007047000008B508490968C9084FF47A7216
:10249000B1FBF2F14143009100BF00BF00994A1E19
:1024A00000920029F9D108BD14000020704710B532
:1024B000FEF7ECFE10BD00B58FB0282105A8FDF792
:1024C0004AFE14216846FDF746FE012005900004EF
:1024D0000690002007900120099002200C90C10373
:1024E0000D914FF4E0110E9105A8FFF7C5F808B162
:1024F000FDF783FF0F200090022001900020029042
:102500004FF4806003900020049002216846FEF79B
:102510008FFF08B1FDF771FF0FB000BD704770B5B8
:1025200005466C6A0020E085E0842046FFF778FBD2
:1025300070BD00BF00BF02680C3252E8002F22F4C9
:10254000907102680C3242E80013002BF3D100BFF7
:1025500000BF00BF0268143252E8002F22F00101D0
:102560000268143242E80013002BF3D100BF016B64
:1025700001290ED100BF00BF02680C3252E8002FC3
:1025800022F0100102680C3242E80013002BF3D154
:1025900000BF202180F8421000210163704710B570
:1025A00004462068C06820F040002168C8602020F0
:1025B00084F841002046FFF78FFD002010BDF8B5DC
:1025C000044694F84200222875D1A068B0F5805FD7
:1025D0000CD1206950B90025A66A20684068C0F374
:1025E00008003080A06A801CA06215E0A56A002661
:1025F000A068B0F5805F03D0A06828B9206918B939
:1026000020684068287004E02068406800F07F007F
:102610002870A06A401CA062E08D401E80B2E08558
:10262000002846D12068C06820F020002168C860DA
:102630002068C06820F480702168C8602068406904
:1026400020F0010021684861202084F84200002029
:102650006063206B012826D10020206300BF00BFEB
:1026600021680C3151E8001F21F0100021680C3165
:1026700041E80002002AF3D100BF2068006800F0A2
:10268000100010280AD100BF0020009020680068C8
:10269000009020684068009000BF00BFA18D2046D8
:1026A000FFF770FA02E02046FFF7B6FC0020F8BD05
:1026B00001E00020FBE70220F9E7000070B50446C6
:1026C0002168096921F44051E268114322681161CF
:1026D0002269A1681143626941EA02052168C9685B
:1026E00041F20C62914329432268D1602168496913
:1026F00021F44071A2691143226851612D4A216879
:10270000914202D1FEF770FF01E0FEF75DFF00EBA2
:10271000C00101EB001162689200B1FBF2F100EB25
:10272000C00202EB001263689B00B2FBF3F2642369
:10273000B2FBF3F202EBC20303EB0212A1EB820144
:10274000322202EB01116422B1FBF2F101F0F0013F
:1027500000EBC00202EB001263689B00B2FBF3F2D5
:102760006423B2FBF3F201EB021200EBC00101EBB8
:10277000001163689B00B1FBF3F100EBC00303EBB6
:1027800000136668B600B3FBF6F36426B3FBF6F3FA
:1027900003EBC30606EB0313A1EB8301322303EB28
:1027A00001116423B1FBF3F101F00F011144226820
:1027B000916070BD0038014010B5034699629A855A
:1027C000DA8500205864222083F84200186928B175
:1027D0001868C06840F480701C68E0601868406940
:1027E00040F001001C6860611868C06840F020007B
:1027F0001C68E060002010BD014691F841002128CE
:1028000028D18868B0F5805F0BD1086948B90A6A99
:102810001088C0F308000B685860086A801C0862C2
:1028200005E00B6A581C086218780B685860C88C61
:10283000401E80B2C88458B90868C06820F0800083
:102840000B68D8600868C06840F040000B68D8602A
:10285000002070470220FCE72DE9F84304460D46AE
:1028600017469846089E31E0701C70B3FEF708FDCD
:10287000A0EB0800B04200D816B90320BDE8F883E9
:102880002068C06800F00400F8B1802D1ED0402DF3
:102890001CD020680068C0F3C000B0B100BF0020A9
:1028A000009020680068009020684068009000BF99
:1028B00000BF2046FFF73DFE0820606400BF0020F7
:1028C00084F8400000BF0120D8E7FFE720680068D7
:1028D0002840A84201D1012000E00020B842C3D026
:1028E0000020CBE710B50248FFF79CF910BD0000AF
:1028F0006000002000BFFEE70FB4054B10B503A930
:10290000044A029800F034F810BC5DF814FB000093
:10291000C52A00083400002002480068C0F30220E5
:10292000704700000CED00E010B5002804DB0A073A
:10293000130E054A135406E00A07140E034A00F06A
:102940000F031B1FD45410BD00E400E018ED00E09D
:1029500002E008C8121F08C1002AFAD17047704768
:10296000002001E001C1121F002AFBD170470000C6
:102970002DE9FF4F89B09B460446002506E0252837
:102980000BD05A460B999047641C6D1C2078002888
:10299000F5D10DB02846BDE8F08F0027B8460122DA
:1029A000474900E0074314F8013F203B02FA03F0D7
:1029B0000842F7D120782E2819D114F8010F47F0DA
:1029C00004072A280ED06FF02F022078A0F13001E2
:1029D00009290CD808EB880102EB410100EB010842
:1029E000641CF2E70A98641C50F8048B0A90207863
:1029F0000028CED0642808D0692806D075281ED0BB
:102A00005A460B9990476D1C58E00A994FF00A09F5
:102A100001C90A91002802DA40422D2102E039055D
:102A200004D52B218DF82010012103E0F90704D0F3
:102A30002021F7E78A4608AE0DE00021FAE70A995F
:102A40004FF00A0901C90A91F7E74946FDF78EFBE5
:102A5000303106F8011D0028F7D1ADEB060000F17A
:102A60002009780701D44FF00108C84502DDA8EB22
:102A7000090000E000208046002706E008A85A462A
:102A8000C05D0B9990476D1C7F1C5745F6DB04E039
:102A900030205A460B9990476D1CB8F10001A8F1FF
:102AA0000108F5DC05E016F8010B5A460B99904732
:102AB0006D1CB9F10001A9F10109F4DC641C65E7A2
:102AC0000928010013B50C464FF6FF730122694631
:102AD0000248FFF7A2FA00981CBD00006000002029
:102AE000FEF7E0FBFFF7E7FCFFF77EFCFFF74AFC91
:102AF000FFF7A6FCFFF768FCFDF77EFB01E0FDF7A2
:102B000067FCFCE702030405060708090A0B0C0D25
:102B10000E0F101001020000000000000000010272
:102B20000304060708090000000001020304000076
:102B3000502B000800000020380000005029000839
:102B4000882B0008380000200009000060290008D8
:102B50000000000000000000000000001000000065
:102B60000100000000127A000000000000000000D8
:102B70000000000000000000000000000000000055
:082B800000000000000000004D
:04000005080000ED02
:00000001FF
